:100000000C946E010C949F010C949F010C949F0121
:100010000C949F010C949F010C949F010C949F01E0
:100020000C949F010C949F010C949F010C949F01D0
:100030000C949F010C949F010C949F010C949F01C0
:100040000C949F010C940B0F0C949F010C949F0136
:100050000C949F010C949F010C949F010C94370EFB
:100060000C949F010C94010E0C94D70D0C949F01DD
:100070000C949F010C949F010C949F010C949F0180
:100080000C94DD0E0C949F010C949F010C949F0125
:100090000C949F010C949F010C949F010C949F0160
:1000A0000C949F010C949F010C94AF0E0C949F0133
:1000B0000C949F010C949F010C949F010C94810E51
:1000C0000C949F010C949F010C949F010C949F0130
:1000D0000C949F010C949F010C949F010C949F0120
:1000E0000C949F010C94BC050C94CE010C94FF0160
:1000F0000C9437040C9426130C9401030C94050300
:100100000C9478040C940E030C94A2050C94A10199
:100110000C9409040C9455040C942A030C94380391
:100120000C9478050C9427040C9433030C9434033A
:100130000C941C030C94F1010C94DA050C9412033A
:100140000C9482050C94BA050C941D040C947E0F3B
:100150000C9413040C9441040C9408030C9426038F
:100160000C94FD020C9420030C9437020C9496041A
:100170000C9484020C9418030C94F3020C942F0436
:100180000C9404040C94C2050C9482040C944B044B
:100190000C94E0050C946E040C948C040C94DD011A
:1001A0000C942E030C9490050C94F9020C94FC030F
:1001B0000C94CC050C94640400002100240027005A
:1001C0002A002D0030003300010100000401070166
:1001D0000A0100002200250028002B002E0031001B
:1001E000340002010000050108010B0100000A0BA8
:1001F00002090C0D0E0807030401000000000000B6
:1002000000000000000000000000000000000000EE
:1002100000000000000000001211100000000000AB
:1002200000000000000000000000000000000000CE
:100230000000000020002300260029002C002F00D1
:100240003200000100000301060109010505050552
:10025000070508080808020202020A0A080804043E
:10026000040401010101010101010303030303036C
:100270000303040707070C0C0C0C0C0C0C0C0202FB
:10028000020206060606060606060B0B0B0B0B0BF8
:100290000B0B010210202008081020401020408085
:1002A000020102010804020101020408102040803A
:1002B00080402010080402018004020180402010C8
:1002C0000804020108040201010204081020408011
:1002D00001020408102040807E0F261311241FBE47
:1002E000CFEFD1E2DEBFCDBF00E00CBF12E0A0E057
:1002F000B2E0E8EFFBE200E00BBF02C007900D9216
:10030000A23EB107D9F724E0A2EEB2E001C01D92EF
:10031000A03FB207E1F711E0CDE6D1E000E006C072
:1003200021970109802FFE010E94B813CC36D10716
:1003300080E00807A9F70E942D110C94EA150C948F
:100340000000AF92BF92CF92DF92EF92FF920F9395
:100350001F93CF93DF936C017B018B01040F151F5B
:10036000EB015E01AE18BF08C017D10759F06991C3
:10037000D601ED91FC910190F081E02DC601199517
:10038000892B79F7C501DF91CF911F910F91FF90D4
:10039000EF90DF90CF90BF90AF900895FC01538D08
:1003A000448D252F30E0842F90E0821B930B54174F
:1003B00010F0CF96089501970895FC01918D828DDC
:1003C000981761F0A28DAE0FBF2FB11D5D968C9175
:1003D000928D9F5F9F73928F90E008958FEF9FEFB4
:1003E0000895FC01918D828D981731F0828DE80F70
:1003F000F11D858D90E008958FEF9FEF0895FC012A
:10040000918D228D892F90E0805C9F4F821B9109F6
:100410008F73992708958CEF92E00E94FF0121E0ED
:10042000892B09F420E0822F0895FC01A48DA80FE8
:10043000B92FB11DA35ABF4F2C91848D90E0019626
:100440008F739927848FA689B7892C93A089B18946
:100450008C91837080648C93938D848D981306C0E7
:100460000288F389E02D80818F7D80830895EF924B
:10047000FF920F931F93CF93DF93EC0181E0888F5E
:100480009B8D8C8D98131AC0E889F989808185FF2E
:1004900015C09FB7F894EE89FF896083E889F989D0
:1004A00080818370806480839FBF81E090E0DF91D2
:1004B000CF911F910F91FF90EF900895F62E0B8D25
:1004C00010E00F5F1F4F0F731127E02E8C8D8E11E0
:1004D0000CC00FB607FCFACFE889F989808185FF47
:1004E000F5CFCE010E941502F1CFEB8DEC0FFD2F61
:1004F000F11DE35AFF4FF0829FB7F8940B8FEA8902
:10050000FB8980818062CFCFCF93DF93EC01888D10
:100510008823B9F0AA89BB89E889F9898C9185FD7E
:1005200003C0808186FD0DC00FB607FCF7CF8C910C
:1005300085FFF2CF808185FFEDCFCE010E941502AD
:10054000E9CFDF91CF91089580E090E0892B29F0E9
:100550000E940B0281110E94000080E090E0892B34
:1005600049F080E090E0892B29F00E940000811181
:100570000E94000080E090E0892B49F080E090E04C
:10058000892B29F00E94000081110E94000080E068
:1005900090E0892B49F080E090E0892B29F00E94BF
:1005A000000081110C94000008958150823108F000
:1005B0005AC0E82FF0E08827EF51FD4F8F4F0C9481
:1005C000B81301030503F302F902FD023303080324
:1005D0000E03120318031C03200326032A0333030C
:1005E0002E0334033803809180008F77809380003E
:1005F0000895809180008F7DF9CF80918000877F62
:10060000F5CF84B58F7784BD089584B58F7DFBCFFA
:100610008091B0008F778093B00008958091B000F2
:100620008F7DF9CF809190008F778093900008950F
:10063000809190008F7DF9CF80919000877FF5CFDA
:100640008091A0008F778093A00008958091A000F2
:100650008F7DF9CF8091A000877FF5CF8091200119
:100660008F77809320010895809120018F7DF9CFAD
:1006700080912001877FF5CFCF93DF93282F30E043
:10068000F901E451FE4F8491F901EE56FD4FD491EA
:10069000F901E45BFD4FC491CC23A1F081110E94CC
:1006A000D502EC2FF0E0EE0FFF1FEE5CFD4FA591A1
:1006B000B491EC91ED2381E090E009F480E0DF91CA
:1006C000CF91089580E090E0FACF1F93CF93DF930E
:1006D000282F30E0F901E451FE4F8491F901EE56E4
:1006E000FD4FD491F901E45BFD4FC491CC23A9F0F7
:1006F000162F81110E94D502EC2FF0E0EE0FFF1FA4
:10070000EE52FE4FA591B4918FB7F894EC91111170
:1007100008C0D095DE23DC938FBFDF91CF911F916E
:100720000895DE2BF8CFCF93DF9390E0FC01EE56D7
:10073000FD4F2491845B9D4FFC0184918823D1F06F
:1007400090E0880F991FFC01E854FE4FA591B491E9
:10075000FC01EE52FE4FC591D49161110EC09FB7BE
:10076000F8948C91E22FE0958E238C932881E223DC
:10077000E8839FBFDF91CF9108958FB7F894EC91F4
:10078000E22BEC938FBFF6CF1F93CF93DF93182FFD
:10079000EB0161E00E949303209739F460E0812F20
:1007A000DF91CF911F910C946503CF3FD10511F4D8
:1007B00061E0F5CFE12FF0E0E451FE4FE491E1502C
:1007C000E23108F0B3C0F0E08827E651FC4F8F4FCC
:1007D0000C94B813FC030404090413041D049604C8
:1007E00027042F04370441044B04550464046E04A9
:1007F0009604780482048C0484B5806884BDC7BDE7
:10080000DF91CF911F91089584B5806284BDC8BDEA
:10081000F7CF80918000806880938000D09389001A
:10082000C0938800EDCF809180008062809380002B
:10083000D0938B00C0938A00E3CF809180008860C2
:1008400080938000D0938D00C0938C00D9CF80918D
:10085000B00080688093B000C093B300D1CF809186
:10086000B00080628093B000C093B400C9CF809183
:100870009000806880939000D0939900C093980076
:10088000BFCF80919000806280939000D0939B00B6
:10089000C0939A00B5CF80919000886080939000BB
:1008A000D0939D00C0939C00ABCF8091A000806846
:1008B0008093A0008091A0008F7B8093A000D093B4
:1008C000A900C093A8009CCF8091A0008062809373
:1008D000A000D093AB00C093AA0092CF8091A0005B
:1008E00088608093A000D093AD00C093AC0088CF07
:1008F00080912001806880932001D0932901C093CA
:1009000028017ECF80912001806280932001D093C6
:100910002B01C0932A0174CF8091200188608093BD
:100920002001D0932D01C0932C016ACFC038D1058E
:100930000CF03ECF33CF3FB7F8948091F8029091FE
:10094000F902A091FA02B091FB0226B5A89B05C05E
:100950002F3F19F00196A11DB11D3FBFBA2FA92F3E
:10096000982F8827BC01CD01620F711D811D911D3B
:1009700042E0660F771F881F991F4A95D1F70895A7
:100980008F929F92AF92BF92CF92DF92EF92FF929F
:100990006B017C010E949B044B015C01C114D104DA
:1009A000E104F104B9F00E949B04681979098A09ED
:1009B0009B09683E73408105910580F321E0C21ACE
:1009C000D108E108F10888EE880E83E0981EA11C8A
:1009D000B11CE4CFFF90EF90DF90CF90BF90AF902D
:1009E0009F908F9008950F931F93CF93DF93EC0107
:1009F0008B0188859985029751F46130710509F45E
:100A00003AC06CF560E00115110509F435C0888520
:100A10009985049751F40130110509F455C00CF083
:100A200035C00115110509F43EC0888599850597E3
:100A300009F0C8C00A30110508F0C4C0F8018827C1
:100A4000EB5DFA4F8F4F0C94B81378058205900533
:100A5000A205BA05BC05C205CC05DA05E005623081
:100A6000710591F060E00330110589F68C850E94D4
:100A7000650360E005C061E08C850E94650361E06C
:100A80008E850E946503C3CF61E0F0CF023011056F
:100A900009F10330110509F0C8CF61E08C850E948F
:100AA000650360E01CC061E08C850E94650360E026
:100AB0008E850E94650361E088890E94650360E07D
:100AC0008A890E946503B1CF60E08C850E9465032E
:100AD00061E0EECF60E08C850E94650361E08E8569
:100AE0000E94650360E088890E94650361E0E8CFA9
:100AF00060E08C850E94650361E08E850E9465033D
:100B000061E009C060E08C850E94650361E08E852C
:100B10000E94650360E088890E94650360E00DC063
:100B200060E08C850E94650361E08E850E9465030C
:100B300060E088890E94650361E08A890E946503FC
:100B400061E011C060E08C850E94650361E08E85E4
:100B50000E94650360E088890E94650361E08A89DC
:100B60000E94650360E08C89DF91CF911F910F9106
:100B70000C94650361E0E7CF61E08C850E9465031A
:100B800060E0E5CF61E08C850E94650360E08E85C2
:100B90000E94650361E0DFCF61E08C850E94650300
:100BA00060E08E850E94650361E088890E9465038C
:100BB00060E0D5CF61E08C850E94650360E09DCF49
:100BC00060E0F9CFDF91CF911F910F910895CF92FF
:100BD000DF92EF92FF920F931F93CF93DF93EC017D
:100BE0006130710509F045C0798368830E949B04D8
:100BF0000E891F89288D398D6B017C01C01AD10A9D
:100C0000E20AF30A0A811B812C813D81C016D106BC
:100C1000E206F30658F36E8B7F8B888F998F8A8557
:100C20009B85288139812130310549F501969B87C3
:100C30008A872E813F818217930711F41B861A86BB
:100C40008A859B85288539856AE070E025303105E5
:100C500011F064E070E00E94A413BC01CE01DF91AA
:100C6000CF911F910F91FF90EF90DF90CF900C9458
:100C7000F3046F3F7F4F79F419821882B7CF892B25
:100C800021F48E819F819B878A878A859B85019726
:100C90009B878A87D5CFDF91CF911F910F91FF90CE
:100CA000EF90DF90CF900895CF92DF92EF92FF9276
:100CB000CF93DF93EC01603282E07807CCF5653B9F
:100CC000710514F064EB70E0898128E830E0281B9E
:100CD000310987FD3395220F331F220F331F69011E
:100CE000330FEE08FF088A8128E532E0281B31091E
:100CF00087FD3395220F331F220F331F032E000C65
:100D0000440B550B2C193D094E095F09DB0177FF98
:100D100002C0B0E0A0E00E945F1324EB30E040E0AE
:100D200050E00E943513C20ED31EE41EF51EB6011C
:100D3000E881E03370F5298188E890E0821B910911
:100D400027FD9395880F991F880F991F68177907BA
:100D50007CF02A8188E592E0821B910927FD93951A
:100D6000880F991F880F991F681779070CF4CB011A
:100D70000297880F991F4FB7F8942E2F30E0F90192
:100D8000EE0FFF1FE20FF31FE756FC4F92838183A4
:100D90004FBFDF91CF91FF90EF90DF90CF900895FC
:100DA0001F93CF93DF93EC01162F8881803308F0D7
:100DB0004EC061E0812F0E9493038881282F30E08C
:100DC000F901EE0FFF1FE20FF31FE756FC4F1F73F1
:100DD0006081607C612B608319821A822CE0622F13
:100DE0000E949813829FB001112430E020E0AB01F3
:100DF000420F531FFA01EE0FFF1FE40FF51FE756D6
:100E0000FC4F908196FD16C02F5F3F4F2C3031056F
:100E100071F7813009F51092800082E080938100A3
:100E20001092850010928400B19A80916F008260C8
:100E300080936F00E8818E2F90E0FC01EE0FFF1F82
:100E4000E80FF91FE756FC4F80818064808388811A
:100E5000DF91CF911F910895823061F4109290003C
:100E600080939100109295001092940088BB80931B
:100E70007100E0CF833069F41092A00082E080938B
:100E8000A1001092A5001092A40089BB809372006B
:100E9000D1CF8111CFCF1092200182E08093210128
:100EA00010922501109224018ABB80937300C2CF57
:100EB000AF92BF92CF92DF92EF92FF920F931F9368
:100EC000CF93DF936B017A01EC01C151DD4F288193
:100ED0003CE0389F8001399F100D1124A090290417
:100EE000B12C27FF1FC0FB011182108288818F5F08
:100EF000888388819801280F311D87FD3A95F60176
:100F00002A153B051CF488818C30C4F180819181C5
:100F1000049680349C4908F473C0F6018081918165
:100F2000049670C088819801280F311D87FD3A957D
:100F30002A153B05DCF68881A801480F511D87FD65
:100F40005A95FA01EE0FFF1FE40FF51FE756FC4F0D
:100F5000808186FFCBCF8881F801E80FF11D87FDE6
:100F6000FA95CF01EE0FFF1FE80FF91FE756FC4F70
:100F7000808160E08F730E946503B8CF808191818A
:100F80002881A801420F511D27FD5A959A01FA01A7
:100F9000EE0FFF1FE20FF31FE756FC4F2181328156
:100FA000820F931FF7019183808388819801280F16
:100FB000311D87FD3A95F901EE0FFF1FE20FF31F78
:100FC000E756FC4F808186FF22C08881080F111DE3
:100FD00087FD1A95F801EE0FFF1FE00FF11FE7568E
:100FE000FC4F808161E08F73DF91CF911F910F9152
:100FF000FF90EF90DF90CF90BF90AF900C9465037F
:1010000080E49CE9F701918380838FEF8883DF91EF
:10101000CF911F910F91FF90EF90DF90CF90BF90F5
:10102000AF900895CF93DF93EC0162E370E08AE024
:101030000E94C40362E370E089E00E94C40360E0A0
:1010400085E00E94650361E084E00E94650361E041
:1010500083E00E94650360E082E00E946503BE01B8
:10106000DD0F880B990BDF91CF910C94C004CF93C7
:10107000DF93EC0162E370E08AE00E94C40362E364
:1010800070E089E00E94C40361E085E00E9465038E
:1010900060E084E00E94650360E083E00E946503F5
:1010A00061E082E00E946503BE01DD0F880B990BB1
:1010B000DF91CF910C94C00460E085E00E9465034D
:1010C00060E084E00E94650360E083E00E946503C5
:1010D00060E082E00C94650364E670E08AE00E94C0
:1010E000C40364E670E089E00E94C40360E085E028
:1010F0000E94650361E084E00E94650360E083E094
:101100000E94650361E082E00C946503CF92DF9258
:10111000EF92FF920F931F93CF93DF931F921F9233
:10112000CDB7DEB769834A83880F991F0091B00459
:101130001091B104000F111FEAE5F4E09F012A5558
:1011400034402017310714F41192F8CF2981FC01A3
:10115000E65AFB4F21838A81808360E08091AE0450
:101160000E9465031016110604F501501109F801DB
:10117000E65AFB4FE080D090AC04C090AA0488E00F
:10118000F82E6E2D661F6627661F8C2D0E94650344
:10119000EE0C61E08D2D0E94650360E08D2D0E94B4
:1011A0006503FA94F110EDCFDDCF61E08091AE04DC
:1011B0000F900F90DF91CF911F910F91FF90EF90C3
:1011C000DF90CF900C946503EF92FF920F931F93E3
:1011D000CF937C018C0183E0000F111F8A95E1F70A
:1011E00006591B4FC1E0F80111928F0140E06C2FAE
:1011F000C7010E948608CF5FC930A9F7CF911F9120
:101200000F91FF90EF900895CF93DF93FC01019031
:101210000020E9F73197AF01481B590BBC018CEF57
:1012200092E00E94A101EC0142E050E06FE172E027
:101230008CEF92E00E94A1018C0F9D1FDF91CF9156
:1012400008950F931F9390E0FC01EE56FD4F6491BB
:10125000FC01E45BFD4FE491F0E0EE0FFF1FEE5C5C
:10126000FD4F8591949100E412E42FE030E0462F89
:101270000E94390F611571058105910529F06F5F95
:101280007F4F8F4F9F4F9F701F910F9108950F9326
:101290001F93CF93DF93EC0188819981009759F0D8
:1012A0002A813B812617370730F081E0DF91CF910B
:1012B0001F910F9108958B016F5F7F4F0E94F9146A
:1012C000009759F0998388831B830A832C813D8181
:1012D000232B59F7FC011082E8CF80E0E7CFEF9293
:1012E000FF920F931F93CF93DF936115710541F424
:1012F00080E0DF91CF911F910F91FF90EF900895C3
:1013000041155105B1F07B01EC010C811D81040FE9
:10131000151FB8010E944709882351F3288139819C
:101320008C819D81B701820F931F0E94E3151D835D
:101330000C8381E0DECFCF93DF93EC01888199812C
:10134000009711F00E947014198218821D821C826D
:101350001B821A82DF91CF910895EF92FF920F9333
:101360001F93CF93DF93EC017B018A01BA010E94A6
:10137000470981110BC0CE010E949B09CE01DF916C
:10138000CF911F910F91FF90EF9008951D830C83D3
:10139000B701888199810E94E315F0CFCF93DF9345
:1013A000EC01FB018617970749F060817181611597
:1013B000710541F0448155810E94AD09CE01DF9154
:1013C000CF9108950E949B09F9CFFC0111821082F0
:1013D0001382128215821482FB0101900020E9F72A
:1013E0003197AF01461B570B0C94AD09FC0180816E
:1013F0009181009711F00C94701408958F929F9230
:10140000AF92BF92CF92DF92EF92FF920F931F9312
:10141000CF93DF93CDB7DEB768970FB6F894DEBFF2
:101420000FBECDBF64E670E08AE00E94C40364E6AC
:1014300070E089E00E94C40361E085E00E946503DA
:1014400060E084E00E94650361E083E00E94650340
:1014500060E082E00E9465038091ED029091EE02CF
:1014600001969093EE028093ED02089709F03CC13B
:1014700080910602882309F4A5C08091030290910F
:10148000040220910502222309F49AC00197909347
:10149000040280930302A0900002B090010228E0B1
:1014A000A216B10440F4E0900302F090040238E088
:1014B000E316F10498F183E090E0909301028093A9
:1014C000000290930402809303020AE214E05AE5BA
:1014D000E52E54E0F52E48E050E062E272E0C801EB
:1014E0000E94AD090A5F1F4FE016F106A1F7809137
:1014F000B0049091B1041816190624F490E080E02D
:101500000E94E40864E670E080E090E00E94C0047D
:1015100033E0E32EF12C43E0A42EB12C80910302A2
:101520009091040226E0D22ED89EB001D99E700D73
:101530001124665D7B4F1C8A1B8A1E8A1D8A188EA9
:101540001F8ACE0143960E94CE0961E272E0CE016D
:101550000D960E94E50961E272E0CE0107960E94B5
:10156000E50910E000E0DE9CC001DF9C900D112435
:10157000FC01E65DFB4F6F014F01F4E08F0E911C03
:10158000A016B10689F1F40180819181081719072D
:1015900048F5F60180819181009721F1800F911F1C
:1015A000FC01808189831A8241E050E0BE016F5FB7
:1015B0007F4FCE010D960E946F090F5F1F4FE0CF46
:1015C000019665CF80910002909101022091020264
:1015D000222331F0019790930102809300025BCFA8
:1015E0000196F9CF80E0DECF009100021091010258
:1015F0000F5F1F4F26E02E9DC0012F9D900D1124DF
:101600009C01265D3B4F6901590134E0A30EB11CDA
:1016100008301105FCF4F501808191810817190744
:10162000B8F4F60180819181009791F0800F911FAD
:10163000FC01808189831A8241E050E0BE016F5F26
:101640007F4FCE0107960E946F090F5F1F4FE0CFBB
:1016500080E0F0CF1A8219821C821B821E821D82BA
:10166000BE01635F7F4FCE0101960E94CE0941E02B
:1016700050E06EEA72E0CE0101960E946F0981117E
:1016800004C0CE0101960E949B094B855C856F8149
:101690007885CE0101960E946F09811104C0CE01A8
:1016A00001960E949B0926E02E9DC0012F9D900D62
:1016B0001124BE016F5F7F4F865D9B4F0E94CE0954
:1016C000CE0101960E94F609CE0107960E94F60906
:1016D000CE010D960E94F609CE0143960E94F609AE
:1016E0001092EE021092ED0268960FB6F894DEBFEB
:1016F0000FBECDBFDF91CF911F910F91FF90EF9063
:10170000DF90CF90BF90AF909F908F900895BF9241
:10171000CF92DF92EF92FF920F931F93CF93DF93BD
:101720008DE00E943C039093EC028093EB028CE0EE
:101730000E943C039093EA028093E9028BE00E94AE
:101740003C039093E8028093E70280917B00877FBF
:1017500080937B0080E480937C0080917A00806499
:1017600080937A0080917A0086FDFCCF909178007A
:10177000809179008927982789278497079708F00F
:1017800063C08BE292E00E94040961E08FE10E9455
:10179000650389E392E00E94040989E492E00E94D3
:1017A000040963E270E089EE94E00E94D00681E0D3
:1017B00090E09093E3028093E202C091E202D09124
:1017C000E302C23D23E0D2078CF4BE0189EE94E02F
:1017D0000E9454066FE070E080E090E00E94C00438
:1017E0002196D093E302C093E202E7CF83E592E033
:1017F0000E94040980E292E00E9404098091EB02B9
:101800009091EC028130910521F58091E90290914F
:10181000EA0281309105E9F58091E7029091E802B2
:101820008130910509F09DC081E08093E60261E07E
:1018300070E08CEC94E00E94E70561E070E082EBE0
:1018400094E00E94E70537C060E08FE10E946503E5
:10185000D5CF892B91F58091E9029091EA028130F0
:10186000910509F08FC08091E7029091E8020097FE
:10187000D9F2019711F581E08093E60261E070E012
:101880008CEC94E00E94E7058CE090E00E94370821
:10189000CECF892B91F48091E7029091E8028130BC
:1018A000910511F2892B49F481E08093E60281E1F0
:1018B00090E00E9412080E94FE090AE514E08AE204
:1018C000E82E84E0F82EBB24B39490E8C92ED12CE6
:1018D000D0E0C0E02091B0043091B104F7018481E0
:1018E0009581C817D90708F052C18081918100976E
:1018F00009F44DC18C0F9D1FFC018081813309F0DB
:1019000046C1121613068CF4F8014089C6010C2E4C
:1019100002C0959587950A94E2F7482BF801408B11
:101920006B2D90E080E00E9486082196C830D1059A
:1019300089F60F5F1F4FB394F6E0EF0EF11C29E01C
:10194000B212C6CF64E670E080E090E0DF91CF9104
:101950001F910F91FF90EF90DF90CF90BF900C946C
:10196000C004892B09F0A9CF81E08093E60261E0F1
:1019700070E082EB94E00E94E7058CE090E00E942A
:10198000120855CF892B09F098CF8091E7029091EA
:10199000E8028130910541F481E08093E60281E123
:1019A00090E00E94370887CF892B09F086CF80917D
:1019B000E602882309F481CF1092E6026FEF7FEFF1
:1019C0008CEC94E00E94E7056FEF7FEF82EB94E0F0
:1019D0000E94E7050E946C0868EC70E080E090E0EF
:1019E0000E94C0040E945C086CE474E080E090E017
:1019F0000E94C0048091E4029091E502892B09F0D5
:101A000083C061E070E08CEC94E00E94E70584E321
:101A100098E00E9437080E945C0865EF70E080E063
:101A200090E00E94C00461E070E08CEC94E00E94C1
:101A3000E70561E070E082EB94E00E94E7050E9418
:101A4000FE0960E971E080E090E00E94C0048CE053
:101A50000E943C03EC019093EA028093E9020E9409
:101A60005C0868EE73E080E090E00E94C00421977B
:101A7000E1F41092E5021092E40281E08093E60224
:101A800080910602882341F090910502992309F480
:101A90006EC0109202026EC090910202992309F466
:101AA00073C091E09093050265C06FEF7FEF8CECFF
:101AB00094E00E94E7056FEF7FEF82EB94E00E94D5
:101AC000E7050E946C0864EF71E080E090E00E94FE
:101AD000C00481E090E09093E5028093E4026FEF10
:101AE0007FEF8CEC94E00E94E7056FEF7FEF82EBD5
:101AF00094E00E94E7050E946C0863E270E080E0D9
:101B000090E00E94C00493CE84E090E10E9412080D
:101B10000E945C0861E070E082EB94E00E94E705BF
:101B200064E670E080E090E00E94C00461E070E054
:101B300082EB94E00E94E70564E670E080E090E0CC
:101B40000E94C0040E945C0865EF70E080E090E0B5
:101B50000E94C0041092E5021092E40280910602F5
:101B6000882369F090910502992309F492CF91E0BE
:101B70009093020291E089278093060258CE9091BB
:101B80000202992309F48DCF10920502F3CF1216A9
:101B900013060CF0CACEA6010C2E02C0559547952F
:101BA0000A94E2F74095F80180894823B8CE1F9245
:101BB0000F920FB60F9211240BB60F922F933F93F3
:101BC0004F935F936F937F938F939F93AF93BF9345
:101BD000EF93FF938CEF92E00E941502FF91EF913B
:101BE000BF91AF919F918F917F916F915F914F9135
:101BF0003F912F910F900BBE0F900FBE0F901F9033
:101C000018951F920F920FB60F9211240BB60F92D8
:101C10002F938F939F93EF93FF93E0910C03F09199
:101C20000D038081E0911203F091130382FD1DC02A
:101C30009081809115038F5F8F7320911603821717
:101C400041F0E0911503F0E0E450FD4F958F809353
:101C50001503FF91EF919F918F912F910F900BBEE4
:101C60000F900FBE0F901F9018958081F2CF1F929A
:101C70000F920FB60F9211242F933F938F939F9340
:101C8000AF93BF938091F4029091F502A091F60278
:101C9000B091F7023091F30223E0230F2D3758F56E
:101CA0000196A11DB11D2093F3028093F40290933D
:101CB000F502A093F602B093F7028091F80290919A
:101CC000F902A091FA02B091FB020196A11DB11D8B
:101CD0008093F8029093F902A093FA02B093FB026A
:101CE000BF91AF919F918F913F912F910F900FBE18
:101CF0000F901F90189526E8230F0296A11DB11D85
:101D0000D2CF1F920F920FB60F9211240BB60F92E3
:101D10002F933F934F935F936F937F938F939F93F3
:101D2000AF93BF93EF93FF9348E251E064E271E019
:101D300090E080E00E945807FF91EF91BF91AF9132
:101D40009F918F917F916F915F914F913F912F91D3
:101D50000F900BBE0F900FBE0F901F9018951F9203
:101D60000F920FB60F9211240BB60F922F933F9341
:101D70004F935F936F937F938F939F93AF93BF9393
:101D8000EF93FF9348EA50E064EA70E083E090E06C
:101D90000E945807FF91EF91BF91AF919F918F9152
:101DA0007F916F915F914F913F912F910F900BBE5B
:101DB0000F900FBE0F901F9018951F920F920FB6A5
:101DC0000F9211240BB60F922F933F934F935F9373
:101DD0006F937F938F939F93AF93BF93EF93FF93F3
:101DE00048E950E064E970E082E090E00E94580722
:101DF000FF91EF91BF91AF919F918F917F916F91E3
:101E00005F914F913F912F910F900BBE0F900FBE9E
:101E10000F901F9018951F920F920FB60F921124DA
:101E20000BB60F922F933F934F935F936F937F93D4
:101E30008F939F93AF93BF93EF93FF9348E850E046
:101E400064E870E081E090E00E945807FF91EF9114
:101E5000BF91AF919F918F917F916F915F914F91C2
:101E60003F912F910F900BBE0F900FBE0F901F90C0
:101E70001895CF92DF92EF92FF920F931F93E82F66
:101E8000F92F05C0015011092109310961F1908133
:101E900096239417B9F305C001501109210931099E
:101EA00011F1908196239413F7CFC12CD12CE12C02
:101EB000F12C0AC08FEFC81AD80AE80AF80A0C15E4
:101EC0001D052E053F0579F080818623841791F347
:101ED0006C2D7D2D8E2D9F2D1F910F91FF90EF90DA
:101EE000DF90CF90089560E070E080E090E01F9177
:101EF0000F91FF90EF90DF90CF9008950F931F9375
:101F0000CF93DF931092FF021092FE0288EE93E0CF
:101F1000A0E0B0E08093000390930103A09302033C
:101F2000B093030381E192E09093FD028093FC0261
:101F300085EC90E0909309038093080384EC90E093
:101F400090930B0380930A0380EC90E090930D0331
:101F500080930C0381EC90E090930F0380930E0329
:101F600082EC90E0909311038093100386EC90E054
:101F7000909313038093120310921503109216038B
:101F8000109217031092180380912904803308F0EF
:101F900028C191E0980F909329048093E90490E080
:101FA000FC01EE0FFF1FE80FF91FE756FC4F88EB0F
:101FB0009BE09283818380912904803308F015C1CE
:101FC00091E0980F909329048093E60490E0FC013F
:101FD000EE0FFF1FE80FF91FE756FC4F88EB9BE061
:101FE000928381831092D7041092D6041092CD046C
:101FF0001092CC041092E2041092E3041092E404D4
:102000001092E50408EC10E01093D3040093D2047E
:1020100082E390E09093D9048093D80483E390E026
:102020009093DB048093DA0484E390E09093DD04E2
:102030008093DC0485E390E09093DF048093DE04DA
:1020400061E082E30E94930361E08091DA040E94E0
:10205000930361E08091DC040E94930361E080912E
:10206000DE040E9493031092E1041092E004C4E0A5
:10207000D0E0D093D504C093D4041092BD04109244
:10208000BC041092B3041092B2041092C8041092CF
:10209000C9041092CA041092CB041093B90400939F
:1020A000B80486E190E09093BF048093BE0487E17A
:1020B00090E09093C1048093C00488E190E09093F5
:1020C000C3048093C20489E190E09093C504809397
:1020D000C40461E086E10E94930361E08091C00442
:1020E0000E94930361E08091C2040E94930361E027
:1020F0008091C4040E9493031092C7041092C604F6
:10210000D093BB04C093BA04CFE2D0E0D093AB0429
:10211000C093AA0480E390E09093AD048093AC0454
:1021200081E390E09093AF048093AE0481E090E06F
:102130009093B1048093B00461E08FE20E94930316
:1021400061E08091AC040E94930361E08091AE0451
:102150000E94930361E08091AE040E946503D093D6
:10216000AB04C093AA04EAE6F4E0119284E0EA3AF0
:10217000F807D9F7D0E0C0E08091B0049091B104A5
:10218000C817D907B4F540E06FE0CE010E94860879
:102190008091B0049091B104C817D9072CF447E09E
:1021A0006BE0CE010E94860840E069E0CE010E940B
:1021B00086088091B0049091B104C817D9071CF427
:1021C000CE010E94E4088091B0049091B104C81738
:1021D000D9072CF440E06CE0CE010E9486082196DD
:1021E000CBCF8FEF8093E904E6CE8FEF8093E604A8
:1021F000F9CE62E272E08AE294E00E94E50962E2CE
:1022000072E080E394E00E94E50962E272E086E316
:1022100094E00E94E50962E272E08CE394E00E949F
:10222000E50962E272E082E494E00E94E50962E27C
:1022300072E088E494E00E94E50962E272E08EE4D4
:1022400094E00E94E50962E272E084E594E0DF91A7
:10225000CF911F910F910C94E509789484B5826019
:1022600084BD84B5816084BD85B5826085BD85B53A
:10227000816085BD80916E00816080936E001092B8
:102280008100809181008260809381008091810033
:1022900081608093810080918000816080938000C4
:1022A0008091B10084608093B1008091B000816022
:1022B0008093B00080919100826080939100809122
:1022C0009100816080939100809190008160809363
:1022D00090008091A10082608093A1008091A10074
:1022E00081608093A1008091A00081608093A00014
:1022F0008091210182608093210180912101816080
:102300008093210180912001816080932001809140
:102310007A00846080937A0080917A008260809352
:102320007A0080917A00816080937A0080917A00AF
:10233000806880937A001092C100E0910C03F091C4
:102340000D0382E08083E0910803F091090310827D
:10235000E0910A03F0910B038FEC80831092140339
:10236000E0911003F091110386E08083E0910E0369
:10237000F0910F03808180618083E0910E03F091E2
:102380000F03808188608083E0910E03F0910F033A
:10239000808180688083E0910E03F0910F0380813B
:1023A0008F7D80838EE592E00E94040988E892E0A8
:1023B0000E9404098FE992E00E94040980EB92E0F8
:1023C0000E94040980E292E00E94040960E087E034
:1023D0000E94930361E088E00E94930360E088E03C
:1023E0000E94650361E086E00E94930366E070E06E
:1023F00086EE94E00E94D0066AE570E086EE94E0F6
:102400000E94540660E08DE00E94930360E08CE03F
:102410000E94930360E08BE00E94930361E085E0FB
:102420000E94930361E084E00E94930361E083E0F3
:102430000E94930361E082E00E94930361E08AE0DE
:102440000E94930361E089E00E9493038091B004AD
:102450009091B1041816190634F441E06CE090E054
:1024600080E00E9486088091B0049091B104181613
:10247000190634F44FE06AE090E080E00E9486089C
:102480008091B0049091B1041816190624F490E0DC
:1024900080E00E94E40861E082E30E94930361E02F
:1024A00084E30E94930361E083E30E94930361E06D
:1024B00085E30E9493032091D2043091D304032E2C
:1024C000000C440B550BC12C87E8D82E83E9E82E6D
:1024D00083E0F82EC701B6010E94351394E6892ED9
:1024E000912CA12CB12CCA01B901A50194010E9423
:1024F00035132093CE043093CF044093D0045093EF
:10250000D1042091B8043091B904032E000C440B7F
:10251000550BC701B6010E943513CA01B901A501C7
:1025200094010E9435132093B4043093B504409372
:10253000B6045093B70461E083E20E94930361E024
:102540008FE10E94930303E210E00E945C0861E0C7
:1025500088E00E946503C8010197F1F760E088E018
:102560000E94650387E00E9421096B017C018BE3D7
:10257000C816D104E104F1044CF1D0E0C0E08DE3D1
:10258000C816D104E104F10424F10E945C0861E062
:1025900088E00E946503C8010197F1F760E088E0D8
:1025A0000E94650387E00E9421096115710581057C
:1025B000910549F421960E94870BC230D105F9F6A6
:1025C0000E94A402C2CF6B017C01F5CF0E94870B51
:1025D000F7CF80EC92E00E94040984E398E00E9427
:1025E00037080E945C080E94FE0960ED77E080E0F9
:1025F00090E00E94C00484E398E00E9412080E94C8
:102600005C080E94FE096CEA7DE080E090E00E9498
:10261000C00484E398E00E9412080E945C080E94B3
:10262000FE0960ED77E080E090E00E94C00484E362
:1026300098E00E9437080E945C0883E592E00E94BF
:10264000040980E292E00E940409BACFCF93DF939D
:10265000CAE5D4E02697CE010E94F60984E0CA328A
:10266000D807C1F7DF91CF910895052E97FB1EF48F
:1026700000940E944C1357FD07D00E94671307FC7B
:1026800003D04EF40C944C13509540953095219501
:102690003F4F4F4F5F4F089590958095709561958E
:1026A0007F4F8F4F9F4F08950E948913A59F900DD4
:1026B000B49F900DA49F800D911D11240895B7FF24
:1026C0000C9454130E945413821B930B0895A1E29F
:1026D0001A2EAA1BBB1BFD010DC0AA1FBB1FEE1F9C
:1026E000FF1FA217B307E407F50720F0A21BB30BE7
:1026F000E40BF50B661F771F881F991F1A9469F763
:1027000060957095809590959B01AC01BD01CF01BE
:102710000895A29FB001B39FC001A39F700D811DBA
:102720001124911DB29F700D811D1124911D0895DA
:10273000991B79E004C0991F961708F0961B881F13
:102740007A95C9F78095089597FB072E16F40094A3
:1027500007D077FD09D00E94C01307FC05D03EF4D6
:10276000909581959F4F0895709561957F4F08953D
:10277000EE0FFF1F881F8BBF0790F691E02D199475
:10278000AA1BBB1B51E107C0AA1FBB1FA617B70797
:1027900010F0A61BB70B881F991F5A95A9F78095B3
:1027A0009095BC01CD0108950F931F93CF93DF93B4
:1027B0008230910510F482E090E0E091EE04F09117
:1027C000EF0430E020E0B0E0A0E0309799F421156C
:1027D000310509F44AC0281B390B24303105D8F5DE
:1027E0008A819B816115710589F1FB019383828345
:1027F000FE0111C0408151810281138148175907A0
:10280000E0F04817590799F4109761F012960C936D
:10281000129713961C933296CF01DF91CF911F919F
:102820000F9108950093EE041093EF04F4CF211557
:10283000310551F04217530738F0A901DB019A0125
:10284000BD01DF01F801C1CFEF01F9CF9093EF0493
:102850008093EE04CDCFFE01E20FF31F819391939D
:102860002250310939832883D7CF2091EC0430914D
:10287000ED04232B41F42091090230910A02309398
:10288000ED042093EC0420910702309108022115F9
:10289000310541F42DB73EB740910B0250910C0227
:1028A000241B350BE091EC04F091ED04E217F307E3
:1028B000A0F42E1B3F0B2817390778F0AC014E5FB0
:1028C0005F4F2417350748F04E0F5F1F5093ED04FC
:1028D0004093EC04819391939FCFF0E0E0E09CCF94
:1028E000CF93DF930097E9F0FC01329713821282B5
:1028F000A091EE04B091EF04ED0130E020E01097DC
:10290000A1F420813181820F931F2091EC0430913A
:10291000ED042817390709F061C0F093ED04E09346
:10292000EC04DF91CF910895EA01CE17DF07E8F5B7
:102930004A815B819E0141155105B1F7E901FB8395
:10294000EA8349915991C40FD51FEC17FD0761F433
:10295000808191810296840F951FE9019983888374
:10296000828193819B838A83F0E0E0E012968D91CF
:102970009C9113970097B9F52D913C911197CD013A
:102980000296820F931F2091EC043091ED042817DA
:10299000390739F6309751F51092EF041092EE0492
:1029A000B093ED04A093EC04BCCFD383C2834081E9
:1029B0005181840F951FC817D90761F44E5F5F4F8F
:1029C00088819981480F591F518340838A819B8157
:1029D000938382832115310509F0B0CFF093EF0482
:1029E000E093EE049ECFFD01DC01C0CF1382128282
:1029F000D7CF4F925F926F927F928F929F92AF92BA
:102A0000BF92CF92DF92EF92FF920F931F93CF93DB
:102A1000DF938C01009799F4CB01DF91CF911F9147
:102A20000F91FF90EF90DF90CF90BF90AF909F906D
:102A30008F907F906F905F904F900C94D413FC0117
:102A4000E60FF71F9C0122503109E217F30708F443
:102A5000AEC0D901CD91DC911197C617D70720F1EF
:102A6000C530D10578F0CE0104978617970750F04E
:102A7000C61BD70B2297C193D1936D937C93CF0143
:102A80000E947014C801DF91CF911F910F91FF90A8
:102A9000EF90DF90CF90BF90AF909F908F907F90FE
:102AA0006F905F904F9008955B01AC1ABD0A4C0186
:102AB0008C0E9D1EA091EE04B091EF04512C412C80
:102AC000F12CE12C109731F58091EC049091ED04FC
:102AD0008815990509F05CC04616570608F058C0DD
:102AE0008091070290910802009741F48DB79EB73C
:102AF00040910B0250910C02841B950BE817F907CB
:102B000008F055C0F093ED04E093EC04F9017183F3
:102B10006083B8CF8D919C91119712966C9012970B
:102B200013967C901397A815B90559F56C0142E0EE
:102B3000C40ED11CCA14DB0420F1AC014A195B0994
:102B4000DA011296159780F0628273825183408376
:102B5000D9016D937C93E114F10471F0D7011396C0
:102B6000FC93EE9312978ECF22968C0F9D1FF90146
:102B700091838083F301EFCFF093EF04E093EE04B1
:102B800081CF4816590608F42C017D01D3019ACF54
:102B9000CB010E94D4137C01009749F0AE01B8012B
:102BA0000E94DA15C8010E94701487016BCF10E0F3
:102BB00000E068CFFB01DC0102C001900D924150A2
:102BC0005040D8F70895FB01DC0101900D920020E0
:102BD000E1F7089511E0CDE6D1E000E006C0802FD6
:102BE000FE010E94B8132196011DCE36D10780E068
:082BF0000807A9F7F894FFCFD4
:102BF800020001060001010000F00480000000004E
:102C0800003702A101CE018402FF01DD01F1010DAF
:102C18000A003030303030303030000A4F20422047
:102C28004A20452054204F0A0041202042204120BC
:102C38005220522045205221002D202D202D202DBC
:102C4800202D004C204920532054204F21003E3E87
:102C580020554E4956455253494441442044452045
:102C680053414E204341524C4F5320444520475531
:102C78004154454D414C41003E3E2049204E20479D
:102C88002045204E20492045205220492041003E21
:102C98003E2041205220512055204920202031003B
:102CA8003E3E2047205220552050204F2020330000
:102CB80045205320512055204920562041204E20A0
:102CC80044204F2020204F2042204A2045205420D5
:022CD8004F00AB
:00000001FF
