:100000000C946E010C949F010C949F010C949F0121
:100010000C949F010C949F010C949F010C949F01E0
:100020000C949F010C949F010C949F010C949F01D0
:100030000C949F010C949F010C949F010C949F01C0
:100040000C949F010C9441100C949F010C949F01FF
:100050000C949F010C949F010C949F010C946D0FC4
:100060000C949F010C94370F0C940D0F0C949F016E
:100070000C949F010C949F010C949F010C949F0180
:100080000C9413100C949F010C949F010C949F01ED
:100090000C949F010C949F010C949F010C949F0160
:1000A0000C949F010C949F010C94E50F0C949F01FC
:1000B0000C949F010C949F010C949F010C94B70F1A
:1000C0000C949F010C949F010C949F010C949F0130
:1000D0000C949F010C949F010C949F010C949F0120
:1000E0000C949F010C9475040C94F1050C940E0370
:1000F0000C9466040C9493040C940A030C9423034C
:100100000C9452040C9489050C945C040C94020227
:100110000C9449030C9440040C942D030C94CB05CF
:100120000C947F040C9429030C949D040C94CD052D
:100130000C9444030C941A040C9448040C94450346
:100140000C94B4100C9448020C9438040C94890458
:100150000C94B2010C94A1050C94D3050C940403E7
:100160000C9493050C942E040C9412030C94150417
:100170000C94EE010C94A7040C940D040C949502BD
:100180000C94B3050C9431030C9416030C94DF010A
:100190000C94DD050C9406160C9419030C941F03A3
:1001A0000C9437030C943F030C94EB050C9424043B
:1001B0000C9410020C943B03000021002400270043
:1001C0002A002D0030003300010100000401070166
:1001D0000A0100002200250028002B002E0031001B
:1001E000340002010000050108010B0100000A0BA8
:1001F00002090C0D0E0807030401000000000000B6
:1002000000000000000000000000000000000000EE
:1002100000000000000000001211100000000000AB
:1002200000000000000000000000000000000000CE
:100230000000000020002300260029002C002F00D1
:100240003200000100000301060109010505050552
:10025000070508080808020202020A0A080804043E
:10026000040401010101010101010303030303036C
:100270000303040707070C0C0C0C0C0C0C0C0202FB
:10028000020206060606060606060B0B0B0B0B0BF8
:100290000B0B010210202008081020401020408085
:1002A000020102010804020101020408102040803A
:1002B00080402010080402018004020180402010C8
:1002C0000804020108040201010204081020408011
:1002D0000102040810204080B410061611241FBE2D
:1002E000CFEFD1E2DEBFCDBF00E00CBF13E0A0E056
:1002F000B2E0ECECF1E300E00BBF02C007900D921E
:10030000AC30B107D9F725E0ACE0B3E001C01D92F5
:10031000AD34B207E1F711E0CDE6D1E000E006C070
:1003200021970109802FFE010E94A216CC36D10729
:1003300080E00807A9F70E9494120C94D4180C943A
:100340000000FC01248135816217730748F4808125
:100350009181009729F0860F971FFC0180810895F5
:1003600080E00895AF92BF92CF92DF92EF92FF921A
:100370000F931F93CF93DF936C017B018B01040FCD
:10038000151FEB015E01AE18BF08C017D10759F069
:100390006991D601ED91FC910190F081E02DC601AB
:1003A0001995892B79F7C501DF91CF911F910F9195
:1003B000FF90EF90DF90CF90BF90AF900895FC0139
:1003C000538D448D252F30E0842F90E0821B930BBA
:1003D000541710F0CF96089501970895FC01918D60
:1003E000828D981761F0A28DAE0FBF2FB11D5D9663
:1003F0008C91928D9F5F9F73928F90E008958FEF05
:100400009FEF0895FC01918D828D981731F0828DB8
:10041000E80FF11D858D90E008958FEF9FEF08950F
:10042000FC01918D228D892F90E0805C9F4F821B73
:1004300091098F739927089589E293E00E94100231
:1004400021E0892B09F420E0822F0895FC01A48D7E
:10045000A80FB92FB11DA35ABF4F2C91848D90E0E6
:1004600001968F739927848FA689B7892C93A089C9
:10047000B1898C91837080648C93938D848D981353
:1004800006C00288F389E02D80818F7D80830895E6
:10049000EF92FF920F931F93CF93DF93EC0181E0D4
:1004A000888F9B8D8C8D98131AC0E889F98980817B
:1004B00085FF15C09FB7F894EE89FF896083E889AE
:1004C000F98980818370806480839FBF81E090E0A0
:1004D000DF91CF911F910F91FF90EF900895F62E2D
:1004E0000B8D10E00F5F1F4F0F731127E02E8C8DC7
:1004F0008E110CC00FB607FCFACFE889F98980810C
:1005000085FFF5CFCE010E942602F1CFEB8DEC0FD7
:10051000FD2FF11DE35AFF4FF0829FB7F8940B8F28
:10052000EA89FB8980818062CFCFCF93DF93EC0192
:10053000888D8823B9F0AA89BB89E889F9898C91CB
:1005400085FD03C0808186FD0DC00FB607FCF7CF87
:100550008C9185FFF2CF808185FFEDCFCE010E9487
:100560002602E9CFDF91CF91089580E090E0892BBA
:1005700029F00E941C0281110E94000080E090E09E
:10058000892B49F080E090E0892B29F00E9400003F
:1005900081110E94000080E090E0892B49F080E00A
:1005A00090E0892B29F00E94000081110E94000038
:1005B00080E090E0892B49F080E090E0892B29F0E1
:1005C0000E94000081110C94000008958150823136
:1005D00008F05AC0E82FF0E08827EE50FD4F8F4F0B
:1005E0000C94A2161203160304030A030E03440319
:1005F00019031F03230329032D03310337033B038F
:1006000044033F0345034903809180008F77809323
:1006100080000895809180008F7DF9CF80918000C7
:10062000877FF5CF84B58F7784BD089584B58F7D9E
:10063000FBCF8091B0008F778093B00008958091B8
:10064000B0008F7DF9CF809190008F7780939000DC
:100650000895809190008F7DF9CF80919000877FE1
:10066000F5CF8091A0008F778093A00008958091AE
:10067000A0008F7DF9CF8091A000877FF5CF80917A
:1006800020018F77809320010895809120018F7D34
:10069000F9CF80912001877FF5CFCF93DF93282F6B
:1006A00030E0F901E451FE4F8491F901EE56FD4F1F
:1006B000D491F901E45BFD4FC491CC23A1F08111E9
:1006C0000E94E602EC2FF0E0EE0FFF1FEE5CFD4F04
:1006D000A591B491EC91ED2381E090E009F480E0E4
:1006E000DF91CF91089580E090E0FACF1F93CF93F0
:1006F000DF93282F30E0F901E451FE4F8491F90196
:10070000EE56FD4FD491F901E45BFD4FC491CC232B
:10071000A9F0162F81110E94E602EC2FF0E0EE0FF7
:10072000FF1FEE52FE4FA591B4918FB7F894EC9154
:10073000111108C0D095DE23DC938FBFDF91CF91DC
:100740001F910895DE2BF8CFCF93DF9390E0FC014B
:10075000EE56FD4F2491845B9D4FFC0184918823CC
:10076000D1F090E0880F991FFC01E854FE4FA5914D
:10077000B491FC01EE52FE4FC591D49161110EC0AF
:100780009FB7F8948C91E22FE0958E238C9328816B
:10079000E223E8839FBFDF91CF9108958FB7F8944C
:1007A000EC91E22BEC938FBFF6CF1F93CF93DF93A7
:1007B000182FEB0161E00E94A403209739F460E058
:1007C000812FDF91CF911F910C947603CF3FD105FC
:1007D00011F461E0F5CFE12FF0E0E451FE4FE49138
:1007E000E150E23108F0B3C0F0E08827E550FC4F5B
:1007F0008F4F0C94A2160D0415041A0424042E0421
:10080000A70438044004480452045C0466047504D8
:100810007F04A704890493049D0484B5806884BD83
:10082000C7BDDF91CF911F91089584B5806284BDCB
:10083000C8BDF7CF80918000806880938000D093FE
:100840008900C0938800EDCF809180008062809302
:100850008000D0938B00C0938A00E3CF809180000A
:10086000886080938000D0938D00C0938C00D9CF96
:100870008091B00080688093B000C093B300D1CF66
:100880008091B00080628093B000C093B400C9CF63
:1008900080919000806880939000D0939900C093DD
:1008A0009800BFCF80919000806280939000D09399
:1008B0009B00C0939A00B5CF809190008860809390
:1008C0009000D0939D00C0939C00ABCF8091A0007E
:1008D00080688093A0008091A0008F7B8093A0000F
:1008E000D093A900C093A8009CCF8091A000806203
:1008F0008093A000D093AB00C093AA0092CF8091C8
:10090000A00088608093A000D093AD00C093AC009D
:1009100088CF80912001806880932001D0932901A5
:10092000C09328017ECF80912001806280932001B6
:10093000D0932B01C0932A0174CF8091200188604D
:1009400080932001D0932D01C0932C016ACFC03831
:10095000D1050CF03ECF33CF3FB7F8948091170309
:1009600090911803A0911903B0911A0326B5A89B82
:1009700005C02F3F19F00196A11DB11D3FBFBA2F31
:10098000A92F982F8827BC01CD01620F711D811DF1
:10099000911D42E0660F771F881F991F4A95D1F776
:1009A00008958F929F92AF92BF92CF92DF92EF9273
:1009B000FF926B017C010E94AC044B015C01C114ED
:1009C000D104E104F104B9F00E94AC04681979097A
:1009D0008A099B09683E73408105910580F321E0F7
:1009E000C21AD108E108F10888EE880E83E0981E4B
:1009F000A11CB11CE4CFFF90EF90DF90CF90BF908F
:100A0000AF909F908F9008950F931F93CF93DF9394
:100A1000EC018B0188859985029751F4613071054D
:100A200009F43AC06CF560E00115110509F435C010
:100A300088859985049751F40130110509F455C052
:100A40000CF035C00115110509F43EC08885998563
:100A5000059709F0C8C00A30110508F0C4C0F801B4
:100A60008827EA5CFA4F8F4F0C94A21689059305EC
:100A7000A105B305CB05CD05D305DD05EB05F105D6
:100A80006230710591F060E00330110589F68C85C4
:100A90000E94760360E005C061E08C850E947603C9
:100AA00061E08E850E947603C3CF61E0F0CF023013
:100AB000110509F10330110509F0C8CF61E08C85FB
:100AC0000E94760360E01CC061E08C850E94760382
:100AD00060E08E850E94760361E088890E9476033B
:100AE00060E08A890E947603B1CF60E08C850E9425
:100AF000760361E0EECF60E08C850E94760361E0D2
:100B00008E850E94760360E088890E94760361E00A
:100B1000E8CF60E08C850E94760361E08E850E94BC
:100B2000760361E009C060E08C850E94760361E095
:100B30008E850E94760360E088890E94760360E0DB
:100B40000DC060E08C850E94760361E08E850E9476
:100B5000760360E088890E94760361E08A890E94BA
:100B6000760361E011C060E08C850E94760361E04D
:100B70008E850E94760360E088890E94760361E09A
:100B80008A890E94760360E08C89DF91CF911F9162
:100B90000F910C94760361E0E7CF61E08C850E94B1
:100BA000760360E0E5CF61E08C850E94760360E02B
:100BB0008E850E94760361E0DFCF61E08C850E9424
:100BC000760360E08E850E94760361E088890E944A
:100BD000760360E0D5CF61E08C850E94760360E00B
:100BE0009DCF60E0F9CFDF91CF911F910F910895D4
:100BF000CF92DF92EF92FF920F931F93CF93DF93E9
:100C0000EC016130710509F045C0798368830E9469
:100C1000AC040E891F89288D398D6B017C01C01AA7
:100C2000D10AE20AF30A0A811B812C813D81C01698
:100C3000D106E206F30658F36E8B7F8B888F998F6F
:100C40008A859B85288139812130310549F50196B6
:100C50009B878A872E813F818217930711F41B8619
:100C60001A868A859B85288539856AE070E025305B
:100C7000310511F064E070E00E948E16BC01CE01D7
:100C8000DF91CF911F910F91FF90EF90DF90CF9068
:100C90000C9404056F3F7F4F79F419821882B7CF07
:100CA000892B21F48E819F819B878A878A859B85EA
:100CB00001979B878A87D5CFDF91CF911F910F91A5
:100CC000FF90EF90DF90CF900895CF92DF92EF9258
:100CD000FF92CF93DF93EC01603282E07807CCF58E
:100CE000653B710514F064EB70E0898128E830E021
:100CF000281B310987FD3395220F331F220F331F25
:100D00006901330FEE08FF088A8128E532E0281BCD
:100D1000310987FD3395220F331F220F331F032E16
:100D2000000C440B550B2C193D094E095F09DB01E2
:100D300077FF02C0B0E0A0E00E94491624EB30E04B
:100D400040E050E00E941F16C20ED31EE41EF51EA6
:100D5000B601E881E03370F5298188E890E0821BD4
:100D6000910927FD9395880F991F880F991F681780
:100D700079077CF02A8188E592E0821B910927FDA2
:100D80009395880F991F880F991F681779070CF49E
:100D9000CB010297880F991F4FB7F8942E2F30E0A0
:100DA000F901EE0FFF1FE20FF31FEA53FC4F92838E
:100DB00081834FBFDF91CF91FF90EF90DF90CF9075
:100DC00008951F93CF93DF93EC01162F8881803312
:100DD00008F04EC061E0812F0E94A4038881282F73
:100DE00030E0F901EE0FFF1FE20FF31FEA53FC4F53
:100DF0001F736081607C612B608319821A822CE0F2
:100E0000622F0E948216829FB001112430E020E000
:100E1000AB01420F531FFA01EE0FFF1FE40FF51F46
:100E2000EA53FC4F908196FD16C02F5F3F4F2C3048
:100E3000310571F7813009F51092800082E08093CE
:100E400081001092850010928400B19A80916F0009
:100E5000826080936F00E8818E2F90E0FC01EE0F9E
:100E6000FF1FE80FF91FEA53FC4F808180648083E5
:100E70008881DF91CF911F910895823061F41092A3
:100E8000900080939100109295001092940088BB7E
:100E900080937100E0CF833069F41092A00082E06B
:100EA0008093A1001092A5001092A40089BB8093AA
:100EB0007200D1CF8111CFCF1092200182E08093B8
:100EC000210110922501109224018ABB80937300A6
:100ED000C2CFAF92BF92CF92DF92EF92FF920F9369
:100EE0001F93CF93DF936B017A01EC01C25FDC4F5C
:100EF00028813CE0389F8001399F100D1124A0907B
:100F00005604B12C27FF1FC0FB011182108288817B
:100F10008F5F888388819801280F311D87FD3A955E
:100F2000F6012A153B051CF488818C30C4F18081C0
:100F30009181049680349C4908F473C0F601808145
:100F40009181049670C088819801280F311D87FD1A
:100F50003A952A153B05DCF68881A801480F511DFA
:100F600087FD5A95FA01EE0FFF1FE40FF51FEA53B4
:100F7000FC4F808186FFCBCF8881F801E80FF11DFF
:100F800087FDFA95CF01EE0FFF1FE80FF91FEA5317
:100F9000FC4F808160E08F730E947603B8CF808120
:100FA00091812881A801420F511D27FD5A959A0170
:100FB000FA01EE0FFF1FE20FF31FEA53FC4F2181EE
:100FC0003281820F931FF70191838083888198017A
:100FD000280F311D87FD3A95F901EE0FFF1FE20F33
:100FE000F31FEA53FC4F808186FF22C08881080FDF
:100FF000111D87FD1A95F801EE0FFF1FE00FF11F7D
:10100000EA53FC4F808161E08F73DF91CF911F9194
:101010000F91FF90EF90DF90CF90BF90AF900C9426
:10102000760380E49CE9F701918380838FEF8883C6
:10103000DF91CF911F910F91FF90EF90DF90CF90B4
:10104000BF90AF900895CF93DF93EC0162E370E01F
:101050008AE00E94D50362E370E089E00E94D50334
:1010600060E085E00E94760361E084E00E94760300
:1010700061E083E00E94760360E082E00E947603F4
:10108000BE01DD0F880B990BDF91CF910C94D10439
:10109000CF93DF93EC0162E370E08AE00E94D50316
:1010A00062E370E089E00E94D50361E085E00E9480
:1010B000760360E084E00E94760360E083E00E94B3
:1010C000760361E082E00E947603BE01DD0F880BAB
:1010D000990BDF91CF910C94D10460E085E00E94E0
:1010E000760360E084E00E94760360E083E00E9483
:1010F000760360E082E00C94760364E670E08AE0B8
:101100000E94D50364E670E089E00E94D50360E0A8
:1011100085E00E94760361E084E00E94760360E04F
:1011200083E00E94760361E082E00C947603CF9224
:10113000DF92EF92FF920F931F93CF93DF931F9253
:101140001F92CDB7DEB769834A83880F991F00913C
:101150000D0510910E05000F111FE7EBF4E09F0144
:10116000275B34402017310714F41192F8CF2981FE
:10117000FC01E954FB4F21838A81808360E08091E8
:101180000B050E9476031016110604F50150110993
:10119000F801E954FB4FE080D0900905C0900705A5
:1011A00088E0F82E6E2D661F6627661F8C2D0E9424
:1011B0007603EE0C61E08D2D0E94760360E08D2DAC
:1011C0000E947603FA94F110EDCFDDCF61E08091BB
:1011D0000B050F900F90DF91CF911F910F91FF9012
:1011E000EF90DF90CF900C947603EF92FF920F93E5
:1011F0001F93CF937C018C0183E0000F111F8A9510
:10120000E1F709531B4FC1E0F80111928F0140E053
:101210006C2FC7010E949708CF5FC930A9F7CF9103
:101220001F910F91FF90EF90089520910D0530913F
:101230000E0512161306FCF488309105E1F06830B3
:101240007105C9F020E830E002C0359527956A9510
:10125000E2F7FC01E954FB4F5089442349F0252B68
:10126000208B61E0680F408990E080E00C94970843
:1012700020952523F5CF0895CF93DF93FC010190AE
:101280000020E9F73197AF01481B590BBC0189E2F7
:1012900093E00E94B201EC0142E050E060E272E0B3
:1012A00089E293E00E94B2018C0F9D1FDF91CF91E4
:1012B00008950F931F9390E0FC01EE56FD4F64914B
:1012C000FC01E45BFD4FE491F0E0EE0FFF1FEE5CEC
:1012D000FD4F8591949100E412E42FE030E0462F19
:1012E0000E946F10611571058105910529F06F5FEE
:1012F0007F4F8F4F9F4F9F701F910F9108950F93B6
:101300001F93CF93DF93EC0188819981009759F067
:101310002A813B812617370730F081E0DF91CF919A
:101320001F910F9108958B016F5F7F4F0E94E3170C
:10133000009759F0998388831B830A832C813D8110
:10134000232B59F7FC011082E8CF80E0E7CFEF9222
:10135000FF920F931F93CF93DF936115710541F4B3
:1013600080E0DF91CF911F910F91FF90EF90089552
:1013700041155105B1F07B01EC010C811D81040F79
:10138000151FB8010E947F09882351F328813981F4
:101390008C819D81B701820F931F0E94CD181D8300
:1013A0000C8381E0DECFCF93DF931F921F92CDB7E6
:1013B000DEB769831A8241E050E0BE016F5F7F4F64
:1013C0000E94A7090F900F90DF91CF910895CF93BE
:1013D000DF93EC0188819981009711F00E945A17E0
:1013E000198218821D821C821B821A82DF91CF9182
:1013F0000895CF93DF93EC01FB0101900020E9F702
:101400003197AF01461B570B0E94A709811103C0FA
:10141000CE010E94E709CE01DF91CF910895CF93CD
:10142000DF93EC01FB0144815581608171810E9451
:10143000A709811103C0CE010E94E709CE01DF9107
:10144000CF910895EF92FF920F931F93CF93DF9365
:10145000EC017B018A01BA010E947F0981110BC056
:10146000CE010E94E709CE01DF91CF911F910F912C
:10147000FF90EF9008951D830C83B70188819981B7
:101480000E94CD18F0CFCF93DF93EC01FB018617BC
:10149000970749F0608171816115710541F04481C0
:1014A00055810E94220ACE01DF91CF9108950E94BA
:1014B000E709F9CFFC011182108213821282158292
:1014C0001482FB0101900020E9F73197AF01461B20
:1014D000570B0C94220AFC0180819181009711F036
:1014E0000C945A1708959F92AF92BF92CF92DF92B9
:1014F000EF92FF920F931F93CF93DF93CDB7DEB799
:10150000A4970FB6F894DEBF0FBECDBF5C018B0170
:10151000942E089718F468307105C8F183E090E0C4
:101520009093010280930002909303028093020241
:1015300010E000E048E050E063E272E0C801895743
:101540009B4F0E94220A48E050E063E272E0C8012B
:10155000895A9B4F0E94220A0A5F1F4F00331105D0
:1015600049F780910D0590910E051816190624F47F
:1015700090E080E00E94F50864E670E080E090E092
:101580000E94D10403E010E033E0A32EB12C80913F
:1015900002029091030226E0F22EF89EB001F99E1D
:1015A000700D112469577B4F18861F821A86198681
:1015B0001C861B86CE0107960E94430A62E272E0F7
:1015C000CE010D960E945A0A62E272E0CE01439665
:1015D0000E945A0A62E272E0CE0149960E945A0ABB
:1015E00062E272E0CE014F960E945A0AF09EC0015C
:1015F000F19E900D11249C0129573B4F69018C01EC
:10160000095A1B4FF12CE12CAE14BF04B1F0B70105
:10161000C6010E94A101682FCE010D960E94D30938
:10162000B701C8010E94A101682FCE0149960E940E
:10163000D3093FEFE31AF30AE7CFE0900002F090FE
:1016400001028FEFE81AF80A28E0E216F1049CF490
:10165000B701C6010E94A101682FCE0143960E94E6
:10166000D309B701C8010E94A101682FCE014F968E
:101670000E94D309E6CF1A8219821C821B821E8225
:101680001D82BE01635F7F4FCE0101960E94430A17
:101690006AEB72E0CE0101960E94F909BE016D5E0F
:1016A0007F4F0E940F0ABC01C6010E94430ACE016F
:1016B00001960E946B0A1A8219821C821B821E826A
:1016C0001D82BE01675E7F4FCE01019691103BC027
:1016D0000E94430A6AEB72E0CE0101960E94F9096A
:1016E000BE01615E7F4F0E940F0ABC01C8010E94CB
:1016F000430ACE0101960E946B0ACE014F960E94CA
:101700006B0ACE0149960E946B0ACE0143960E9455
:101710006B0ACE010D960E946B0ACE0107960E94BD
:101720006B0AA4960FB6F894DEBF0FBECDBFDF9153
:10173000CF911F910F91FF90EF90DF90CF90BF90CE
:10174000AF909F9008950E94430A6AE272E0C4CF6E
:1017500064E670E08AE00E94D50364E670E089E008
:101760000E94D50361E085E00E94760360E084E09A
:101770000E94760361E083E00E94760360E082E0ED
:101780000E94760380910C0390910D030196909333
:101790000D0380930C03049701F5809106028823C2
:1017A000F9F0809102029091030220910502222318
:1017B000A9F00197909303028093020260910202C4
:1017C0007091030240E080910002909101020E941A
:1017D000730A10920D0310920C0308950196EACF3C
:1017E000809100029091010220910402222331F0A5
:1017F00001979093010280930002E0CF0196F9CF08
:10180000EF92FF920F931F93CF93DF938DE00E948F
:101810004D0390932803809327038CE00E944D038F
:1018200090932603809325038BE00E944D039093B1
:1018300024038093230380917B00877F80937B0028
:1018400080E480937C0080917A00806480937A00A9
:1018500080917A0086FDFCCF90917800809179008C
:101860008927982789278497079708F096C08CE2E4
:1018700092E00E943C0961E08FE10E9476030E94A1
:101880006D088AE392E00E943C098BE492E00E949A
:101890003C0963E270E086E495E00E94E10681E0A5
:1018A00090E090931C0380931B03C0911B03D09185
:1018B0001C03C23D83E0D8078CF4BE0186E495E0AA
:1018C0000E9465066FE070E080E090E00E94D10425
:1018D0002196D0931C03C0931B03E7CF809106028F
:1018E000882309F44AC0809102029091030220915A
:1018F0000502222309F43FC00197909303028093CD
:101900000202609102027091030241E080910002A4
:10191000909101020E94730A85E592E00E943C09C1
:1019200081E292E00E943C09809127039091280374
:1019300081309105B9F5209125033091260321309E
:10194000310509F051C08091230390912403813027
:10195000910509F0B6C081E08093220361E070E058
:1019600089E295E00E94F80561E070E08FE095E083
:101970000E94F80552C00196C0CF8091000290915C
:10198000010220910402222331F001979093010279
:1019900080930002B6CF0196F9CF60E08FE10E94FC
:1019A0007603C2CF892BD9F5809125039091260328
:1019B0008130910509F098C0809123039091240310
:1019C000009749F2019759F581E080932203109224
:1019D000210361E070E089E295E00E94F80589E169
:1019E00090E00E944808BACF232BC9F4209123032A
:1019F000309124032130310509F4ADCF232B79F444
:101A000021E02093210320932203909320038093CD
:101A10001F0384E190E00E9423080E94A80B97E82E
:101A2000E92E94E0F92E10E000E0D0E0C0E0BE0125
:101A3000C7010E94A10141E0813309F040E0BE01ED
:101A4000C8010E9415092196C830D10581F70F5FA2
:101A50001F4F86E0E80EF11C0830110531F76BE4EA
:101A600070E080E090E00E94D10487E5E82E84E0F9
:101A7000F82E10E000E0D0E0C0E0BE01C7010E94F7
:101A8000A10141E0813309F040E0BE01C8010E949C
:101A900015092196C830D10581F70F5F1F4F86E0E9
:101AA000E80EF11C0830110531F76BE470E080E0BE
:101AB00090E0DF91CF911F910F91FF90EF900C94E8
:101AC000D104892B09F0ABCF81E0809322031092DF
:101AD000210361E070E08FE095E00E94F80589E164
:101AE00090E00E9423083ACF892B09F098CF80918B
:101AF0002303909124038130910571F481E0809358
:101B00002103809322031092200310921F0384E18B
:101B100090E00E94480881CF892B09F080CF809106
:101B20002103882309F447C0109221030E946D0805
:101B300080911F0390912003019709F061C08DE00F
:101B40000E944D03892B19F40E947D08F8CF0E9452
:101B50007D086CE271E080E090E00E94D10480EAB0
:101B600090E00E9423080E94A80B60E971E080E0E9
:101B700090E00E94D1048DE00E944D038C0190936F
:101B80002803809327038CE00E944D03EC0190937F
:101B90002603809325038BE00E944D03909324033A
:101BA000809323030130110521F0219711F0019753
:101BB00011F41092220380912203882309F42FCF7D
:101BC000109222036FEF7FEF89E295E00E94F80503
:101BD0006FEF7FEF8FE095E00E94F8058DE00E94A7
:101BE0004D03892B11F58CE00E944D03892BE9F4FC
:101BF0008BE00E944D03892BC1F40E947D08EECF3B
:101C00008BE00E944D03892B19F40E947D08F8CFC8
:101C10000E947D086CE271E080E090E00E94D104B7
:101C200080EA90E00E9448089ECF0E947D0866E905
:101C300070E080E090E00E94D1040E946D086CE4A6
:101C400074E080E090E00E94D10480911D039091A7
:101C50001E03892B09F09EC061E070E089E295E0E7
:101C60000E94F80584E398E00E9448080E946D08ED
:101C700065EF70E080E090E00E94D10461E070E0E8
:101C800089E295E00E94F80561E070E08FE095E060
:101C90000E94F8050E94A80B64EF71E080E090E0DC
:101CA0000E94D1048CE00E944D03EC019093260326
:101CB000809325030E946D0868EE73E080E090E059
:101CC0000E94D104219719F591E090930702109298
:101CD0001E0310921D039093220380910602882315
:101CE00071F020910502222319F01092040202C023
:101CF0009093040291E089278093060290CE209170
:101D00000402222309F483C090930502F3CF1092BA
:101D100007026FEF7FEF89E295E00E94F8056FEF11
:101D20007FEF8FE095E00E94F8058DE00E944D0363
:101D3000892B19F10E947D0866E970E080E090E04F
:101D40000E94D10481E090E090931E0380931D03D4
:101D50006FEF7FEF89E295E00E94F8056FEF7FEF6C
:101D60008FE095E00E94F8050E947D0863E270E034
:101D700080E090E00E94D10452CE8CE00E944D039E
:101D8000892BC1F68BE00E944D03892B99F60E94A6
:101D90007D08CBCFC1E0C093070284E090E10E94B0
:101DA00023080E946D0861E070E08FE095E00E94DA
:101DB000F80564E670E080E090E00E94D10461E004
:101DC00070E08FE095E00E94F80564E670E080E046
:101DD00090E00E94D1040E946D0865EF70E080E001
:101DE00090E00E94D10410921E0310921D03809176
:101DF0000602882341F090910502992309F475CFDA
:101E0000C093040277CF90910402992319F01092A5
:101E1000050270CFC09305026DCF1F920F920FB6CF
:101E20000F9211240BB60F922F933F934F935F9312
:101E30006F937F938F939F93AF93BF93EF93FF9392
:101E400089E293E00E942602FF91EF91BF91AF914A
:101E50009F918F917F916F915F914F913F912F91C2
:101E60000F900BBE0F900FBE0F901F9018951F92F2
:101E70000F920FB60F9211240BB60F922F938F93E0
:101E80009F93EF93FF93E0913903F0913A038081A0
:101E9000E0913F03F091400382FD1DC0908180914D
:101EA00042038F5F8F7320914303821741F0E091CB
:101EB0004203F0E0E75DFC4F958F80934203FF9172
:101EC000EF919F918F912F910F900BBE0F900FBEAE
:101ED0000F901F9018958081F2CF1F920F920FB62E
:101EE0000F9211242F933F938F939F93AF93BF93A0
:101EF0008091130390911403A0911503B0911603E0
:101F00003091120323E0230F2D3758F50196A11DC0
:101F1000B11D209312038093130390931403A09395
:101F20001503B09316038091170390911803A091A5
:101F30001903B0911A030196A11DB11D80931703D7
:101F400090931803A0931903B0931A03BF91AF9114
:101F50009F918F913F912F910F900FBE0F901F90E7
:101F6000189526E8230F0296A11DB11DD2CF1F920E
:101F70000F920FB60F9211240BB60F922F933F932F
:101F80004F935F936F937F938F939F93AF93BF9381
:101F9000EF93FF9348E251E064E271E090E080E06B
:101FA0000E946907FF91EF91BF91AF919F918F912F
:101FB0007F916F915F914F913F912F910F900BBE49
:101FC0000F900FBE0F901F9018951F920F920FB693
:101FD0000F9211240BB60F922F933F934F935F9361
:101FE0006F937F938F939F93AF93BF93EF93FF93E1
:101FF00048EA50E064EA70E083E090E00E946907FC
:10200000FF91EF91BF91AF919F918F917F916F91D0
:102010005F914F913F912F910F900BBE0F900FBE8C
:102020000F901F9018951F920F920FB60F921124C8
:102030000BB60F922F933F934F935F936F937F93C2
:102040008F939F93AF93BF93EF93FF9348E950E033
:1020500064E970E082E090E00E946907FF91EF91EF
:10206000BF91AF919F918F917F916F915F914F91B0
:102070003F912F910F900BBE0F900FBE0F901F90AE
:1020800018951F920F920FB60F9211240BB60F9254
:102090002F933F934F935F936F937F938F939F9370
:1020A000AF93BF93EF93FF9348E850E064E870E08C
:1020B00081E090E00E946907FF91EF91BF91AF919D
:1020C0009F918F917F916F915F914F913F912F9150
:1020D0000F900BBE0F900FBE0F901F901895CF92D0
:1020E000DF92EF92FF920F931F93E82FF92F05C015
:1020F000015011092109310961F19081962394174A
:10210000B9F305C0015011092109310911F190817C
:1021100096239413F7CFC12CD12CE12CF12C0AC0BB
:102120008FEFC81AD80AE80AF80A0C151D052E0503
:102130003F0579F080818623841791F36C2D7D2DE6
:102140008E2D9F2D1F910F91FF90EF90DF90CF90DC
:10215000089560E070E080E090E01F910F91FF90A3
:10216000EF90DF90CF9008950F931F93CF93DF935D
:1021700010922C0310922B0388EE93E0A0E0B0E0C5
:1021800080932D0390932E03A0932F03B0933003DD
:1021900082E192E090932A038093290385EC90E0FA
:1021A000909336038093350384EC90E0909338034A
:1021B0008093370380EC90E090933A038093390347
:1021C00081EC90E090933C0380933B0382EC90E0A1
:1021D00090933E0380933D0386EC90E09093400300
:1021E00080933F03109242031092430310924403E2
:1021F0001092450380915604803308F029C191E084
:10220000980F909356048093460590E0FC01EE0FE2
:10221000FF1FE80FF91FEA53FC4F88EB9BE0928306
:10222000818380915604803308F016C191E0980FA5
:10223000909356048093430590E0FC01EE0FFF1F3E
:10224000E80FF91FEA53FC4F88EB9BE092838183F0
:10225000109234051092330510922A051092290528
:1022600010923F05109240051092410510924205D0
:1022700008EC10E01093300500932F0582E390E006
:10228000909336058093350583E390E0909338056D
:102290008093370584E390E090933A058093390565
:1022A00085E390E090933C0580933B0561E082E3F9
:1022B0000E94A40361E0809137050E94A40361E0BD
:1022C000809139050E94A40361E080913B050E9442
:1022D000A40310923E0510923D05C4E0D0E0D093D7
:1022E0003205C093310510921A051092190510920B
:1022F000100510920F0510922505109226051092D8
:10230000270510922805109316050093150586E100
:1023100090E090931C0580931B0587E190E09093DB
:102320001E0580931D0588E190E090932005809321
:102330001F0589E190E0909322058093210561E0DB
:1023400086E10E94A40361E080911D050E94A40320
:1023500061E080911F050E94A40361E08091210546
:102360000E94A4031092240510922305D09318050F
:10237000C0931705CFE2D0E0D0930805C0930705BE
:1023800080E390E090930A058093090581E390E053
:1023900090930C0580930B0581E090E090930E05DF
:1023A00080930D0561E08FE20E94A40361E08091BB
:1023B00009050E94A40361E080910B050E94A4031B
:1023C00061E080910B050E947603D0930805C093CD
:1023D0000705E7ECF4E087E095E011928E179F0780
:1023E000E1F7D0E0C0E080910D0590910E05C8178F
:1023F000D907B4F540E06FE0CE010E9497088091C4
:102400000D0590910E05C817D9072CF447E06BE035
:10241000CE010E94970840E069E0CE010E94970833
:1024200080910D0590910E05C817D9071CF4CE01B7
:102430000E94F50880910D0590910E05C817D907E7
:102440002CF440E06CE0CE010E9497082196CBCF9F
:102450008FEF80934605E5CE8FEF80934305F8CE4E
:1024600063E272E087E894E00E945A0A63E272E055
:102470008DE894E00E945A0A63E272E083E994E0F6
:102480000E945A0A63E272E089E994E00E945A0AC3
:1024900063E272E08FE994E00E945A0A63E272E01C
:1024A00085EA94E00E945A0A63E272E08BEA94E0C3
:1024B0000E945A0A63E272E081EB94E00E945A0A99
:1024C00063E272E087E594E00E945A0A63E272E0F8
:1024D0008DE594E00E945A0A63E272E083E694E09C
:1024E0000E945A0A63E272E089E694E00E945A0A66
:1024F00063E272E08FE694E00E945A0A63E272E0BF
:1025000085E794E00E945A0A63E272E08BE794E068
:102510000E945A0A63E272E081E894E0DF91CF9171
:102520001F910F910C945A0A789484B5826084BDEF
:1025300084B5816084BD85B5826085BD85B58160C7
:1025400085BD80916E00816080936E001092810045
:102550008091810082608093810080918100816000
:1025600080938100809180008160809380008091C1
:10257000B10084608093B1008091B000816080934D
:10258000B0008091910082608093910080919100D1
:102590008160809391008091900081608093900091
:1025A0008091A10082608093A1008091A100816050
:1025B0008093A1008091A00081608093A000809111
:1025C00021018260809321018091210181608093AB
:1025D00021018091200181608093200180917A0007
:1025E000846080937A0080917A00826080937A0080
:1025F00080917A00816080937A0080917A0080686F
:1026000080937A001092C100E0913903F0913A036F
:1026100082E08083E0913503F09136031082E091EF
:102620003703F09138038FEC808310924103E091DF
:102630003D03F0913E0386E08083E0913B03F091FF
:102640003C03808180618083E0913B03F0913C03F7
:10265000808188608083E0913B03F0913C0380811E
:1026600080688083E0913B03F0913C0380818F7D03
:1026700080838AE692E00E943C0984E992E00E940D
:102680003C098BEA92E00E943C098CEB92E00E94AC
:102690003C0981E292E00E943C0960E087E00E94F0
:1026A000A40361E088E00E94A40360E088E00E9447
:1026B000760361E086E00E94A40366E070E083E4B4
:1026C00095E00E94E1066AE570E083E495E00E94EF
:1026D000650660E08DE00E94A40360E08CE00E944B
:1026E000A40360E08BE00E94A40361E085E00E9407
:1026F000A40361E084E00E94A40361E083E00E94FF
:10270000A40361E082E00E94A40361E08AE00E94E9
:10271000A40361E089E00E94A40380910D059091DB
:102720000E051816190634F441E06CE090E080E0E4
:102730000E94970880910D0590910E0518161906B4
:1027400034F44FE06AE090E080E00E9497088091C6
:102750000D0590910E051816190624F490E080E0FE
:102760000E94F50861E082E30E94A40361E084E333
:102770000E94A40361E083E30E94A40361E085E377
:102780000E94A40320912F0530913005032E000CE8
:10279000440B550B412C87E8582E83E9682E83E0C3
:1027A000782EC301B2010E941F1694E6892E912C47
:1027B000A12CB12CCA01B901A50194010E941F16D8
:1027C00020932B0530932C0540932D0550932E0517
:1027D0002091150530911605032E000C440B550B66
:1027E000C301B2010E941F16CA01B901A5019401DB
:1027F0000E941F1620931105309312054093130574
:102800005093140561E083E20E94A40361E08FE12C
:102810000E94A4032FE0A22EB12C03E210E08091CD
:102820000702882309F484C061E088E00E947603EF
:10283000C5010197F1F760E088E00E94760387E028
:102840000E9459096B017C018BE3C816D104E10495
:10285000F1040CF46DC0D0E0C0E089ECC816D104DE
:10286000E104F1040CF471C00E946D0861E088E09D
:102870000E947603C8010197F1F760E088E00E94AA
:10288000760387E00E94590961157105810591055C
:1028900049F421960E94000CC230D105F1F60E9445
:1028A000B502BDCF6B017C01F5CF0E94A80B66E994
:1028B00070E080E090E00E94D10484E398E00E9400
:1028C00048080E946D0861E070E089E295E00E948E
:1028D000F80564E670E080E090E00E94D10461E0D9
:1028E00070E089E295E00E94F80564E670E080E01F
:1028F00090E00E94D1040E946D088CEC92E00E944E
:102900003C0981E292E00E943C09C9CF61E088E085
:102910000E947603C8010197F1F760E088E00E9409
:10292000760387E00E9459096B017C010E94000C2C
:10293000C114D104E104F10409F0B1CF8091070280
:102940008111E4CF0E94000CF9CF83EE92E00E9447
:102950003C0984E398E00E9448080E946D0861E009
:1029600070E089E295E00E94F80564E670E080E09E
:1029700090E00E94D10461E070E089E295E00E945D
:10298000F80564E670E080E090E00E94D1040E94C7
:102990006D0861E070E089E295E00E94F80561E071
:1029A00070E08FE095E00E94F80564E670E080E05A
:1029B00090E00E94D10461E070E089E295E00E941D
:1029C000F80561E070E08FE095E00E94F80564E6AC
:1029D00070E080E090E00E94D10461E070E089E264
:1029E00095E00E94F80561E070E08FE095E00E94BC
:1029F000F80564E670E080E090E00E94D10461E0B8
:102A000070E089E295E00E94F80561E070E08FE0F7
:102A100095E00E94F80564E670E080E090E00E9496
:102A2000D1040E94A80B60ED77E080E090E00E9466
:102A3000D10484E398E00E9423080E946D0861E0BD
:102A400070E08FE095E00E94F80564E670E080E0B9
:102A500090E00E94D10461E070E08FE095E00E9478
:102A6000F80564E670E080E090E00E94D1040E94E6
:102A70006D0861E070E089E295E00E94F80561E090
:102A800070E08FE095E00E94F80564E670E080E079
:102A900090E00E94D10461E070E089E295E00E943C
:102AA000F80561E070E08FE095E00E94F80564E6CB
:102AB00070E080E090E00E94D10461E070E089E283
:102AC00095E00E94F80561E070E08FE095E00E94DB
:102AD000F80564E670E080E090E00E94D10461E0D7
:102AE00070E089E295E00E94F80561E070E08FE017
:102AF00095E00E94F80564E670E080E090E00E94B6
:102B0000D1040E94A80B68ED7EE080E090E00E9476
:102B1000D10484E398E00E9423080E946D0861E0DC
:102B200070E08FE095E00E94F80564E670E080E0D8
:102B300090E00E94D10461E070E08FE095E00E9497
:102B4000F80564E670E080E090E00E94D1040E9405
:102B50006D0861E070E089E295E00E94F80561E0AF
:102B600070E08FE095E00E94F80564E670E080E098
:102B700090E00E94D10461E070E089E295E00E945B
:102B8000F80561E070E08FE095E00E94F80564E6EA
:102B900070E080E090E00E94D10461E070E089E2A2
:102BA00095E00E94F80561E070E08FE095E00E94FA
:102BB000F80564E670E080E090E00E94D10461E0F6
:102BC00070E089E295E00E94F80561E070E08FE036
:102BD00095E00E94F80564E670E080E090E00E94D5
:102BE000D1048DE00E944D03892B09F05ECE8CE06C
:102BF0000E944D03892B09F058CE8BE00E944D03B3
:102C0000892B09F052CE0E94A80BEBCFCF93DF9314
:102C1000C7E8D4E02697CE010E946B0A84E0C7354E
:102C2000D807C1F7C7EBD4E02697CE010E946B0A04
:102C300084E0C738D807C1F7DF91CF910895052EFA
:102C400097FB1EF400940E94361657FD07D00E9491
:102C5000511607FC03D04EF40C943616509540954F
:102C6000309521953F4F4F4F5F4F08959095809538
:102C7000709561957F4F8F4F9F4F08950E947316F7
:102C8000A59F900DB49F900DA49F800D911D1124C0
:102C90000895B7FF0C943E160E943E16821B930BBC
:102CA0000895A1E21A2EAA1BBB1BFD010DC0AA1F8D
:102CB000BB1FEE1FFF1FA217B307E407F50720F0A5
:102CC000A21BB30BE40BF50B661F771F881F991F20
:102CD0001A9469F760957095809590959B01AC0169
:102CE000BD01CF010895A29FB001B39FC001A39F72
:102CF000700D811D1124911DB29F700D811D112435
:102D0000911D0895991B79E004C0991F961708F04A
:102D1000961B881F7A95C9F78095089597FB072E13
:102D200016F4009407D077FD09D00E94AA1607FC7C
:102D300005D03EF4909581959F4F089570956195CB
:102D40007F4F0895EE0FFF1F881F8BBF0790F691EE
:102D5000E02D1994AA1BBB1B51E107C0AA1FBB1F82
:102D6000A617B70710F0A61BB70B881F991F5A9517
:102D7000A9F780959095BC01CD0108950F931F93FD
:102D8000CF93DF938230910510F482E090E0E091E0
:102D90004B05F0914C0530E020E0B0E0A0E030972A
:102DA00099F42115310509F44AC0281B390B243048
:102DB0003105D8F58A819B816115710589F1FB0187
:102DC00093838283FE0111C040815181028113816E
:102DD00048175907E0F04817590799F4109761F020
:102DE00012960C93129713961C933296CF01DF9193
:102DF000CF911F910F91089500934B0510934C05AF
:102E0000F4CF2115310551F04217530738F0A901CD
:102E1000DB019A01BD01DF01F801C1CFEF01F9CF5C
:102E200090934C0580934B05CDCFFE01E20FF31F2D
:102E3000819391932250310939832883D7CF2091F0
:102E4000490530914A05232B41F420910A02309123
:102E50000B0230934A0520934905209108023091D6
:102E600009022115310541F42DB73EB740910C02FE
:102E700050910D02241B350BE0914905F0914A0554
:102E8000E217F307A0F42E1B3F0B2817390778F041
:102E9000AC014E5F5F4F2417350748F04E0F5F1FA0
:102EA00050934A0540934905819391939FCFF0E059
:102EB000E0E09CCFCF93DF930097E9F0FC013297DD
:102EC00013821282A0914B05B0914C05ED0130E0C8
:102ED00020E01097A1F420813181820F931F20916F
:102EE000490530914A052817390709F061C0F09368
:102EF0004A05E0934905DF91CF910895EA01CE1785
:102F0000DF07E8F54A815B819E0141155105B1F764
:102F1000E901FB83EA8349915991C40FD51FEC174E
:102F2000FD0761F4808191810296840F951FE9016C
:102F300099838883828193819B838A83F0E0E0E098
:102F400012968D919C9113970097B9F52D913C9114
:102F50001197CD010296820F931F20914905309160
:102F60004A052817390739F6309751F510924C0564
:102F700010924B05B0934A05A0934905BCCFD3836B
:102F8000C28340815181840F951FC817D90761F40E
:102F90004E5F5F4F88819981480F591F518340834D
:102FA0008A819B81938382832115310509F0B0CFFB
:102FB000F0934C05E0934B059ECFFD01DC01C0CFA3
:102FC00013821282D7CF4F925F926F927F928F922D
:102FD0009F92AF92BF92CF92DF92EF92FF920F93A8
:102FE0001F93CF93DF938C01009799F4CB01DF916E
:102FF000CF911F910F91FF90EF90DF90CF90BF90F6
:10300000AF909F908F907F906F905F904F900C94B7
:10301000BE16FC01E60FF71F9C0122503109E21792
:10302000F30708F4AEC0D901CD91DC911197C61712
:10303000D70720F1C530D10578F0CE010497861767
:10304000970750F0C61BD70B2297C193D1936D936E
:103050007C93CF010E945A17C801DF91CF911F9135
:103060000F91FF90EF90DF90CF90BF90AF909F9027
:103070008F907F906F905F904F9008955B01AC1A96
:10308000BD0A4C018C0E9D1EA0914B05B0914C05C4
:10309000512C412CF12CE12C109731F580914905F0
:1030A00090914A058815990509F05CC046165706A7
:1030B00008F058C08091080290910902009741F4ED
:1030C0008DB79EB740910C0250910D02841B950B59
:1030D000E817F90708F055C0F0934A05E093490551
:1030E000F90171836083B8CF8D919C9111971296ED
:1030F0006C90129713967C901397A815B90559F503
:103100006C0142E0C40ED11CCA14DB0420F1AC01F6
:103110004A195B09DA011296159780F06282738270
:1031200051834083D9016D937C93E114F10471F0D4
:10313000D7011396FC93EE9312978ECF22968C0FA5
:103140009D1FF90191838083F301EFCFF0934C052C
:10315000E0934B0581CF4816590608F42C017D01F8
:10316000D3019ACFCB010E94BE167C01009749F093
:10317000AE01B8010E94C418C8010E945A17870105
:103180006BCF10E000E068CFFB01DC0102C00190D2
:103190000D9241505040D8F70895FB01DC01019099
:1031A0000D920020E1F7089511E0CDE6D1E000E0B6
:1031B00006C0802FFE010E94A2162196011DCE3668
:0C31C000D10780E00807A9F7F894FFCFC2
:1031CC00020006000101010100004D058000000015
:1031DC0000004802B201DF0195021002EE0102026A
:1031EC000D0A003030303030303030000A4F204281
:1031FC00204A20452054204F0A000A41202042201A
:10320C0041205220522045205221002D202D202DCE
:10321C00202D202D004C2049204D205020492045A8
:10322C00204320492054204F21003E3E20554E493A
:10323C0056455253494441442044452053414E2065
:10324C004341524C4F532044452047554154454D22
:10325C00414C41003E3E2049204E20472045204E07
:10326C0020492045205220492041003E3E2041204B
:10327C005220512055204920202031003E3E20472D
:10328C00205220552050204F202033004520532021
:10329C0051205520492056204120442049205420BB
:1032AC004F21000A452053205120552049205620FB
:1032BC0041204E2044204F2020204F2042205320DC
:0C32CC0054204120432055204C4F0000AE
:00000001FF
