:020000040000FA
:100000000C946E010C949F010C949F010C949F0121
:100010000C949F010C949F010C949F010C949F01E0
:100020000C949F010C949F010C949F010C949F01D0
:100030000C949F010C949F010C949F010C949F01C0
:100040000C949F010C945B100C949F010C949F01E5
:100050000C949F010C949F010C949F010C94870FAA
:100060000C949F010C94510F0C94270F0C949F013A
:100070000C949F010C949F010C949F010C949F0180
:100080000C942D100C949F010C949F010C949F01D3
:100090000C949F010C949F010C949F010C949F0160
:1000A0000C949F010C949F010C94FF0F0C949F01E2
:1000B0000C949F010C949F010C949F010C94D10F00
:1000C0000C949F010C949F010C949F010C949F0130
:1000D0000C949F010C949F010C949F010C949F0120
:1000E0000C949F010C9475040C94F1050C940E0370
:1000F0000C9466040C9493040C940A030C9423034C
:100100000C9452040C9489050C945C040C94020227
:100110000C9449030C9440040C942D030C94CB05CF
:100120000C947F040C9429030C949D040C94CD052D
:100130000C9444030C941A040C9448040C94450346
:100140000C94CE100C9448020C9438040C9489043E
:100150000C94B2010C94A1050C94D3050C940403E7
:100160000C9493050C942E040C9412030C94150417
:100170000C94EE010C94A7040C940D040C949502BD
:100180000C94B3050C9431030C9416030C94DF010A
:100190000C94DD050C940E160C9419030C941F039B
:1001A0000C9437030C943F030C94EB050C9424043B
:1001B0000C9410020C943B03000021002400270043
:1001C0002A002D0030003300010100000401070166
:1001D0000A0100002200250028002B002E0031001B
:1001E000340002010000050108010B0100000A0BA8
:1001F00002090C0D0E0807030401000000000000B6
:1002000000000000000000000000000000000000EE
:1002100000000000000000001211100000000000AB
:1002200000000000000000000000000000000000CE
:100230000000000020002300260029002C002F00D1
:100240003200000100000301060109010505050552
:10025000070508080808020202020A0A080804043E
:10026000040401010101010101010303030303036C
:100270000303040707070C0C0C0C0C0C0C0C0202FB
:10028000020206060606060606060B0B0B0B0B0BF8
:100290000B0B010210202008081020401020408085
:1002A000020102010804020101020408102040803A
:1002B00080402010080402018004020180402010C8
:1002C0000804020108040201010204081020408011
:1002D0000102040810204080CE100E1611241FBE0B
:1002E000CFEFD1E2DEBFCDBF00E00CBF13E0A0E056
:1002F000B2E0ECEDF1E300E00BBF02C007900D921D
:10030000AC30B107D9F725E0ACE0B3E001C01D92F5
:10031000AD34B207E1F711E0CDE6D1E000E006C070
:1003200021970109802FFE010E94AA16CC36D10721
:1003300080E00807A9F70E94AE120C94DC180C9418
:100340000000FC01248135816217730748F4808125
:100350009181009729F0860F971FFC0180810895F5
:1003600080E00895AF92BF92CF92DF92EF92FF921A
:100370000F931F93CF93DF936C017B018B01040FCD
:10038000151FEB015E01AE18BF08C017D10759F069
:100390006991D601ED91FC910190F081E02DC601AB
:1003A0001995892B79F7C501DF91CF911F910F9195
:1003B000FF90EF90DF90CF90BF90AF900895FC0139
:1003C000538D448D252F30E0842F90E0821B930BBA
:1003D000541710F0CF96089501970895FC01918D60
:1003E000828D981761F0A28DAE0FBF2FB11D5D9663
:1003F0008C91928D9F5F9F73928F90E008958FEF05
:100400009FEF0895FC01918D828D981731F0828DB8
:10041000E80FF11D858D90E008958FEF9FEF08950F
:10042000FC01918D228D892F90E0805C9F4F821B73
:1004300091098F739927089589E293E00E94100231
:1004400021E0892B09F420E0822F0895FC01A48D7E
:10045000A80FB92FB11DA35ABF4F2C91848D90E0E6
:1004600001968F739927848FA689B7892C93A089C9
:10047000B1898C91837080648C93938D848D981353
:1004800006C00288F389E02D80818F7D80830895E6
:10049000EF92FF920F931F93CF93DF93EC0181E0D4
:1004A000888F9B8D8C8D98131AC0E889F98980817B
:1004B00085FF15C09FB7F894EE89FF896083E889AE
:1004C000F98980818370806480839FBF81E090E0A0
:1004D000DF91CF911F910F91FF90EF900895F62E2D
:1004E0000B8D10E00F5F1F4F0F731127E02E8C8DC7
:1004F0008E110CC00FB607FCFACFE889F98980810C
:1005000085FFF5CFCE010E942602F1CFEB8DEC0FD7
:10051000FD2FF11DE35AFF4FF0829FB7F8940B8F28
:10052000EA89FB8980818062CFCFCF93DF93EC0192
:10053000888D8823B9F0AA89BB89E889F9898C91CB
:1005400085FD03C0808186FD0DC00FB607FCF7CF87
:100550008C9185FFF2CF808185FFEDCFCE010E9487
:100560002602E9CFDF91CF91089580E090E0892BBA
:1005700029F00E941C0281110E94000080E090E09E
:10058000892B49F080E090E0892B29F00E9400003F
:1005900081110E94000080E090E0892B49F080E00A
:1005A00090E0892B29F00E94000081110E94000038
:1005B00080E090E0892B49F080E090E0892B29F0E1
:1005C0000E94000081110C94000008958150823136
:1005D00008F05AC0E82FF0E08827EE50FD4F8F4F0B
:1005E0000C94AA161203160304030A030E03440311
:1005F00019031F03230329032D03310337033B038F
:1006000044033F0345034903809180008F77809323
:1006100080000895809180008F7DF9CF80918000C7
:10062000877FF5CF84B58F7784BD089584B58F7D9E
:10063000FBCF8091B0008F778093B00008958091B8
:10064000B0008F7DF9CF809190008F7780939000DC
:100650000895809190008F7DF9CF80919000877FE1
:10066000F5CF8091A0008F778093A00008958091AE
:10067000A0008F7DF9CF8091A000877FF5CF80917A
:1006800020018F77809320010895809120018F7D34
:10069000F9CF80912001877FF5CFCF93DF93282F6B
:1006A00030E0F901E451FE4F8491F901EE56FD4F1F
:1006B000D491F901E45BFD4FC491CC23A1F08111E9
:1006C0000E94E602EC2FF0E0EE0FFF1FEE5CFD4F04
:1006D000A591B491EC91ED2381E090E009F480E0E4
:1006E000DF91CF91089580E090E0FACF1F93CF93F0
:1006F000DF93282F30E0F901E451FE4F8491F90196
:10070000EE56FD4FD491F901E45BFD4FC491CC232B
:10071000A9F0162F81110E94E602EC2FF0E0EE0FF7
:10072000FF1FEE52FE4FA591B4918FB7F894EC9154
:10073000111108C0D095DE23DC938FBFDF91CF91DC
:100740001F910895DE2BF8CFCF93DF9390E0FC014B
:10075000EE56FD4F2491845B9D4FFC0184918823CC
:10076000D1F090E0880F991FFC01E854FE4FA5914D
:10077000B491FC01EE52FE4FC591D49161110EC0AF
:100780009FB7F8948C91E22FE0958E238C9328816B
:10079000E223E8839FBFDF91CF9108958FB7F8944C
:1007A000EC91E22BEC938FBFF6CF1F93CF93DF93A7
:1007B000182FEB0161E00E94A403209739F460E058
:1007C000812FDF91CF911F910C947603CF3FD105FC
:1007D00011F461E0F5CFE12FF0E0E451FE4FE49138
:1007E000E150E23108F0B3C0F0E08827E550FC4F5B
:1007F0008F4F0C94AA160D0415041A0424042E0419
:10080000A70438044004480452045C0466047504D8
:100810007F04A704890493049D0484B5806884BD83
:10082000C7BDDF91CF911F91089584B5806284BDCB
:10083000C8BDF7CF80918000806880938000D093FE
:100840008900C0938800EDCF809180008062809302
:100850008000D0938B00C0938A00E3CF809180000A
:10086000886080938000D0938D00C0938C00D9CF96
:100870008091B00080688093B000C093B300D1CF66
:100880008091B00080628093B000C093B400C9CF63
:1008900080919000806880939000D0939900C093DD
:1008A0009800BFCF80919000806280939000D09399
:1008B0009B00C0939A00B5CF809190008860809390
:1008C0009000D0939D00C0939C00ABCF8091A0007E
:1008D00080688093A0008091A0008F7B8093A0000F
:1008E000D093A900C093A8009CCF8091A000806203
:1008F0008093A000D093AB00C093AA0092CF8091C8
:10090000A00088608093A000D093AD00C093AC009D
:1009100088CF80912001806880932001D0932901A5
:10092000C09328017ECF80912001806280932001B6
:10093000D0932B01C0932A0174CF8091200188604D
:1009400080932001D0932D01C0932C016ACFC03831
:10095000D1050CF03ECF33CF3FB7F8948091170309
:1009600090911803A0911903B0911A0326B5A89B82
:1009700005C02F3F19F00196A11DB11D3FBFBA2F31
:10098000A92F982F8827BC01CD01620F711D811DF1
:10099000911D42E0660F771F881F991F4A95D1F776
:1009A00008958F929F92AF92BF92CF92DF92EF9273
:1009B000FF926B017C010E94AC044B015C01C114ED
:1009C000D104E104F104B9F00E94AC04681979097A
:1009D0008A099B09683E73408105910580F321E0F7
:1009E000C21AD108E108F10888EE880E83E0981E4B
:1009F000A11CB11CE4CFFF90EF90DF90CF90BF908F
:100A0000AF909F908F9008950F931F93CF93DF9394
:100A1000EC018B0188859985029751F4613071054D
:100A200009F43AC06CF560E00115110509F435C010
:100A300088859985049751F40130110509F455C052
:100A40000CF035C00115110509F43EC08885998563
:100A5000059709F0C8C00A30110508F0C4C0F801B4
:100A60008827EA5CFA4F8F4F0C94AA1689059305E4
:100A7000A105B305CB05CD05D305DD05EB05F105D6
:100A80006230710591F060E00330110589F68C85C4
:100A90000E94760360E005C061E08C850E947603C9
:100AA00061E08E850E947603C3CF61E0F0CF023013
:100AB000110509F10330110509F0C8CF61E08C85FB
:100AC0000E94760360E01CC061E08C850E94760382
:100AD00060E08E850E94760361E088890E9476033B
:100AE00060E08A890E947603B1CF60E08C850E9425
:100AF000760361E0EECF60E08C850E94760361E0D2
:100B00008E850E94760360E088890E94760361E00A
:100B1000E8CF60E08C850E94760361E08E850E94BC
:100B2000760361E009C060E08C850E94760361E095
:100B30008E850E94760360E088890E94760360E0DB
:100B40000DC060E08C850E94760361E08E850E9476
:100B5000760360E088890E94760361E08A890E94BA
:100B6000760361E011C060E08C850E94760361E04D
:100B70008E850E94760360E088890E94760361E09A
:100B80008A890E94760360E08C89DF91CF911F9162
:100B90000F910C94760361E0E7CF61E08C850E94B1
:100BA000760360E0E5CF61E08C850E94760360E02B
:100BB0008E850E94760361E0DFCF61E08C850E9424
:100BC000760360E08E850E94760361E088890E944A
:100BD000760360E0D5CF61E08C850E94760360E00B
:100BE0009DCF60E0F9CFDF91CF911F910F910895D4
:100BF000CF92DF92EF92FF920F931F93CF93DF93E9
:100C0000EC016130710509F045C0798368830E9469
:100C1000AC040E891F89288D398D6B017C01C01AA7
:100C2000D10AE20AF30A0A811B812C813D81C01698
:100C3000D106E206F30658F36E8B7F8B888F998F6F
:100C40008A859B85288139812130310549F50196B6
:100C50009B878A872E813F818217930711F41B8619
:100C60001A868A859B85288539856AE070E025305B
:100C7000310511F064E070E00E949616BC01CE01CF
:100C8000DF91CF911F910F91FF90EF90DF90CF9068
:100C90000C9404056F3F7F4F79F419821882B7CF07
:100CA000892B21F48E819F819B878A878A859B85EA
:100CB00001979B878A87D5CFDF91CF911F910F91A5
:100CC000FF90EF90DF90CF900895CF92DF92EF9258
:100CD000FF92CF93DF93EC01603282E07807CCF58E
:100CE000653B710514F064EB70E0898128E830E021
:100CF000281B310987FD3395220F331F220F331F25
:100D00006901330FEE08FF088A8128E532E0281BCD
:100D1000310987FD3395220F331F220F331F032E16
:100D2000000C440B550B2C193D094E095F09DB01E2
:100D300077FF02C0B0E0A0E00E94511624EB30E043
:100D400040E050E00E942716C20ED31EE41EF51E9E
:100D5000B601E881E03370F5298188E890E0821BD4
:100D6000910927FD9395880F991F880F991F681780
:100D700079077CF02A8188E592E0821B910927FDA2
:100D80009395880F991F880F991F681779070CF49E
:100D9000CB010297880F991F4FB7F8942E2F30E0A0
:100DA000F901EE0FFF1FE20FF31FEA53FC4F92838E
:100DB00081834FBFDF91CF91FF90EF90DF90CF9075
:100DC00008951F93CF93DF93EC01162F8881803312
:100DD00008F04EC061E0812F0E94A4038881282F73
:100DE00030E0F901EE0FFF1FE20FF31FEA53FC4F53
:100DF0001F736081607C612B608319821A822CE0F2
:100E0000622F0E948A16829FB001112430E020E0F8
:100E1000AB01420F531FFA01EE0FFF1FE40FF51F46
:100E2000EA53FC4F908196FD16C02F5F3F4F2C3048
:100E3000310571F7813009F51092800082E08093CE
:100E400081001092850010928400B19A80916F0009
:100E5000826080936F00E8818E2F90E0FC01EE0F9E
:100E6000FF1FE80FF91FEA53FC4F808180648083E5
:100E70008881DF91CF911F910895823061F41092A3
:100E8000900080939100109295001092940088BB7E
:100E900080937100E0CF833069F41092A00082E06B
:100EA0008093A1001092A5001092A40089BB8093AA
:100EB0007200D1CF8111CFCF1092200182E08093B8
:100EC000210110922501109224018ABB80937300A6
:100ED000C2CFAF92BF92CF92DF92EF92FF920F9369
:100EE0001F93CF93DF936B017A01EC01C25FDC4F5C
:100EF00028813CE0389F8001399F100D1124A0907B
:100F00005604B12C27FF1FC0FB011182108288817B
:100F10008F5F888388819801280F311D87FD3A955E
:100F2000F6012A153B051CF488818C30C4F18081C0
:100F30009181049680349C4908F473C0F601808145
:100F40009181049670C088819801280F311D87FD1A
:100F50003A952A153B05DCF68881A801480F511DFA
:100F600087FD5A95FA01EE0FFF1FE40FF51FEA53B4
:100F7000FC4F808186FFCBCF8881F801E80FF11DFF
:100F800087FDFA95CF01EE0FFF1FE80FF91FEA5317
:100F9000FC4F808160E08F730E947603B8CF808120
:100FA00091812881A801420F511D27FD5A959A0170
:100FB000FA01EE0FFF1FE20FF31FEA53FC4F2181EE
:100FC0003281820F931FF70191838083888198017A
:100FD000280F311D87FD3A95F901EE0FFF1FE20F33
:100FE000F31FEA53FC4F808186FF22C08881080FDF
:100FF000111D87FD1A95F801EE0FFF1FE00FF11F7D
:10100000EA53FC4F808161E08F73DF91CF911F9194
:101010000F91FF90EF90DF90CF90BF90AF900C9426
:10102000760380E49CE9F701918380838FEF8883C6
:10103000DF91CF911F910F91FF90EF90DF90CF90B4
:10104000BF90AF900895CF93DF93EC0162E370E01F
:101050008AE00E94D50362E370E089E00E94D50334
:1010600060E085E00E94760361E084E00E94760300
:1010700061E083E00E94760360E082E00E947603F4
:10108000BE01DD0F880B990BDF91CF910C94D10439
:10109000CF93DF93EC0162E370E08AE00E94D50316
:1010A00062E370E089E00E94D50361E085E00E9480
:1010B000760360E084E00E94760360E083E00E94B3
:1010C000760361E082E00E947603BE01DD0F880BAB
:1010D000990BDF91CF910C94D10460E085E00E94E0
:1010E000760360E084E00E94760360E083E00E9483
:1010F000760360E082E00C94760364E670E08AE0B8
:101100000E94D50364E670E089E00E94D50360E0A8
:1011100085E00E94760361E084E00E94760360E04F
:1011200083E00E94760361E082E00C947603CF9224
:10113000DF92EF92FF920F931F93CF93DF931F9253
:101140001F92CDB7DEB769834A83880F991F00913C
:101150000D0510910E05000F111FE7EBF4E09F0144
:10116000275B34402017310714F41192F8CF2981FE
:10117000FC01E954FB4F21838A81808360E08091E8
:101180000B050E9476031016110604F50150110993
:10119000F801E954FB4FE080D0900905C0900705A5
:1011A00088E0F82E6E2D661F6627661F8C2D0E9424
:1011B0007603EE0C61E08D2D0E94760360E08D2DAC
:1011C0000E947603FA94F110EDCFDDCF61E08091BB
:1011D0000B050F900F90DF91CF911F910F91FF9012
:1011E000EF90DF90CF900C947603EF92FF920F93E5
:1011F0001F93CF937C018C0183E0000F111F8A9510
:10120000E1F709531B4FC1E0F80111928F0140E053
:101210006C2FC7010E949708CF5FC930A9F7CF9103
:101220001F910F91FF90EF90089520910D0530913F
:101230000E0512161306FCF488309105E1F06830B3
:101240007105C9F020E830E002C0359527956A9510
:10125000E2F7FC01E954FB4F5089442349F0252B68
:10126000208B61E0680F408990E080E00C94970843
:1012700020952523F5CF0895CF93DF93FC010190AE
:101280000020E9F73197AF01481B590BBC0189E2F7
:1012900093E00E94B201EC0142E050E060E272E0B3
:1012A00089E293E00E94B2018C0F9D1FDF91CF91E4
:1012B00008950F931F9390E0FC01EE56FD4F64914B
:1012C000FC01E45BFD4FE491F0E0EE0FFF1FEE5CEC
:1012D000FD4F8591949100E412E42FE030E0462F19
:1012E0000E948910611571058105910529F06F5FD4
:1012F0007F4F8F4F9F4F9F701F910F9108950F93B6
:101300001F93CF93DF93EC0188819981009759F067
:101310002A813B812617370730F081E0DF91CF919A
:101320001F910F9108958B016F5F7F4F0E94EB1704
:10133000009759F0998388831B830A832C813D8110
:10134000232B59F7FC011082E8CF80E0E7CFEF9222
:10135000FF920F931F93CF93DF936115710541F4B3
:1013600080E0DF91CF911F910F91FF90EF90089552
:1013700041155105B1F07B01EC010C811D81040F79
:10138000151FB8010E947F09882351F328813981F4
:101390008C819D81B701820F931F0E94D5181D83F8
:1013A0000C8381E0DECFCF93DF931F921F92CDB7E6
:1013B000DEB769831A8241E050E0BE016F5F7F4F64
:1013C0000E94A7090F900F90DF91CF910895CF93BE
:1013D000DF93EC0188819981009711F00E946217D8
:1013E000198218821D821C821B821A82DF91CF9182
:1013F0000895CF93DF93EC01FB0101900020E9F702
:101400003197AF01461B570B0E94A709811103C0FA
:10141000CE010E94E709CE01DF91CF910895CF93CD
:10142000DF93EC01FB0144815581608171810E9451
:10143000A709811103C0CE010E94E709CE01DF9107
:10144000CF910895EF92FF920F931F93CF93DF9365
:10145000EC017B018A01BA010E947F0981110BC056
:10146000CE010E94E709CE01DF91CF911F910F912C
:10147000FF90EF9008951D830C83B70188819981B7
:101480000E94D518F0CFCF93DF93EC01FB018617B4
:10149000970749F0608171816115710541F04481C0
:1014A00055810E94220ACE01DF91CF9108950E94BA
:1014B000E709F9CFFC011182108213821282158292
:1014C0001482FB0101900020E9F73197AF01461B20
:1014D000570B0C94220AFC0180819181009711F036
:1014E0000C94621708959F92AF92BF92CF92DF92B1
:1014F000EF92FF920F931F93CF93DF93CDB7DEB799
:10150000A4970FB6F894DEBF0FBECDBF5C018B0170
:10151000942E089718F468307105D8F182E090E0B5
:10152000909301028093000284E090E09093030284
:101530008093020210E000E048E050E063E272E0D5
:10154000C80189579B4F0E94220A48E050E063E29D
:1015500072E0C801895A9B4F0E94220A0A5F1F4FFE
:101560000033110549F780910D0590910E0518166D
:10157000190624F490E080E00E94F50864E670E02B
:1015800080E090E00E94D10404E010E032E0A32E5D
:10159000B12C809102029091030226E0F22EF89E77
:1015A000B001F99E700D112469577B4F18861F8278
:1015B0001A8619861C861B86CE0107960E94430A4E
:1015C00062E272E0CE010D960E945A0A62E272E077
:1015D000CE0143960E945A0A62E272E0CE01499619
:1015E0000E945A0A62E272E0CE014F960E945A0AA5
:1015F000F09EC001F19E900D11249C0129573B4F94
:1016000069018C01095A1B4FF12CE12CAE14BF0467
:10161000B1F0B701C6010E94A101682FCE010D965D
:101620000E94D309B701C8010E94A101682FCE0111
:1016300049960E94D3093FEFE31AF30AE7CFE090FF
:101640000002F09001028FEFE81AF80A28E0E21693
:10165000F1049CF4B701C6010E94A101682FCE01DC
:1016600043960E94D309B701C8010E94A101682FC7
:10167000CE014F960E94D309E6CF1A8219821C82AE
:101680001B821E821D82BE01635F7F4FCE010196C9
:101690000E94430A6AEB72E0CE0101960E94F909AA
:1016A000BE016D5E7F4F0E940F0ABC01C6010E9401
:1016B000430ACE0101960E946B0A1A8219821C828B
:1016C0001B821E821D82BE01675E7F4FCE01019686
:1016D00091103BC00E94430A6AEB72E0CE01019672
:1016E0000E94F909BE01615E7F4F0E940F0ABC0192
:1016F000C8010E94430ACE0101960E946B0ACE01E6
:101700004F960E946B0ACE0149960E946B0ACE0149
:1017100043960E946B0ACE010D960E946B0ACE0181
:1017200007960E946B0AA4960FB6F894DEBF0FBE10
:10173000CDBFDF91CF911F910F91FF90EF90DF9080
:10174000CF90BF90AF909F9008950E94430A6AE2A5
:1017500072E0C4CFCF93DF93D82FC62F64E670E03A
:101760008AE00E94D50364E670E089E00E94D50318
:1017700061E085E00E94760360E084E00E947603E9
:1017800061E083E00E94760360E082E00E947603DD
:10179000DD2369F1CC2359F180910C0390910D0365
:1017A000019690930D0380930C03019701F58091AE
:1017B0000602882309F18091020290910302209190
:1017C00005022223B9F0019790930302809302024D
:1017D000609102027091030240E0809100029091BA
:1017E00001020E94730A10920D0310920C03DF9104
:1017F000CF9108950196E8CF809100029091010267
:1018000020910402222331F00197909301028093EA
:101810000002DECF0196F9CFEF92FF920F931F9354
:10182000CF93DF93C82F8DE00E944D039093280340
:10183000809327038CE00E944D03909326038093AE
:1018400025038BE00E944D03909324038093230390
:1018500080917B00877F80937B0080E480937C0075
:1018600080917A00806480937A0080917A0086FD6E
:10187000FCCF90917800809179008927982789275B
:101880008497079708F097C08CE292E00E943C0989
:1018900061E08FE10E9476030E946D088AE392E086
:1018A0000E943C098BE492E00E943C0963E270E0F4
:1018B00086E495E00E94E10681E090E090931C03AD
:1018C00080931B0300911B0310911C03023D23E036
:1018D000120794F4B80186E495E00E9465066FE073
:1018E00070E080E090E00E94D1040F5F1F4F1093E2
:1018F0001C0300931B03E6CF80910602882309F4A2
:101900004AC0809102029091030220910502222395
:1019100009F43FC001979093030280930202609103
:1019200002027091030241E0809100029091010255
:101930000E94730A85E592E00E943C0981E292E0F0
:101940000E943C09809127039091280381309105E2
:10195000B9F520912503309126032130310509F096
:1019600051C080912303909124038130910509F0A7
:10197000B8C081E08093220361E070E089E295E0E5
:101980000E94F80561E070E08FE095E00E94F805A4
:1019900052C00196C0CF8091000290910102209127
:1019A0000402222331F001979093010280930002F8
:1019B000B6CF0196F9CF60E08FE10E947603C2CFE7
:1019C000892BE9F5809125039091260381309105BB
:1019D00009F09AC08091230390912403009749F263
:1019E000019769F581E0809322031092210361E061
:1019F00070E089E295E00E94F80589E190E00E949C
:101A00004808BACF232BD9F4209123033091240323
:101A10002130310509F4ADCF232B89F421E0209347
:101A20002103209322039093200380931F0384E1DA
:101A300090E00E9423086C2F81E00E94AA0B97E897
:101A4000E92E94E0F92E10E000E0D0E0C0E0BE0105
:101A5000C7010E94A10141E0813309F040E0BE01CD
:101A6000C8010E9415092196C830D10581F70F5F82
:101A70001F4F86E0E80EF11C0830110531F76BE4CA
:101A800070E080E090E00E94D10487E5E82E84E0D9
:101A9000F82E10E000E0D0E0C0E0BE01C7010E94D7
:101AA000A10141E0813309F040E0BE01C8010E947C
:101AB00015092196C830D10581F70F5F1F4F26E029
:101AC000E20EF11C0830110531F76BE470E080E0A4
:101AD00090E0DF91CF911F910F91FF90EF900C94C8
:101AE000D104892B09F0ABCF81E0809322031092BF
:101AF000210361E070E08FE095E00E94F80589E144
:101B000090E00E94230838CF892B09F098CF80916C
:101B10002303909124038130910571F481E0809337
:101B20002103809322031092200310921F0384E16B
:101B300090E00E9448087FCF892B09F080CF8091E8
:101B40002103882309F44FC0109221031092070249
:101B50000E946D0880911F0390912003019709F066
:101B600067C08DE00E944D03892B19F40E947D0807
:101B7000F8CF0E947D086CE271E080E090E00E9466
:101B8000D10480EA90E00E94230860E080E00E9497
:101B9000AA0B60E971E080E090E00E94D1048DE042
:101BA0000E944D037C0190932803809327038CE0CF
:101BB0000E944D038C0190932603809325038BE0B4
:101BC0000E944D039093240380932303EA94EF280B
:101BD00029F00130110511F0019729F41092220328
:101BE00081E08093070280912203882309F427CFA4
:101BF000109222036FEF7FEF89E295E00E94F805D3
:101C00006FEF7FEF8FE095E00E94F8058DE00E9476
:101C10004D03892B11F58CE00E944D03892BE9F4CB
:101C20008BE00E944D03892BC1F40E947D08EECF0A
:101C30008BE00E944D03892B19F40E947D08F8CF98
:101C40000E947D086CE271E080E090E00E94D10487
:101C500080EA90E00E94480898CF0E947D0866E9DB
:101C600070E080E090E00E94D1040E946D086CE476
:101C700074E080E090E00E94D10480911D03909177
:101C80001E03892B09F0A0C061E070E089E295E0B5
:101C90000E94F80584E398E00E9448080E946D08BD
:101CA00065EF70E080E090E00E94D10461E070E0B8
:101CB00089E295E00E94F80561E070E08FE095E030
:101CC0000E94F8056C2F81E00E94AA0B64EF71E07E
:101CD00080E090E00E94D1048CE00E944D03EC0172
:101CE00090932603809325030E946D0868EE73E0AD
:101CF00080E090E00E94D104219719F591E0909343
:101D0000070210921E0310921D03909322038091EC
:101D10000602882371F020910502222319F0109207
:101D2000040202C09093040291E089278093060286
:101D300086CE20910402222309F483C090930502E9
:101D4000F3CF109207026FEF7FEF89E295E00E94D8
:101D5000F8056FEF7FEF8FE095E00E94F8058DE0CA
:101D60000E944D03892B19F10E947D0866E970E0FD
:101D700080E090E00E94D10481E090E090931E0307
:101D800080931D036FEF7FEF89E295E00E94F805D5
:101D90006FEF7FEF8FE095E00E94F8050E947D08CD
:101DA00063E270E080E090E00E94D10448CE8CE0D5
:101DB0000E944D03892BC1F68BE00E944D03892BB5
:101DC00099F60E947D08CBCFC1E0C093070284E062
:101DD00090E10E9423080E946D0861E070E08FE0AE
:101DE00095E00E94F80564E670E080E090E00E94D3
:101DF000D10461E070E08FE095E00E94F80564E6B0
:101E000070E080E090E00E94D1040E946D0865EFD0
:101E100070E080E090E00E94D10410921E031092C6
:101E20001D0380910602882341F0909105029923B9
:101E300009F475CFC093040277CF909104029923DF
:101E400019F01092050270CFC09305026DCF1F925A
:101E50000F920FB60F9211240BB60F922F933F9350
:101E60004F935F936F937F938F939F93AF93BF93A2
:101E7000EF93FF9389E293E00E942602FF91EF9196
:101E8000BF91AF919F918F917F916F915F914F9192
:101E90003F912F910F900BBE0F900FBE0F901F9090
:101EA00018951F920F920FB60F9211240BB60F9236
:101EB0002F938F939F93EF93FF93E0913903F091CA
:101EC0003A038081E0913F03F091400382FD1DC001
:101ED0009081809142038F5F8F732091430382171B
:101EE00041F0E0914203F0E0E75DFC4F958F809375
:101EF0004203FF91EF919F918F912F910F900BBE15
:101F00000F900FBE0F901F9018958081F2CF1F92F7
:101F10000F920FB60F9211242F933F938F939F939D
:101F2000AF93BF938091130390911403A091150375
:101F3000B09116033091120323E0230F2D3758F58B
:101F40000196A11DB11D209312038093130390935A
:101F50001403A0931503B093160380911703909177
:101F60001803A0911903B0911A030196A11DB11D88
:101F70008093170390931803A0931903B0931A0347
:101F8000BF91AF919F918F913F912F910F900FBE75
:101F90000F901F90189526E8230F0296A11DB11DE2
:101FA000D2CF1F920F920FB60F9211240BB60F9241
:101FB0002F933F934F935F936F937F938F939F9351
:101FC000AF93BF93EF93FF9348E251E064E271E077
:101FD00090E080E00E946907FF91EF91BF91AF917F
:101FE0009F918F917F916F915F914F913F912F9131
:101FF0000F900BBE0F900FBE0F901F9018951F9261
:102000000F920FB60F9211240BB60F922F933F939E
:102010004F935F936F937F938F939F93AF93BF93F0
:10202000EF93FF9348EA50E064EA70E083E090E0C9
:102030000E946907FF91EF91BF91AF919F918F919E
:102040007F916F915F914F913F912F910F900BBEB8
:102050000F900FBE0F901F9018951F920F920FB602
:102060000F9211240BB60F922F933F934F935F93D0
:102070006F937F938F939F93AF93BF93EF93FF9350
:1020800048E950E064E970E082E090E00E9469076E
:10209000FF91EF91BF91AF919F918F917F916F9140
:1020A0005F914F913F912F910F900BBE0F900FBEFC
:1020B0000F901F9018951F920F920FB60F92112438
:1020C0000BB60F922F933F934F935F936F937F9332
:1020D0008F939F93AF93BF93EF93FF9348E850E0A4
:1020E00064E870E081E090E00E946907FF91EF9161
:1020F000BF91AF919F918F917F916F915F914F9120
:102100003F912F910F900BBE0F900FBE0F901F901D
:102110001895CF92DF92EF92FF920F931F93E82FC3
:10212000F92F05C0015011092109310961F1908190
:1021300096239417B9F305C00150110921093109FB
:1021400011F1908196239413F7CFC12CD12CE12C5F
:10215000F12C0AC08FEFC81AD80AE80AF80A0C1541
:102160001D052E053F0579F080818623841791F3A4
:102170006C2D7D2D8E2D9F2D1F910F91FF90EF9037
:10218000DF90CF90089560E070E080E090E01F91D4
:102190000F91FF90EF90DF90CF9008950F931F93D2
:1021A000CF93DF9310922C0310922B0388EE93E0D1
:1021B000A0E0B0E080932D0390932E03A0932F0313
:1021C000B093300382E192E090932A038093290335
:1021D00085EC90E0909336038093350384EC90E097
:1021E000909338038093370380EC90E090933A0308
:1021F0008093390381EC90E090933C0380933B0300
:1022000082EC90E090933E0380933D0386EC90E057
:102210009093400380933F03109242031092430334
:10222000109244031092450380915604803308F0C5
:1022300029C191E0980F909356048093460590E051
:10224000FC01EE0FFF1FE80FF91FEA53FC4F88EB6C
:102250009BE09283818380915604803308F016C1FD
:1022600091E0980F909356048093430590E0FC0111
:10227000EE0FFF1FE80FF91FEA53FC4F88EB9BE0BE
:1022800092838183109234051092330510922A05AF
:102290001092290510923F051092400510924105B9
:1022A0001092420508EC10E01093300500932F05C2
:1022B00082E390E0909336058093350583E390E0C8
:1022C000909338058093370584E390E090933A0526
:1022D0008093390585E390E090933C0580933B051E
:1022E00061E082E30E94A40361E0809137050E94CF
:1022F000A40361E0809139050E94A40361E080910C
:102300003B050E94A40310923E0510923D05C4E0D7
:10231000D0E0D0933205C093310510921A05109287
:1023200019051092100510920F05109225051092B4
:102330002605109227051092280510931605009384
:10234000150586E190E090931C0580931B0587E1BD
:1023500090E090931E0580931D0588E190E0909396
:10236000200580931F0589E190E0909322058093DA
:10237000210561E086E10E94A40361E080911D05D2
:102380000E94A40361E080911F050E94A40361E004
:10239000809121050E94A403109224051092230528
:1023A000D0931805C0931705CFE2D0E0D09308056D
:1023B000C093070580E390E090930A058093090598
:1023C00081E390E090930C0580930B0581E090E011
:1023D00090930E0580930D0561E08FE20E94A403A7
:1023E00061E0809109050E94A40361E080910B05E2
:1023F0000E94A40361E080910B050E947603D093B4
:102400000805C0930705E7ECF4E087E095E011923A
:102410008E179F07E1F7D0E0C0E080910D05909105
:102420000E05C817D907B4F540E06FE0CE010E9451
:10243000970880910D0590910E05C817D9072CF4C7
:1024400047E06BE0CE010E94970840E069E0CE01D2
:102450000E94970880910D0590910E05C817D90725
:102460001CF4CE010E94F50880910D0590910E0597
:10247000C817D9072CF440E06CE0CE010E94970801
:102480002196CBCF8FEF80934605E5CE8FEF8093DB
:102490004305F8CE63E272E087E894E00E945A0AAE
:1024A00063E272E08DE894E00E945A0A63E272E00F
:1024B00083E994E00E945A0A63E272E089E994E0B9
:1024C0000E945A0A63E272E08FE994E00E945A0A7D
:1024D00063E272E085EA94E00E945A0A63E272E0E5
:1024E0008BEA94E00E945A0A63E272E081EB94E086
:1024F0000E945A0A63E272E087E594E00E945A0A59
:1025000063E272E08DE594E00E945A0A63E272E0B1
:1025100083E694E00E945A0A63E272E089E694E05E
:102520000E945A0A63E272E08FE694E00E945A0A1F
:1025300063E272E085E794E00E945A0A63E272E087
:102540008BE794E00E945A0A63E272E081E894E02B
:10255000DF91CF911F910F910C945A0A789484B512
:10256000826084BD84B5816084BD85B5826085BD8F
:1025700085B5816085BD80916E00816080936E001D
:10258000109281008091810082608093810080910F
:1025900081008160809381008091800081608093C0
:1025A00080008091B10084608093B1008091B00080
:1025B00081608093B000809191008260809391004F
:1025C0008091910081608093910080919000816062
:1025D000809390008091A10082608093A1008091FF
:1025E000A10081608093A1008091A0008160809310
:1025F000A0008091210182608093210180912101BE
:10260000816080932101809120018160809320016D
:1026100080917A00846080937A0080917A00826051
:1026200080937A0080917A00816080937A00809113
:102630007A00806880937A001092C100E09139039B
:10264000F0913A0382E08083E0913503F091360304
:102650001082E0913703F09138038FEC8083109261
:102660004103E0913D03F0913E0386E08083E091D9
:102670003B03F0913C03808180618083E0913B03C8
:10268000F0913C03808188608083E0913B03F0916E
:102690003C03808180688083E0913B03F0913C03A0
:1026A00080818F7D80838AE692E00E943C0984E9E4
:1026B00092E00E943C098BEA92E00E943C098CEB7C
:1026C00092E00E943C0981E292E00E943C0960E0B5
:1026D00087E00E94A40361E088E00E94A40360E018
:1026E00088E00E94760361E086E00E94A40366E031
:1026F00070E083E495E00E94E1066AE570E083E41F
:1027000095E00E94650660E08DE00E94A40360E011
:102710008CE00E94A40360E08BE00E94A40361E0CF
:1027200085E00E94A40361E084E00E94A40361E0CC
:1027300083E00E94A40361E082E00E94A40361E0C0
:102740008AE00E94A40361E089E00E94A4038091D2
:102750000D0590910E051816190634F441E06CE051
:1027600090E080E00E94970880910D0590910E0501
:102770001816190634F44FE06AE090E080E00E94F9
:10278000970880910D0590910E051816190624F4EE
:1027900090E080E00E94F50861E082E30E94A403DB
:1027A00061E084E30E94A40361E083E30E94A40348
:1027B00061E085E30E94A40320912F05309130054C
:1027C000032E000C440B550BC12C87E8D82E83E94F
:1027D000E82E83E0F82EC701B6010E94271694E682
:1027E000892E912CA12CB12CCA01B901A50194010B
:1027F0000E94271620932B0530932C0540932D051E
:1028000050932E052091150530911605032E000CCE
:10281000440B550BC701B6010E942716CA01B90126
:10282000A50194010E9427162093110530931205EB
:10283000409313055093140561E083E20E94A403C2
:1028400061E08FE10E94A4030FE010E023E2A22EDA
:10285000B12C80910702882309F475C061E088E0FB
:102860000E947603C8010197F1F760E088E00E94BA
:10287000760387E00E9459096B017C018BE3C8163F
:10288000D104E104F1040CF45EC0D0E0C0E089ECB6
:10289000C816D104E104F1040CF459C00E946D087B
:1028A00061E088E00E947603C5010197F1F760E0DE
:1028B00088E00E94760387E00E945909611571053E
:1028C0008105910551F4219680E00E940C0CC230E4
:1028D000D105E9F60E94B502BCCF6B017C01F4CFB3
:1028E00060E080E00E94AA0B66E970E080E090E082
:1028F0000E94D10484E398E00E9448080E946D0879
:1029000061E070E089E295E00E94F80564E670E01D
:1029100080E090E00E94D10461E070E089E295E0FF
:102920000E94F80564E670E080E090E00E94D10427
:102930000E946D088CEC92E00E943C0981E292E0DA
:102940000E943C09C7CF81E00E940C0CC3CF83EEEC
:1029500092E00E943C0984E398E00E9448080E94AB
:102960006D0861E070E089E295E00E94F80564E698
:1029700070E080E090E00E94D10461E070E089E2C4
:1029800095E00E94F80564E670E080E090E00E9427
:10299000D1040E946D0861E070E089E295E00E9438
:1029A000F80561E070E08FE095E00E94F80564E6CC
:1029B00070E080E090E00E94D10461E070E089E284
:1029C00095E00E94F80561E070E08FE095E00E94DC
:1029D000F80564E670E080E090E00E94D10461E0D8
:1029E00070E089E295E00E94F80561E070E08FE018
:1029F00095E00E94F80564E670E080E090E00E94B7
:102A0000D10461E070E089E295E00E94F80561E0A0
:102A100070E08FE095E00E94F80564E670E080E0E9
:102A200090E00E94D10460E080E00E94AA0B60ED7B
:102A300077E080E090E00E94D10484E398E00E9477
:102A400023080E946D0861E070E08FE095E00E942D
:102A5000F80564E670E080E090E00E94D10461E057
:102A600070E08FE095E00E94F80564E670E080E099
:102A700090E00E94D1040E946D0861E070E089E25C
:102A800095E00E94F80561E070E08FE095E00E941B
:102A9000F80564E670E080E090E00E94D10461E017
:102AA00070E089E295E00E94F80561E070E08FE057
:102AB00095E00E94F80564E670E080E090E00E94F6
:102AC000D10461E070E089E295E00E94F80561E0E0
:102AD00070E08FE095E00E94F80564E670E080E029
:102AE00090E00E94D10461E070E089E295E00E94EC
:102AF000F80561E070E08FE095E00E94F80564E67B
:102B000070E080E090E00E94D10460E080E00E94EC
:102B1000AA0B68ED7EE080E090E00E94D10484E39F
:102B200098E00E9423080E946D0861E070E08FE049
:102B300095E00E94F80564E670E080E090E00E9475
:102B4000D10461E070E08FE095E00E94F80564E652
:102B500070E080E090E00E94D1040E946D0861E086
:102B600070E089E295E00E94F80561E070E08FE096
:102B700095E00E94F80564E670E080E090E00E9435
:102B8000D10461E070E089E295E00E94F80561E01F
:102B900070E08FE095E00E94F80564E670E080E068
:102BA00090E00E94D10461E070E089E295E00E942B
:102BB000F80561E070E08FE095E00E94F80564E6BA
:102BC00070E080E090E00E94D10461E070E089E272
:102BD00095E00E94F80561E070E08FE095E00E94CA
:102BE000F80564E670E080E090E00E94D1048DE09A
:102BF0000E944D03892B09F073CE8CE00E944D0397
:102C0000892B09F06DCE8BE00E944D03892B09F0D2
:102C100067CE60E080E00E94AA0BE9CFCF93DF93FC
:102C2000C7E8D4E02697CE010E946B0A84E0C7353E
:102C3000D807C1F7C7EBD4E02697CE010E946B0AF4
:102C400084E0C738D807C1F7DF91CF910895052EEA
:102C500097FB1EF400940E943E1657FD07D00E9479
:102C6000591607FC03D04EF40C943E16509540952F
:102C7000309521953F4F4F4F5F4F08959095809528
:102C8000709561957F4F8F4F9F4F08950E947B16DF
:102C9000A59F900DB49F900DA49F800D911D1124B0
:102CA0000895B7FF0C9446160E944616821B930B9C
:102CB0000895A1E21A2EAA1BBB1BFD010DC0AA1F7D
:102CC000BB1FEE1FFF1FA217B307E407F50720F095
:102CD000A21BB30BE40BF50B661F771F881F991F10
:102CE0001A9469F760957095809590959B01AC0159
:102CF000BD01CF010895A29FB001B39FC001A39F62
:102D0000700D811D1124911DB29F700D811D112424
:102D1000911D0895991B79E004C0991F961708F03A
:102D2000961B881F7A95C9F78095089597FB072E03
:102D300016F4009407D077FD09D00E94B21607FC64
:102D400005D03EF4909581959F4F089570956195BB
:102D50007F4F0895EE0FFF1F881F8BBF0790F691DE
:102D6000E02D1994AA1BBB1B51E107C0AA1FBB1F72
:102D7000A617B70710F0A61BB70B881F991F5A9507
:102D8000A9F780959095BC01CD0108950F931F93ED
:102D9000CF93DF938230910510F482E090E0E091D0
:102DA0004B05F0914C0530E020E0B0E0A0E030971A
:102DB00099F42115310509F44AC0281B390B243038
:102DC0003105D8F58A819B816115710589F1FB0177
:102DD00093838283FE0111C040815181028113815E
:102DE00048175907E0F04817590799F4109761F010
:102DF00012960C93129713961C933296CF01DF9183
:102E0000CF911F910F91089500934B0510934C059E
:102E1000F4CF2115310551F04217530738F0A901BD
:102E2000DB019A01BD01DF01F801C1CFEF01F9CF4C
:102E300090934C0580934B05CDCFFE01E20FF31F1D
:102E4000819391932250310939832883D7CF2091E0
:102E5000490530914A05232B41F420910A02309113
:102E60000B0230934A0520934905209108023091C6
:102E700009022115310541F42DB73EB740910C02EE
:102E800050910D02241B350BE0914905F0914A0544
:102E9000E217F307A0F42E1B3F0B2817390778F031
:102EA000AC014E5F5F4F2417350748F04E0F5F1F90
:102EB00050934A0540934905819391939FCFF0E049
:102EC000E0E09CCFCF93DF930097E9F0FC013297CD
:102ED00013821282A0914B05B0914C05ED0130E0B8
:102EE00020E01097A1F420813181820F931F20915F
:102EF000490530914A052817390709F061C0F09358
:102F00004A05E0934905DF91CF910895EA01CE1774
:102F1000DF07E8F54A815B819E0141155105B1F754
:102F2000E901FB83EA8349915991C40FD51FEC173E
:102F3000FD0761F4808191810296840F951FE9015C
:102F400099838883828193819B838A83F0E0E0E088
:102F500012968D919C9113970097B9F52D913C9104
:102F60001197CD010296820F931F20914905309150
:102F70004A052817390739F6309751F510924C0554
:102F800010924B05B0934A05A0934905BCCFD3835B
:102F9000C28340815181840F951FC817D90761F4FE
:102FA0004E5F5F4F88819981480F591F518340833D
:102FB0008A819B81938382832115310509F0B0CFEB
:102FC000F0934C05E0934B059ECFFD01DC01C0CF93
:102FD00013821282D7CF4F925F926F927F928F921D
:102FE0009F92AF92BF92CF92DF92EF92FF920F9398
:102FF0001F93CF93DF938C01009799F4CB01DF915E
:10300000CF911F910F91FF90EF90DF90CF90BF90E5
:10301000AF909F908F907F906F905F904F900C94A7
:10302000C616FC01E60FF71F9C0122503109E2177A
:10303000F30708F4AEC0D901CD91DC911197C61702
:10304000D70720F1C530D10578F0CE010497861757
:10305000970750F0C61BD70B2297C193D1936D935E
:103060007C93CF010E946217C801DF91CF911F911D
:103070000F91FF90EF90DF90CF90BF90AF909F9017
:103080008F907F906F905F904F9008955B01AC1A86
:10309000BD0A4C018C0E9D1EA0914B05B0914C05B4
:1030A000512C412CF12CE12C109731F580914905E0
:1030B00090914A058815990509F05CC04616570697
:1030C00008F058C08091080290910902009741F4DD
:1030D0008DB79EB740910C0250910D02841B950B49
:1030E000E817F90708F055C0F0934A05E093490541
:1030F000F90171836083B8CF8D919C9111971296DD
:103100006C90129713967C901397A815B90559F5F2
:103110006C0142E0C40ED11CCA14DB0420F1AC01E6
:103120004A195B09DA011296159780F06282738260
:1031300051834083D9016D937C93E114F10471F0C4
:10314000D7011396FC93EE9312978ECF22968C0F95
:103150009D1FF90191838083F301EFCFF0934C051C
:10316000E0934B0581CF4816590608F42C017D01E8
:10317000D3019ACFCB010E94C6167C01009749F07B
:10318000AE01B8010E94CC18C8010E9462178701E5
:103190006BCF10E000E068CFFB01DC0102C00190C2
:1031A0000D9241505040D8F70895FB01DC01019089
:1031B0000D920020E1F7089511E0CDE6D1E000E0A6
:1031C00006C0802FFE010E94AA162196011DCE3650
:1031D000D10780E00807A9F7F894FFCF02000600A6
:1031E0000101010100004D058000000000004802BF
:1031F000B201DF0195021002EE0102020D0A003059
:1032000030303030303030000A4F2042204A2045E4
:103210002054204F0A000A41202042204120522001
:10322000522045205221002D202D202D202D202DF3
:10323000004C2049204D2050204920452043204962
:103240002054204F21003E3E20554E4956455253B2
:10325000494441442044452053414E204341524C6F
:103260004F532044452047554154454D414C410062
:103270003E3E2049204E20472045204E20492045F3
:10328000205220492041003E3E2041205220512022
:1032900055204920202031003E3E20472052205515
:1032A0002050204F2020330045205320512055200E
:1032B0004920562041204420492054204F21000A13
:1032C00045205320512055204920562041204E2092
:1032D00044204F2020204F204220532054204120C2
:0832E000432055204C4F000073
:10E000000D9489F10D94B2F10D94B2F10D94B2F129
:10E010000D94B2F10D94B2F10D94B2F10D94B2F1F0
:10E020000D94B2F10D94B2F10D94B2F10D94B2F1E0
:10E030000D94B2F10D94B2F10D94B2F10D94B2F1D0
:10E040000D94B2F10D94B2F10D94B2F10D94B2F1C0
:10E050000D94B2F10D94B2F10D94B2F10D94B2F1B0
:10E060000D94B2F10D94B2F10D94B2F10D94B2F1A0
:10E070000D94B2F10D94B2F10D94B2F10D94B2F190
:10E080000D94B2F10D94B2F10D94B2F10D94B2F180
:10E090000D94B2F10D94B2F10D94B2F10D94B2F170
:10E0A0000D94B2F10D94B2F10D94B2F10D94B2F160
:10E0B0000D94B2F10D94B2F10D94B2F10D94B2F150
:10E0C0000D94B2F10D94B2F10D94B2F10D94B2F140
:10E0D0000D94B2F10D94B2F10D94B2F10D94B2F130
:10E0E0000D94B2F141546D656761323536300041AF
:10E0F000726475696E6F206578706C6F72657220DE
:10E1000073746B3530305632206279204D4C530099
:10E11000426F6F746C6F616465723E004875683F52
:10E1200000436F6D70696C6564206F6E203D200048
:10E130004350552054797065202020203D20005FF9
:10E140005F4156525F415243485F5F3D2000415658
:10E1500052204C696243205665723D20004743437C
:10E160002056657273696F6E203D20004350552024
:10E1700049442020202020203D20004C6F7720663D
:10E18000757365202020203D20004869676820665F
:10E190007573652020203D200045787420667573D6
:10E1A00065202020203D20004C6F636B2066757336
:10E1B000652020203D20004D617220203720323024
:10E1C000313300312E362E3800342E332E350056A2
:10E1D00023202020414444522020206F7020636F70
:10E1E00064652020202020696E73747275637469E1
:10E1F0006F6E2061646472202020496E74657272B3
:10E20000757074006E6F20766563746F7200726A49
:10E210006D702020006A6D70200057686174207056
:10E220006F72743A00506F7274206E6F7420737541
:10E2300070706F72746564004D7573742062652030
:10E2400061206C6574746572002000577269747483
:10E25000696E672045450052656164696E672045B7
:10E26000450045452065727220636E743D00504F35
:10E27000525400303D5A65726F2061646472003FF1
:10E280003D43505520737461747300403D454550C3
:10E29000524F4D207465737400423D426C696E6B41
:10E2A000204C454400453D44756D70204545505215
:10E2B0004F4D00463D44756D7020464C415348001B
:10E2C000483D48656C70004C3D4C69737420492F83
:10E2D0004F20506F72747300513D51756974005234
:10E2E0003D44756D702052414D00563D73686F7707
:10E2F00020696E7465727275707420566563746FF0
:10E30000727300593D506F727420626C696E6B00BD
:10E310002A0011241FBECFEFD1E2DEBFCDBF01E046
:10E320000CBF12E0A0E0B2E0EEE1FDEF03E00BBFB6
:10E3300002C007900D92A030B107D9F712E0A0E01B
:10E34000B2E001C01D92AE30B107E1F70F9460F367
:10E350000D948DFE01E20EBF0FEF0DBF11241FBE05
:10E360000D9460F30D9400F020E030E040ED57E0B4
:10E3700005C0FA013197F1F72F5F3F4F2817390792
:10E38000C0F308959C01260F311DC901A0E0B0E043
:10E390002F5F3F4FABBFFC018791882361F08093D3
:10E3A000C6008091C00086FFFCCF8091C0008064D1
:10E3B0008093C000EACF08958DE08093C6008091DD
:10E3C000C00086FFFCCF8091C00080648093C000B5
:10E3D0008AE08093C6008091C00086FFFCCF8091C8
:10E3E000C00080648093C00008950F94C2F10F9420
:10E3F000DCF10895FC019081992359F09093C600B7
:10E400008091C00086FFFCCF8091C0008064809323
:10E41000C0003196992379F70895282F982F929567
:10E420009F70892F805D8A3308F0895F8093C600D2
:10E430008091C00086FFFCCF8091C00080648093F3
:10E44000C000822F8F70982F905D9A3308F0995FEB
:10E450009093C6008091C00086FFFCCF8091C000E1
:10E4600080648093C00008959C01FB01853691056E
:10E470001CF46330710594F0C90164E670E00F94F8
:10E480002EFE605D7F4F6093C6008091C00086FFC6
:10E49000FCCF8091C00080648093C0002B30310598
:10E4A00014F43297B4F0C90164E670E00F942EFEC4
:10E4B0006AE070E00F942EFE605D7F4F6093C600AF
:10E4C0008091C00086FFFCCF8091C0008064809363
:10E4D000C000C9016AE070E00F942EFEC0968093E0
:10E4E000C6008091C00086FFFCCF8091C000806490
:10E4F0008093C00008951F93182F8EE692EE60E07F
:10E500000F94C2F11093C6008091C00086FFFCCF2B
:10E510008091C00080648093C0000F94DCF11F9153
:10E5200008952F923F924F925F926F927F928F92B7
:10E530009F92AF92BF92CF92DF92EF92FF920F9392
:10E540001F93DF93CF93CDB7DEB762970FB6F894E2
:10E55000DEBF0FBECDBF382E622ECA01DB015C01CB
:10E560006D01772420E2222E2E010894411C511CBB
:10E570008BC081E0A81680E0B80681E0C80680E084
:10E58000D80628F0C601AA27BB270F940DF2BB2797
:10E59000AD2D9C2D8B2D0F940DF28A2D0F940DF225
:10E5A0002092C6008091C00086FFFCCF8091C00001
:10E5B00080648093C0009DE29093C6008091C0006B
:10E5C00086FFFCCF8091C00080648093C0002092C1
:10E5D000C6008091C00086FFFCCF8091C00080649F
:10E5E0008093C00019828601750188249924A1E0D6
:10E5F0003A1651F03A1620F0B2E03B1661F409C029
:10E600000BBFF701779007C0C7010F9477FE782EF4
:10E6100002C0F7017080872D0F940DF22092C60082
:10E620008091C00086FFFCCF8091C0008064809301
:10E63000C000872D8052F401EF70F0708F3520F408
:10E64000E40DF51D708204C0E40DF51D8EE280839B
:10E650000894E11CF11C011D111D0894811C911CE2
:10E6600090E18916910409F0C2CF80E190E0A0E02A
:10E67000B0E0A80EB91ECA1EDB1E198AC2010F9493
:10E68000FAF10F94DCF16A94662009F072CF629679
:10E690000FB6F894DEBF0FBECDBFCF91DF911F91B3
:10E6A0000F91FF90EF90DF90CF90BF90AF909F9031
:10E6B0008F907F906F905F904F903F902F90089534
:10E6C0002F923F924F925F926F927F928F929F9282
:10E6D000AF92BF92CF92DF92EF92FF920F931F9370
:10E6E000DF93CF93CDB7DEB7CD53D1400FB6F894BB
:10E6F000DEBF0FBECDBF01E20EBF0FEF0DBF94B75F
:10E70000F894A89514BE80916000886180936000A1
:10E7100010926000789493FF05C0E0910002F091A0
:10E7200001021995279A2F9A8091C00082608093E8
:10E73000C00080E18093C40088E18093C1000000A4
:10E74000EE24FF24870144E0A42EB12CCC24DD2448
:10E7500024C0C5010197F1F70894E11CF11C011DCB
:10E76000111D21E2E2162EE4F20620E0020720E06D
:10E77000120718F031E0C32ED12CC801B70127ECE5
:10E780003BE140E050E00F9441FE611571058105C9
:10E79000910519F485B1805885B98091C00087FD35
:10E7A00003C0C114D104A9F2A6014F5F5F4FC25E3E
:10E7B000DE4F59834883CE51D140C25EDE4F8881FF
:10E7C0009981CE51D140019711F00D9410FEC05D9A
:10E7D000DE4F19821882C053D14060E0C15DDE4F28
:10E7E0001882CF52D14088249924C35DDE4F19820C
:10E7F0001882CD52D140C05EDE4F188219821A8233
:10E800001B82C052D140CE5CDE4F188219821A8220
:10E810001B82C253D140EE24FF2487010BBFF701B6
:10E8200007911691C45CDE4F19830883CC53D14005
:10E830000D940BFEC25EDE4F28813981CE51D1404E
:10E840002130310509F52091C600C25EDE4F1982E4
:10E850001882CE51D14022C02F5F3F4F4F4F5F4FA4
:10E86000213082E138078AE7480780E0580780F0C6
:10E87000C45CDE4FE881F981CC53D140EF5FFF4F9C
:10E8800019F0EE27FF27099420E030E040E050E047
:10E890008091C00087FFE0CF2091C600C35DDE4FAE
:10E8A00048815981CD52D1404F5F5F4FC35DDE4FEC
:10E8B00059834883CD52D140213209F063C64A3092
:10E8C000510508F05FC60894811C911C53E0851621
:10E8D000910409F059C600E010E018C081E280936D
:10E8E000C6008091C00086FFFCCF8091C00080648C
:10E8F0008093C0002F5F3F4F2931310579F70F9486
:10E90000DCF10F5F1F4F0530110519F020E030E0FA
:10E91000E5CF10920A0210920B0210920C02109294
:10E920000D02109206021092070210920802109235
:10E930000902109202021092030210920402109235
:10E9400005028FEE90EE60E00F94F5F180E191EE1C
:10E9500060E00F94C2F18091C00087FFFCCF9091DE
:10E96000C600903608F09F759032B8F09093C600BC
:10E970008091C00086FFFCCF8091C00080648093AE
:10E98000C000A0E2A093C6008091C00086FFFCCF2B
:10E990008091C00080648093C000983409F4D7C18E
:10E9A0009934B8F4923409F459C1933458F490333B
:10E9B00019F1903308F4E3C59F33A1F1903409F0C5
:10E9C000DEC5BDC0953409F470C1963409F0D7C5D1
:10E9D00098C1923509F42BC2933538F49C3409F46C
:10E9E000F5C1913509F0CBC518C2963509F445C279
:10E9F000993509F0C4C567C483E792EE62E00F94CD
:10EA0000F5F110920602109207021092080210927D
:10EA1000090210920A0210920B0210920C0210923C
:10EA20000D0213C18FE792EE62E00F94F5F18FEEC5
:10EA300090EE60E00F94F5F181E291EE60E00F94CA
:10EA4000C2F187EB91EE60E00F94F5F180E391EE77
:10EA500060E00F94C2F184EE90EE60E00F94F5F167
:10EA60008FE391EE60E00F94C2F186E090E061E008
:10EA700070E00F9434F20F94DCF18DE591EE60E0DC
:10EA80000F94C2F189EC91EE60E00F94F5F18EE401
:10EA900091EE60E00F94C2F183EC91EE60E00F9490
:10EAA000F5F18CE691EE60E00F94C2F18EE10F94E7
:10EAB0000DF288E90F940DF281E00F940DF20F949E
:10EAC000DCF18BE791EE60E00F94C2F119E0E0E039
:10EAD000F0E010935700E4918E2F0F940DF20F94F5
:10EAE000DCF18AE891EE60E00F94C2F1E3E0F0E03F
:10EAF00010935700E4918E2F0F940DF20F94DCF1D8
:10EB000089E991EE60E00F94C2F1E2E0F0E0109349
:10EB10005700E4918E2F0F940DF20F94DCF188EAE8
:10EB200091EE60E00F94C2F1E1E0F0E01093570045
:10EB30001491812F0F940DF20F94DCF107CF8BE825
:10EB400092EE62E00F94F5F18BE492EE60E00F94A8
:10EB5000F5F10F94DCF100E010E019C0C8016F2D51
:10EB60000F947FFEFF2031F489E492EE60E00F9471
:10EB7000C2F10BC0F092C6008091C00086FFFCCFAE
:10EB80008091C00080648093C0000F5F1F4FC80158
:10EB900081519F41A0E0B0E0ABBFFC01F790BAE229
:10EBA000FB1621F0E2E000301E07C1F60F94DCF105
:10EBB0000F94DCF187E592EE60E00F94F5F10F948D
:10EBC000DCF1CC24DD2400E010E01EC0C8010F946D
:10EBD00077FEF82E882331F489E492EE60E00F94FA
:10EBE000C2F10BC08093C6008091C00086FFFCCFAD
:10EBF0008091C00080648093C000FE1419F00894D6
:10EC0000C11CD11C0F5F1F4FC80181519F41A0E063
:10EC1000B0E0ABBFFC01E790FAE2EF1621F022E092
:10EC20000030120799F60F94DCF10F94DCF182E6C4
:10EC300092EE60E00F94C2F1C60161E070E00F94C3
:10EC400034F20F94DCF10F94DCF110920202109276
:10EC50000302109204021092050278CE89E992EE26
:10EC600062E00F94F5F1279A2F9A16C02F9880E052
:10EC700090E0E0EDF7E03197F1F7019684369105E9
:10EC8000C1F72F9A80E090E0E0EDF7E03197F1F7DF
:10EC9000019684369105C1F78091C00087FFE6CFC9
:10ECA0008091C00087FFFCCF64C485EA92EE62E0E9
:10ECB0000F94F5F140910202509103026091040219
:10ECC0007091050281E020E10F9491F2809102029F
:10ECD00090910302A0910402B091050280509F4FD1
:10ECE000AF4FBF4F8093020290930302A0930402A0
:10ECF000B093050280509041A040B04008F426CE69
:10ED0000A4CF83EB92EE62E00F94F5F140910602FE
:10ED100050910702609108027091090280E020E1A1
:10ED20000F9491F28091060290910702A09108023F
:10ED3000B091090280509F4FAF4FBF4F80930602A2
:10ED400090930702A0930802B0930902FFCD80ECD4
:10ED500092EE62E00F94F5F183E792EE60E00F949B
:10ED6000F5F18FE792EE60E00F94F5F18BE892EE0B
:10ED700060E00F94F5F189E992EE60E00F94F5F10F
:10ED800085EA92EE60E00F94F5F183EB92EE60E09D
:10ED90000F94F5F180EC92EE60E00F94F5F187ECC2
:10EDA00092EE60E00F94F5F188ED92EE60E00F9442
:10EDB000F5F18FED92EE60E00F94F5F18AEE92EEB0
:10EDC00060E00F94F5F183E093EEBDCD87EC92EE19
:10EDD00062E00F94F5F181E40F947BF282E40F94EA
:10EDE0007BF283E40F947BF284E40F947BF285E45E
:10EDF0000F947BF286E40F947BF287E40F947BF20E
:10EE000088E40F947BF28AE40F947BF28BE40F94F6
:10EE10007BF28CE40F947BF299CD88ED92EE62E068
:10EE20000F94F5F1772473948824992409C48FED05
:10EE300092EE62E00F94F5F140910A0250910B02BC
:10EE400060910C0270910D0282E020E10F9491F22A
:10EE500080910A0290910B02A0910C02B0910D02D8
:10EE600080509F4FAF4FBF4F80930A0290930B0289
:10EE7000A0930C02B0930D0269CD8AEE92EE62E08F
:10EE80000F94F5F184EE90EE60E00F94F5F18FECC5
:10EE900091EE60E00F94F5F1662477244301CC5D98
:10EEA000DE4F19821882C452D140D401C301B695F5
:10EEB000A79597958795CA5DDE4F88839983AA8326
:10EEC000BB83C652D140CC5DDE4FA881B981C4520C
:10EED000D1401196CC5DDE4FB983A883C452D14096
:10EEE000CD0162E070E00F9434F2B0E2B093C6005E
:10EEF0008091C00086FFFCCF8091C0008064809329
:10EF0000C000EDE2E093C6008091C00086FFFCCF18
:10EF10008091C00080648093C000F0E2F093C6004E
:10EF20008091C00086FFFCCF8091C00080648093F8
:10EF3000C000CA5DDE4FE880F9800A811B81C6529D
:10EF4000D140BB27A12F902F8F2D0F940DF2CA5DBA
:10EF5000DE4F8881C652D1400F940DF2B0E2FB2EF5
:10EF6000F092C6008091C00086FFFCCF8091C00067
:10EF700080648093C0000DE30093C6008091C000C0
:10EF800086FFFCCF8091C00080648093C00010E2B7
:10EF90001093C6008091C00086FFFCCF8091C00016
:10EFA00080648093C0008BBEF3012791C65DDE4F65
:10EFB0002883CA52D140A22EBB24CC24DD2408943D
:10EFC000611C711C811C911C8BBEF3018791282E42
:10EFD0003324442455240894611C711C811C911C09
:10EFE0008BBEF3013791C55DDE4F3883CB52D140E4
:10EFF0000894611C711C811C911C8BBEF30147910C
:10F00000C45DDE4F4883CC52D140ADEFEA2EAFEF66
:10F01000FA2EAFEF0A2FAFEF1A2F6E0C7F1C801E57
:10F02000911E142D032DF22CEE24EA0CFB1C0C1D5A
:10F030001D1D0F940DF220E22093C6008091C000A8
:10F0400086FFFCCF8091C00080648093C000C65DC5
:10F05000DE4F8881CA52D1400F940DF230E23093D6
:10F06000C6008091C00086FFFCCF8091C000806404
:10F070008093C000C45DDE4F8881CC52D1400F9494
:10F080000DF240E24093C6008091C00086FFFCCFA5
:10F090008091C00080648093C000C55DDE4F888190
:10F0A000CB52D1400F940DF250E25093C6008091A4
:10F0B000C00086FFFCCF8091C00080648093C000B8
:10F0C0008FEFE8168FEFF80680E0080780E018075A
:10F0D00031F484E092EE60E00F94C2F1DFC0D80119
:10F0E000C7018070907CA070B0708050904CA040A0
:10F0F000B040D1F52FEF3FE340E050E0E222F322B1
:10F1000004231523CA5DDE4FA880B980CA80DB8046
:10F11000C652D140AE0CBF1CC01ED11EAA0CBB1CD7
:10F12000CC1CDD1C8EE092EE60E00F94C2F1BB2798
:10F13000A12F902F8F2D0F940DF28E2D0F940DF285
:10F1400030E23093C6008091C00086FFFCCF8091F2
:10F15000C00080648093C0004EE34093C60080915D
:10F16000C00086FFFCCF87C08EE09EEFA0E0B0E03D
:10F17000E822F9220A231B239CE0E91694E9F90608
:10F1800090E0090790E0190709F088C0C45DDE4FE0
:10F19000A881CC52D140EA2EFF2400E010E0102FCD
:10F1A0000F2DFE2CEE24C55DDE4FB881CB52D14031
:10F1B000EB0EF11C011D111DD601C501817090706F
:10F1C000A070B070DC0199278827E80EF91E0A1F8D
:10F1D0001B1F20EF30E040E050E0A222B322C42207
:10F1E000D52241E1AA0CBB1CCC1CDD1C4A95D1F7F1
:10F1F000EA0CFB1C0C1D1D1D81E090E0A0E0B0E0BE
:10F20000282239224A225B2235E1220C331C441C7D
:10F21000551C3A95D1F7E20CF31C041D151D57013E
:10F220006801AA0CBB1CCC1CDD1C85E192EE60E0E1
:10F230000F94C2F1C801AA27BB270F940DF2BB2778
:10F24000A12F902F8F2D0F940DF28E2D0F940DF274
:10F2500090E29093C6008091C00086FFFCCF809121
:10F26000C00080648093C000AEE3A093C60080918C
:10F27000C00086FFFCCF8091C00080648093C000F6
:10F28000C601AA27BB270F940DF2BB27AD2D9C2DDD
:10F290008B2D0F940DF28A2D0F940DF20F94DCF14B
:10F2A000CC5DDE4FE881F981C452D140F99709F471
:10F2B0004DCBF4E0EF2EF12C012D112D6E0C7F1CA7
:10F2C000801E911EF2CD83E093EE62E00F94F5F183
:10F2D0008AE192EE60E00F94C2F18091C00087FF56
:10F2E000FCCF1091C6001F751093C6008091C0001E
:10F2F00086FFFCCF8091C00080648093C0000F9493
:10F30000DCF1812F81548A3108F036C1163409F4BA
:10F3100095C0173490F4133409F44EC0143430F40B
:10F320001134F1F0123409F01DC130C0143409F465
:10F3300059C0153409F016C16BC01A3409F4C4C0A1
:10F340001B3438F4173409F48FC0183409F00AC19B
:10F35000A1C01B3409F4D2C01C3409F003C1E8C0B9
:10F360008FEF81B90DC082B1809582B980E090E0C5
:10F37000E0EDF7E03197F1F70196883C9105C1F790
:10F380008091C00087FFEFCF12B8EFC08FEF84B934
:10F390000DC085B1809585B980E090E0E0EDF7E0A3
:10F3A0003197F1F70196883C9105C1F78091C00033
:10F3B00087FFEFCF15B8D9C08FEF87B90DC088B1DF
:10F3C000809588B980E090E0E0EDF7E03197F1F7C3
:10F3D0000196883C9105C1F78091C00087FFEFCF6F
:10F3E00018B8C3C08FEF8AB90DC08BB180958BB9A7
:10F3F00080E090E0E0EDF7E03197F1F70196883C8E
:10F400009105C1F78091C00087FFEFCF1BB8ADC059
:10F410008FEF8DB90DC08EB180958EB980E090E0F0
:10F42000E0EDF7E03197F1F70196883C9105C1F7DF
:10F430008091C00087FFEFCF1EB897C08FEF80BBD1
:10F440000DC081B3809581BB80E090E0E0EDF7E0F6
:10F450003197F1F70196883C9105C1F78091C00082
:10F4600087FFEFCF11BA81C08FEF83BB0DC084B38C
:10F47000809584BB80E090E0E0EDF7E03197F1F714
:10F480000196883C9105C1F78091C00087FFEFCFBE
:10F4900014BA6BC08FEF809301010FC080910201FD
:10F4A00080958093020180E090E0E0EDF7E03197F5
:10F4B000F1F70196883C9105C1F78091C00087FF64
:10F4C000EDCF1092020151C08FEF809304010FC065
:10F4D0008091050180958093050180E090E0E0ED4A
:10F4E000F7E03197F1F70196883C9105C1F78091DB
:10F4F000C00087FFEDCF1092050137C08FEF8093DA
:10F5000007010FC08091080180958093080180E079
:10F5100090E0E0EDF7E03197F1F70196883C910536
:10F52000C1F78091C00087FFEDCF109208011DC088
:10F530008FEF80930A010FC080910B01809580931B
:10F540000B0180E090E0E0EDF7E03197F1F70196F4
:10F55000883C9105C1F78091C00087FFEDCF1092E4
:10F560000B0103C085E292EEEEC98091C00087FFD7
:10F57000FCCF8091C600EAC988E392EEE4C98CE131
:10F5800091EEE1C988249924933011F1943028F444
:10F59000913089F09230B8F408C0953061F195301F
:10F5A000F0F0963009F048C043C02B3109F042C951
:10F5B00091E06BE13FC96227C15DDE4F2883CF52E6
:10F5C000D14092E037C9B22FA0E0622793E032C960
:10F5D000822F90E0A82BB92B622794E02BC92E3004
:10F5E00009F039C3622795E0C05DDE4F19821882A9
:10F5F000C053D1401FC9E1E0F0E0EC0FFD1FC05D3A
:10F60000DE4F08811981C053D140E00FF11F2083E4
:10F610000F5F1F4FC05DDE4F19830883C053D14079
:10F6200062270A171B0709F005C9D80196E002C92D
:10F63000261709F010C303C0973009F0FBC87724E0
:10F640009981933109F412C19431C8F4963009F4C8
:10F65000D8C0973050F4923009F406C1933009F4C1
:10F660006DC0913009F059C253C0913109F477C08F
:10F67000923108F0BBC0903109F04FC2F5C098310B
:10F6800009F487C0993150F4953109F4EFC09531F0
:10F6900008F4C6C1963109F040C2C2C19A3109F4DA
:10F6A0006CC09A3108F491C09B3109F45BC09D3164
:10F6B00009F033C29D81903359F48F81882311F46E
:10F6C0009EE11CC0813011F091E018C098E916C08D
:10F6D000892F807591F0903539F4E0E0F0E089E011
:10F6E0008093570094910AC0983539F4E3E0F0E034
:10F6F00089E080935700949101C090E01A821B82A8
:10F700008D818C831D829E831F8227E030E009C299
:10F710001A8288E08B8381E48C8386E58D8382E581
:10F720008E8389E48F8383E5888780E589878FE5E9
:10F730008A8782E38B872BE030E0F3C18A818139AD
:10F7400041F0823941F0803911F48FE005C080E04A
:10F7500003C082E001C08AE01A828B8344C0772410
:10F76000739482C08D81882311F48EE12CC0813086
:10F7700011F081E028C088E926C01A82E1E0F0E0BB
:10F7800089E08093570084918B831C8224E030E0D1
:10F79000C8C18B81803589F48C81883039F4E2E0EE
:10F7A000F0E089E08093570084910DC0E0E0F0E044
:10F7B00089E080935700849106C0E3E0F0E089E09F
:10F7C0008093570084911A82DFCF8D81836C99E0FA
:10F7D000E1E0F0E0082E90935700E89507B600FCB2
:10F7E000FDCF1A821B8223E030E09BC180EC8A832C
:10F7F000CE5CDE4F188219821A821B82C253D1401E
:10F800008EC18A8190E0A0E0B0E0582F44273327D2
:10F8100022278B8190E0A0E0B0E0DC0199278827C7
:10F82000282B392B4A2B5B2B8D8190E0A0E0B0E098
:10F83000282B392B4A2B5B2B8C8190E0A0E0B0E089
:10F84000BA2FA92F982F8827282B392B4A2B5B2BCF
:10F85000220F331F441F551FC05EDE4F288339839C
:10F860004A835B83C052D1401A8259C13A81C95C34
:10F87000DE4F3883C753D140CA5CDE4F1882C6536F
:10F88000D1408B81C82EDD24CA5CDE4F488159816E
:10F89000C653D140C42AD52A933109F082C0CE5C28
:10F8A000DE4F88819981AA81BB81C253D1408050AB
:10F8B000904CA340B04030F583E0CE5CDE4FE88052
:10F8C000F9800A811B81C253D140F70100935B008C
:10F8D00080935700E89507B600FCFDCFCE5CDE4F65
:10F8E000088119812A813B81C253D14000501F4FAA
:10F8F0002F4F3F4FCE5CDE4F088319832A833B8313
:10F90000C253D140C05EDE4F488159816A817B81FC
:10F91000C052D140DE011B9631E08C9111962C91A2
:10F9200011971296C75CDE4F2883C953D140C85C3B
:10F93000DE4F1882C853D14090E0C85CDE4FE881AA
:10F94000F981C853D1408E2B9F2B0C01FA01609393
:10F950005B0030935700E89511244E5F5F4F6F4F67
:10F960007F4F0EEFE02E0FEFF02ECE0CDF1CC114F8
:10F97000D10499F685E0C05EDE4F088119812A81A5
:10F980003B81C052D140F80120935B008093570027
:10F99000E89507B600FCFDCF81E180935700E8951C
:10F9A00035C0C05EDE4F88819981AA81BB81C0527B
:10F9B000D140B695A795979587957C018601ABE0D8
:10F9C000AA2EB12CAC0EBD1E0BC0D5016D915D01F0
:10F9D000C7010F947FFE0894E11CF11C01501040F8
:10F9E0000115110591F7A60160E070E0440F551F65
:10F9F000661F771FC05EDE4FE880F9800A811B8199
:10FA0000C052D1404E0D5F1D601F711F1A82C05E33
:10FA1000DE4F488359836A837B83C052D1407FC0C5
:10FA2000FA80C55CDE4FF882CB53D140C65CDE4F16
:10FA30001882CA53D1408B81C82EDD24C65CDE4FAC
:10FA400008811981CA53D140C02AD12A1A828981DA
:10FA5000BE016D5F7F4F843121F59601C05EDE4FA0
:10FA6000E880F9800A811B81C052D1400BBFF701A9
:10FA700087919691DB018C9311969C936E5F7F4FDB
:10FA8000D801C7010296A11DB11DC05EDE4F88835B
:10FA90009983AA83BB83C052D14022503040F1F6F3
:10FAA00036C0C05EDE4F288139814A815B81C052F9
:10FAB000D1400894C108D108760100E010E0089414
:10FAC000C11CD11C0894E11CF11C011D111DE20E8A
:10FAD000F31E041F151F21BDBB27A52F942F832FB5
:10FAE00082BD2F5F3F4F4F4F5F4FF89A80B5DB01CC
:10FAF0008D93BD012E153F054007510761F7C05E8C
:10FB0000DE4F288339834A835B83C052D1409601FC
:10FB10002D5F3F4FFB01108204C080EC8A8322E0FE
:10FB200030E08BE18093C6008091C00086FFFCCF5F
:10FB30008091C00080648093C000C15DDE4FF88179
:10FB4000CF52D140F093C6008091C00086FFFCCF19
:10FB50008091C00080648093C000432F3093C60022
:10FB60008091C00086FFFCCF8091C00080648093AC
:10FB7000C000922F2093C6008091C00086FFFCCF6A
:10FB80008091C00080648093C0008EE08093C600A6
:10FB90008091C00086FFFCCF8091C000806480937C
:10FBA000C00065E1C15DDE4FE880CF52D1406E25D7
:10FBB00069276427FE01319610C090819093C6009A
:10FBC0008091C00086FFFCCF31968091C000806498
:10FBD0008093C0006927215030402115310569F715
:10FBE0006093C6008091C00086FFFCCF8091C0006A
:10FBF00080648093C00085B1805885B9772081F4F6
:10FC0000C15DDE4F0881CF52D1400F5FC15DDE4F35
:10FC10000883CF52D14090E0A0E0B0E00D941AF4F8
:10FC200027982F9880E090E020ED37E0F901319798
:10FC3000F1F7019684369105C9F700008091C00064
:10FC40008D7F8093C00081E180935700E895EE2777
:10FC5000FF270994FFCF90E00D941AF497FB092E2B
:10FC600007260AD077FD04D02ED006D000201AF443
:10FC7000709561957F4F0895F6F7909581959F4F08
:10FC80000895A1E21A2EAA1BBB1BFD010DC0AA1FDD
:10FC9000BB1FEE1FFF1FA217B307E407F50720F0F5
:10FCA000A21BB30BE40BF50B661F771F881F991F70
:10FCB0001A9469F760957095809590959B01AC01B9
:10FCC000BD01CF010895AA1BBB1B51E107C0AA1FAC
:10FCD000BB1FA617B70710F0A61BB70B881F991FED
:10FCE0005A95A9F780959095BC01CD010895F99991
:10FCF000FECF92BD81BDF89A992780B50895262F31
:10FD0000F999FECF1FBA92BD81BD20BD0FB6F89400
:0EFD1000FA9AF99A0FBE01960895F894FFCF63
:00000001FF
