:020000040000FA
:100000000C9460010C9491010C9491010C94910159
:100010000C9491010C9491010C9491010C94910118
:100020000C9491010C9491010C9491010C94910108
:100030000C9491010C9491010C9491010C949101F8
:100040000C9491010C945A0A0C9491010C94910116
:100050000C9491010C9491010C9491010C948609DB
:100060000C9491010C9491010C9491010C949101C8
:100070000C9491010C9491010C9491010C949101B8
:100080000C942C0A0C9491010C9491010C94910104
:100090000C9491010C9491010C9491010C94910198
:1000A0000C9491010C9491010C94FE090C94910113
:1000B0000C9491010C9491010C9491010C94D00931
:1000C0000C9491010C9491010C9491010C94910168
:1000D0000C9491010C9491010C9491010C94910158
:1000E0000C9491010C942C030C94D6010C94E8010F
:1000F0000C944E040C94D1020C94B1010C94C601E2
:100100000C94E4010C9480040C94A60D0C94C2028F
:100110000C94D0010C94DB020C9498040C94C30151
:100120000C9413030C94DE010C9436030C945403CA
:100130000C9478040C94DA010C94ED020C942203D4
:100140000C944A030C9440030C947A040C943604E7
:100150000C94F5020C94CC010C94130F0C94BA027D
:100160000C94C7020C94F1010C9440040C948A0482
:100170000C94BF010C94B7010C94BB010C94F601D4
:100180000C94EC010C9409030C94FF020C94E5020E
:100190000C94F2010C9460040C949E040000210065
:1001A000240027002A002D00300033000101000048
:1001B000040107010A0100002200250028002B008D
:1001C0002E003100340002010000050108010B017E
:1001D000000020002300260029002C002F00320000
:1001E00000010000030106010901050505050705D9
:1001F00008080808020202020A0A080804040404A3
:1002000001010101010101010303030303030303CE
:10021000040707070C0C0C0C0C0C0C0C020202025D
:1002200006060606060606060B0B0B0B0B0B0B0B46
:1002300001021020200808102040102040800201F8
:1002400002010804020101020408102040808040DD
:1002500020100804020180040201804020100804DC
:10026000020108040201010204081020408001027A
:1002700004081020408000000A0B02090C0D0E0833
:10028000070304010000000000000000000000005F
:10029000000000000000000000000000000000005E
:1002A000000012111000000000000000000000001B
:1002B000000000000000000000000000A60D130F69
:1002C00011241FBECFEFD1E2DEBFCDBF00E00CBFD7
:1002D00012E0A0E0B2E0E2ECF3E200E00BBF02C00B
:1002E00007900D92A831B107D9F723E0A8E1B2E059
:1002F00001C01D92A538B207E1F711E0CFE5D1E0CA
:1003000000E006C021970109802FFE010E949D0F89
:10031000CE35D10780E00807A9F70E94880A0C941F
:10032000CF110C9400008150823108F05AC0E82FA0
:10033000F0E08827E156FE4F8F4F0C949D0FBF01D0
:10034000C301B101B701BB01F101C601CC01D0016C
:10035000D601DA01DE01E401E801F101EC01F2016C
:10036000F601809180008F778093800008958091BE
:1003700080008F7DF9CF80918000877FF5CF84B595
:100380008F7784BD089584B58F7DFBCF8091B000B9
:100390008F778093B00008958091B0008F7DF9CF62
:1003A000809190008F7780939000089580919000C5
:1003B0008F7DF9CF80919000877FF5CF8091A0004D
:1003C0008F778093A00008958091A0008F7DF9CF52
:1003D0008091A000877FF5CF809120018F77809357
:1003E00020010895809120018F7DF9CF8091200117
:1003F000877FF5CFCF93DF93282F30E0F901EA58BC
:10040000FD4F8491F901E05DFD4FD491F901E65172
:10041000FE4FC491CC23A1F081110E949301EC2FD7
:10042000F0E0EE0FFF1FE053FE4FA591B491EC9169
:10043000ED2381E090E009F480E0DF91CF91089511
:1004400080E090E0FACF1F93CF93DF93282F30E026
:10045000F901EA58FD4F8491F901E05DFD4FD49117
:10046000F901E651FE4FC491CC23A9F0162F81115A
:100470000E949301EC2FF0E0EE0FFF1FEA54FE4FB5
:10048000A591B4918FB7F894EC91111108C0D09553
:10049000DE23DC938FBFDF91CF911F910895DE2B78
:1004A000F8CFCF93DF9390E0FC01E05DFD4F249106
:1004B00086519E4FFC0184918823D1F090E0880FF3
:1004C000991FFC01E456FE4FA591B491FC01EA543A
:1004D000FE4FC591D49161110EC09FB7F8948C91D5
:1004E000E22FE0958E238C932881E223E8839FBF3F
:1004F000DF91CF9108958FB7F894EC91E22BEC93B4
:100500008FBFF6CF1F93CF93DF93182FEB0161E0DE
:100510000E945102209739F460E0812FDF91CF9142
:100520001F910C942302CF3FD10511F461E0F5CF68
:10053000E12FF0E0EA58FD4FE491E150E23108F09C
:10054000B3C0F0E08827E855FD4F8F4F0C949D0F06
:10055000BA02C202C702D102DB025403E502ED0275
:10056000F502FF020903130322032C03540336038D
:1005700040034A0384B5806884BDC7BDDF91CF9135
:100580001F91089584B5806284BDC8BDF7CF809166
:100590008000806880938000D0938900C093880099
:1005A000EDCF80918000806280938000D0938B009B
:1005B000C0938A00E3CF80918000886080938000A0
:1005C000D0938D00C0938C00D9CF8091B00080680B
:1005D0008093B000C093B300D1CF8091B00080620F
:1005E0008093B000C093B400C9CF80919000806820
:1005F00080939000D0939900C0939800BFCF8091D2
:100600009000806280939000D0939B00C0939A00EA
:10061000B5CF80919000886080939000D0939D002A
:10062000C0939C00ABCF8091A00080688093A00015
:100630008091A0008F7B8093A000D093A900C093ED
:10064000A8009CCF8091A00080628093A000D093EE
:10065000AB00C093AA0092CF8091A00088608093E5
:10066000A000D093AD00C093AC0088CF8091200152
:10067000806880932001D0932901C09328017ECF08
:1006800080912001806280932001D0932B01C09340
:100690002A0174CF80912001886080932001D0933B
:1006A0002D01C0932C016ACFC038D1050CF03ECF8C
:1006B00033CF3FB7F8948091240290912502A09106
:1006C0002602B091270226B5A89B05C02F3F19F03E
:1006D0000196A11DB11D3FBFBA2FA92F982F8827C2
:1006E000BC01CD01620F711D811D911D42E0660F9D
:1006F000771F881F991F4A95D1F708958F929F926F
:10070000AF92BF92CF92DF92EF92FF926B017C018A
:100710000E9459034B015C01C114D104E104F104AE
:10072000B9F00E945903681979098A099B09683E42
:1007300073408105910580F321E0C21AD108E108D8
:10074000F10888EE880E83E0981EA11CB11CE4CF4E
:10075000FF90EF90DF90CF90BF90AF909F908F90E1
:1007600008950F931F93CF93DF93EC018B0188853E
:100770009985029751F46130710509F43AC06CF51E
:1007800060E00115110509F435C088859985049745
:1007900051F40130110509F455C00CF035C00115B4
:1007A000110509F43EC088859985059709F0C8C0F0
:1007B0000A30110508F0C4C0F8018827ED51FC4F3C
:1007C0008F4F0C949D0F360440044E04600478044F
:1007D0007A0480048A0498049E046230710591F0C2
:1007E00060E00330110589F68C850E94230260E0E9
:1007F00005C061E08C850E94230261E08E850E9425
:100800002302C3CF61E0F0CF0230110509F10330BC
:10081000110509F0C8CF61E08C850E94230260E0D9
:100820001CC061E08C850E94230260E08E850E94DE
:10083000230261E088890E94230260E08A890E9485
:100840002302B1CF60E08C850E94230261E0EECFED
:1008500060E08C850E94230261E08E850E94230265
:1008600060E088890E94230261E0E8CF60E08C8527
:100870000E94230261E08E850E94230261E009C08C
:1008800060E08C850E94230261E08E850E94230235
:1008900060E088890E94230260E00DC060E08C85E2
:1008A0000E94230261E08E850E94230260E0888915
:1008B0000E94230261E08A890E94230261E011C044
:1008C00060E08C850E94230261E08E850E942302F5
:1008D00060E088890E94230261E08A890E942302E5
:1008E00060E08C89DF91CF911F910F910C942302CE
:1008F00061E0E7CF61E08C850E94230260E0E5CFF4
:1009000061E08C850E94230260E08E850E942302B4
:1009100061E0DFCF61E08C850E94230260E08E857C
:100920000E94230261E088890E94230260E0D5CF03
:1009300061E08C850E94230260E09DCF60E0F9CFEA
:10094000DF91CF911F910F910895CF92DF92EF9297
:10095000FF920F931F93CF93DF93EC0161307105EA
:1009600009F045C0798368830E9459030E891F8965
:10097000288D398D6B017C01C01AD10AE20AF30A75
:100980000A811B812C813D81C016D106E206F30647
:1009900058F36E8B7F8B888F998F8A859B852881F2
:1009A00039812130310549F501969B878A872E814F
:1009B0003F818217930711F41B861A868A859B85CF
:1009C000288539856AE070E02530310511F064E052
:1009D00070E00E94890FBC01CE01DF91CF911F9181
:1009E0000F91FF90EF90DF90CF900C94B1036F3F89
:1009F0007F4F79F419821882B7CF892B21F48E8129
:100A00009F819B878A878A859B8501979B878A8799
:100A1000D5CFDF91CF911F910F91FF90EF90DF9095
:100A2000CF9008951F93CF93DF93EC01162F888109
:100A3000803308F04EC061E0812F0E94510288810E
:100A4000282F30E0F901EE0FFF1FE20FF31FE85DE2
:100A5000FD4F1F736081607C612B608319821A8255
:100A60002CE0622F0E947D0F829FB001112430E0A4
:100A700020E0AB01420F531FFA01EE0FFF1FE40FFE
:100A8000F51FE85DFD4F908196FD16C02F5F3F4F2B
:100A90002C30310571F7813009F51092800082E029
:100AA000809381001092850010928400B19A809109
:100AB0006F00826080936F00E8818E2F90E0FC01D0
:100AC000EE0FFF1FE80FF91FE85DFD4F8081806486
:100AD00080838881DF91CF911F910895823061F4E6
:100AE00010929000809391001092950010929400C3
:100AF00088BB80937100E0CF833069F41092A0002E
:100B000082E08093A1001092A5001092A40089BBFE
:100B100080937200D1CF8111CFCF1092200182E05B
:100B20008093210110922501109224018ABB8093A9
:100B30007300C2CFAF92BF92CF92DF92EF92FF923B
:100B40000F931F93CF93DF936B017A01EC01C55E86
:100B5000DD4F28813CE0389F8001399F100D112422
:100B6000A0901A02B12C27FF1FC0FB011182108236
:100B700088818F5F888388819801280F311D87FDC8
:100B80003A95F6012A153B051CF488818C30C4F196
:100B900080819181049680349C4908F473C0F601E9
:100BA00080819181049670C088819801280F311D41
:100BB00087FD3A952A153B05DCF68881A801480F88
:100BC000511D87FD5A95FA01EE0FFF1FE40FF51F27
:100BD000E85DFD4F808186FFCBCF8881F801E80F6B
:100BE000F11D87FDFA95CF01EE0FFF1FE80FF91FEA
:100BF000E85DFD4F808160E08F730E942302B8CFD3
:100C0000808191812881A801420F511D27FD5A95AD
:100C10009A01FA01EE0FFF1FE20FF31FE85DFD4F8F
:100C200021813281820F931FF70191838083888114
:100C30009801280F311D87FD3A95F901EE0FFF1F2E
:100C4000E20FF31FE85DFD4F808186FF22C088819F
:100C5000080F111D87FD1A95F801EE0FFF1FE00F19
:100C6000F11FE85DFD4F808161E08F73DF91CF91CF
:100C70001F910F91FF90EF90DF90CF90BF90AF90BA
:100C80000C94230280E49CE9F701918380838FEF29
:100C90008883DF91CF911F910F91FF90EF90DF90AC
:100CA000CF90BF90AF900895CF93DF93EC0162E3B4
:100CB00070E08AE00E94820262E370E089E00E94B4
:100CC000820260E085E00E94230261E084E00E94ED
:100CD000230261E083E00E94230260E082E00E9440
:100CE0002302BE01DD0F880B990BDF91CF910C948D
:100CF0007E03CF93DF93EC0162E370E08AE00E9411
:100D0000820262E370E089E00E94820261E085E095
:100D10000E94230260E084E00E94230260E083E0FE
:100D20000E94230261E082E00E942302BE01DD0FE7
:100D3000880B990BDF91CF910C947E0360E085E0E6
:100D40000E94230260E084E00E94230260E083E0CE
:100D50000E94230260E082E00C94230264E670E0CB
:100D60008AE00E94820264E670E089E00E948202CA
:100D700060E085E00E94230261E084E00E9423029B
:100D800060E083E00E94230261E082E00C94230291
:100D9000CF92DF92EF92FF920F931F93CF93DF9347
:100DA0001F921F92CDB7DEB769834A83880F991FC0
:100DB00000917F0310918003000F111FE9E2F3E01F
:100DC0009F01295233402017310714F41192F8CFB4
:100DD0002981FC01E75DFC4F21838A81808360E0EB
:100DE00080917D030E9423021016110604F5015024
:100DF0001109F801E75DFC4FE080D0907B03C090C3
:100E0000790388E0F82E6E2D661F6627661F8C2DED
:100E10000E942302EE0C61E08D2D0E94230260E00F
:100E20008D2D0E942302FA94F110EDCFDDCF61E009
:100E300080917D030F900F90DF91CF911F910F91C3
:100E4000FF90EF90DF90CF900C942302EF92FF92EF
:100E50000F931F93CF937C018C0183E0000F111F30
:100E60008A95E1F7075C1C4FC1E0F80111928F01F0
:100E700040E06C2FC7010E94C806CF5FC930A9F7B8
:100E8000CF911F910F91FF90EF9008950F931F93B3
:100E9000CF93DF93EC0188819981009759F02A81E3
:100EA0003B812617370730F081E0DF91CF911F910A
:100EB0000F9108958B016F5F7F4F0E94DE100097A6
:100EC00059F0998388831B830A832C813D81232BCE
:100ED00059F7FC011082E8CF80E0E7CFEF92FF9254
:100EE0000F931F93CF93DF936115710541F480E059
:100EF000DF91CF911F910F91FF90EF9008954115D1
:100F00005105B1F07B01EC010C811D81040F151F0F
:100F1000B8010E944607882351F3288139818C81CA
:100F20009D81B701820F931F0E94C8111D830C83FE
:100F300081E0DECFCF93DF93EC0188819981009728
:100F400011F00E945510198218821D821C821B828A
:100F50001A82DF91CF910895EF92FF920F931F9322
:100F6000CF93DF93EC017B018A01BA010E9446070F
:100F700081110BC0CE010E949A07CE01DF91CF9163
:100F80001F910F91FF90EF9008951D830C83B7017F
:100F9000888199810E94C811F0CFCF93DF93EC0133
:100FA000FB018617970749F0608171816115710512
:100FB00041F0448155810E94AC07CE01DF91CF9171
:100FC00008950E949A07F9CFFC01808191810097D2
:100FD00011F00C9455100895FC01118210821382B7
:100FE000128215821482FB0101900020E9F73197EB
:100FF000AF01461B570B0C94AC078F929F92AF9298
:10100000BF92CF92DF92EF92FF920F931F93CF93F5
:10101000DF93CDB7DEB768970FB6F894DEBF0FBE8B
:10102000CDBF64E670E08AE00E94820264E670E070
:1010300089E00E94820261E085E00E94230260E074
:1010400084E00E94230261E083E00E94230260E0CA
:1010500082E00E9423028091180290911902019669
:101060009093190280931802089709F03CC180916F
:101070000602882309F4A5C0809102029091030220
:1010800020910502222309F49AC00197909303024C
:1010900080930202A0900002B090010228E0A21604
:1010A000B10440F4E0900202F090030238E0E3164D
:1010B000F10498F183E090E09093010280930002A4
:1010C00090930302809302020EEB12E05EEEE52E97
:1010D00052E0F52E48E050E06DE072E0C8010E9459
:1010E000AC070A5F1F4FE016F106A1F780917F035E
:1010F000909180031816190624F490E080E00E9475
:10110000260764E670E080E090E00E947E0333E012
:10111000E32EF12C43E0A42EB12C80910202909199
:10112000030226E0D22ED89EB001D99E700D112464
:1011300062547D4F1C8A1B8A1E8A1D8A188E1F8A44
:10114000CE0143960E94CD0765E172E0CE010D9677
:101150000E94EC0765E172E0CE0107960E94EC0761
:1011600010E000E0DE9CC001DF9C900D1124FC012A
:10117000E254FD4F6F014F01F4E08F0E911CA01659
:10118000B10689F1F401808191810817190748F5AA
:10119000F60180819181009721F1800F911FFC0160
:1011A000808189831A8241E050E0BE016F5F7F4FEA
:1011B000CE010D960E946E070F5F1F4FE0CF019684
:1011C00065CF8091000290910102209104022223B8
:1011D00031F0019790930102809300025BCF01965A
:1011E000F9CF80E0DECF00910002109101020F5F85
:1011F0001F4F26E02E9DC0012F9D900D11249C01B4
:1012000022543D4F6901590134E0A30EB11C08304E
:101210001105FCF4F5018081918108171907B8F4D4
:10122000F60180819181009791F0800F911FFC0160
:10123000808189831A8241E050E0BE016F5F7F4F59
:10124000CE0107960E946E070F5F1F4FE0CF80E030
:10125000F0CF1A8219821C821B821E821D82BE015F
:10126000635F7F4FCE0101960E94CD0741E050E0C1
:1012700066E172E0CE0101960E946E07811104C002
:10128000CE0101960E949A074B855C856F81788517
:10129000CE0101960E946E07811104C0CE01019615
:1012A0000E949A0726E02E9DC0012F9D900D1124CB
:1012B000BE016F5F7F4F82549D4F0E94CD07CE01CC
:1012C00001960E94E407CE0107960E94E407CE0132
:1012D0000D960E94E407CE0143960E94E407109207
:1012E00019021092180268960FB6F894DEBF0FBE6E
:1012F000CDBFDF91CF911F910F91FF90EF90DF90C5
:10130000CF90BF90AF909F908F9008951F920F92B3
:101310000FB60F9211242F933F938F939F93AF9308
:10132000BF938091200290912102A0912202B0915E
:10133000230230911F0223E0230F2D3758F5019629
:10134000A11DB11D20931F028093200290932102C2
:10135000A0932202B093230280912402909125024F
:10136000A0912602B09127020196A11DB11D809384
:10137000240290932502A0932602B0932702BF91E6
:10138000AF919F918F913F912F910F900FBE0F9032
:101390001F90189526E8230F0296A11DB11DD2CFEC
:1013A0001F920F920FB60F9211240BB60F922F932C
:1013B0003F934F935F936F937F938F939F93AF93DD
:1013C000BF93EF93FF9348E251E064E271E090E055
:1013D00080E00E949A05FF91EF91BF91AF919F919C
:1013E0008F917F916F915F914F913F912F910F90CE
:1013F0000BBE0F900FBE0F901F9018951F920F926B
:101400000FB60F9211240BB60F922F933F934F9369
:101410005F936F937F938F939F93AF93BF93EF935C
:10142000FF9348EA50E064EA70E083E090E00E94B5
:101430009A05FF91EF91BF91AF919F918F917F910D
:101440006F915F914F913F912F910F900BBE0F9035
:101450000FBE0F901F9018951F920F920FB60F920C
:1014600011240BB60F922F933F934F935F936F937B
:101470007F938F939F93AF93BF93EF93FF9348E92D
:1014800050E064E970E082E090E00E949A05FF91EC
:10149000EF91BF91AF919F918F917F916F915F91EC
:1014A0004F913F912F910F900BBE0F900FBE0F9059
:1014B0001F9018951F920F920FB60F9211240BB622
:1014C0000F922F933F934F935F936F937F938F93DD
:1014D0009F93AF93BF93EF93FF9348E850E064E886
:1014E00070E081E090E00E949A05FF91EF91BF913A
:1014F000AF919F918F917F916F915F914F913F91AC
:101500002F910F900BBE0F900FBE0F901F9018954C
:10151000789484B5826084BD84B5816084BD85B5CE
:10152000826085BD85B5816085BD80916E008160DA
:1015300080936E0010928100809181008260809380
:101540008100809181008160809381008091800082
:101550008160809380008091B10084608093B100AD
:101560008091B00081608093B00080919100826092
:10157000809391008091910081608093910080918F
:1015800090008160809390008091A10082608093A0
:10159000A1008091A10081608093A1008091A000B2
:1015A00081608093A000809121018260809321015D
:1015B00080912101816080932101809120018160CF
:1015C0008093200180917A00846080937A008091DA
:1015D0007A00826080937A0080917A0081608093A3
:1015E0007A0080917A00806880937A001092C1001E
:1015F00060E088E00E94510260E087E00E945102B2
:1016000061E086E00E94510266E070E08BEB92E0C0
:101610000E9412058091BD0208E512E0081B110925
:1016200087FD1395000F111F000F111F8091BC0241
:10163000C8E8D0E0C81BD10987FDD395CC0FDD1FCA
:10164000CC0FDD1F6E010D2E000CEE08FF08980177
:10165000012E000C440B550B2C193D094E095F0956
:10166000AAE5B0E00E94410F24EB30E040E050E0FA
:101670000E94220FC20ED31EE41EF51EE091BB0293
:10168000E033C8F4CC16DD062CF0E801C016D10614
:101690000CF4E6012297CC0FDD1F2FB7F8948E2FA4
:1016A00090E0FC01EE0FFF1FE80FF91FE85DFD4F12
:1016B000D283C1832FBF60E08DE00E94510260E0C1
:1016C0008CE00E94510260E08BE00E94510261E0D8
:1016D00085E00E94510261E084E00E94510261E0D5
:1016E00083E00E94510261E082E00E94510261E0C9
:1016F0008AE00E94510261E089E00E94510261E0AB
:1017000083E20E94510263E270E088EB92E00E9463
:10171000120580917F03909180031816190634F406
:1017200041E06CE090E080E00E94C80680917F0379
:10173000909180031816190634F44FE06AE090E0A7
:1017400080E00E94C80680917F0390918003181664
:10175000190624F490E080E00E94260761E082E30D
:101760000E94510261E084E30E94510261E083E340
:101770000E94510261E085E30E9451022091100312
:1017800030911103032E000C440B550BC12C67E85C
:10179000D62E63E9E62E63E0F62EC701B6010E945D
:1017A000220F74E6872E912CA12CB12CCA01B9010D
:1017B000A50194010E94220F20930C0330930D0386
:1017C00040930E0350930F032091F6023091F702DD
:1017D000032E000C440B550BC701B6010E94220FCB
:1017E000CA01B901A50194010E94220F2093F202BF
:1017F0003093F3024093F4025093F502D1E0E0E815
:10180000CE2ED12CF0E0AF2EF0E0BF2EC1E08DE067
:101810000E94FA017C0190932803809327038CE0B7
:101820000E94FA018C0190932603809325038BE09C
:101830000E94FA0121E0E216F104B9F40130110529
:10184000D1F58130910541F5C093240361E070E04A
:101850008AE093E00E94A50461E070E080EF92E0EE
:101860000E94A5040E94FD072CC0EF2851F501300D
:10187000110509F078C0009739F3019711F5C0936D
:10188000240361E070E08AE093E00E94A50481E017
:1018900090E00E947906DACF892B99F4C093240353
:1018A00061E070E080EF92E00E94A50481E090E0AA
:1018B0000E945406CBCF012B21F4892B11F4C09345
:1018C000240389E2E82E83E0F82E9EEB892E92E035
:1018D000992E7724739410E000E020917F033091DB
:1018E0008003F401848195810817190708F01EC14F
:1018F00080819181009709F419C1800F911FFC012B
:101900008081813309F012C11216130684F4F701A5
:101910004089C601002E02C0959587950A94E2F78A
:10192000482B408B672D90E080E00E94C8060F5F37
:101930001F4F0830110589F6FFEFEF1AFF0A739465
:1019400026E0820E911C89E07812C5CF64E670E033
:1019500080E090E00E947E03A114B10409F457CF07
:101960000E94000054CF012B09F0ABCF81309105CC
:1019700009F4A5CF892B09F0A4CF809124038823F3
:1019800009F49FCF109224036FEF7FEF8AE093E07A
:101990000E94A5046FEF7FEF80EF92E00E94A50404
:1019A0000E94AE0668EC70E080E090E00E947E034A
:1019B0000E949E066CE474E080E090E00E947E034A
:1019C0008091EE029091EF02892B09F082C061E0D4
:1019D00070E08AE093E00E94A50484E398E00E940E
:1019E00079060E949E0665EF70E080E090E00E941C
:1019F0007E0361E070E08AE093E00E94A50461E06C
:101A000070E080EF92E00E94A5040E94FD0764EF61
:101A100071E080E090E00E947E038CE00E94FA0179
:101A20008C0190932603809325030E949E0668EE06
:101A300073E080E090E00E947E0301301105D1F454
:101A40001092EF021092EE02C093240380910602DE
:101A5000882341F090910502992309F459C010920E
:101A6000040258C090910402992309F45CC0C09309
:101A7000050250C06FEF7FEF8AE093E00E94A5045B
:101A80006FEF7FEF80EF92E00E94A5040E94AE0608
:101A900064EF71E080E090E00E947E0381E090E0DE
:101AA0009093EF028093EE026FEF7FEF8AE093E076
:101AB0000E94A5046FEF7FEF80EF92E00E94A504E3
:101AC0000E94AE0663E270E080E090E00E947E0338
:101AD000BDCE84E090E10E94540661E070E080EFAA
:101AE00092E00E94A5040E949E0665EF70E080E0EF
:101AF00090E00E947E031092EF021092EE0280911D
:101B00000602882359F090910502992309F4A7CF82
:101B1000C09304028D278093060298CE9091040210
:101B2000992309F4A4CF10920502F4CF12161306DC
:101B30000CF0FDCEA601002E02C0559547950A94E3
:101B4000E2F74095F70180894823EBCE0F931F936E
:101B5000CF93DF9380911A02803308F028C191E07F
:101B6000980F90931A028093B80290E0FC01EE0F58
:101B7000FF1FE80FF91FE85DFD4F88EB9BE09283A4
:101B8000818380911A02803308F015C191E0980F8B
:101B900090931A028093BB0290E0FC01EE0FFF1FAE
:101BA000E80FF91FE85DFD4F88EB9BE0928381838E
:101BB000109215031092140310920B0310920A0353
:101BC00010922003109221031092220310922303FB
:101BD00008EC10E0109311030093100382E390E0EF
:101BE000909317038093160383E390E09093190377
:101BF0008093180384E390E090931B0380931A036F
:101C000085E390E090931D0380931C0361E082E3E1
:101C10000E94510261E0809118030E94510261E02C
:101C200080911A030E94510261E080911C030E947E
:101C3000510210921F0310921E03C4E0D0E0D09313
:101C40001303C09312031092FB021092FA02109237
:101C5000F1021092F0021092060310920703109204
:101C60000803109209031093F7020093F60286E12D
:101C700090E09093FD028093FC0287E190E09093C6
:101C8000FF028093FE0288E190E09093010380932D
:101C9000000389E190E0909303038093020361E0E5
:101CA00086E10E94510261E08091FE020E94510291
:101CB00061E0809100030E94510261E08091020383
:101CC0000E9451021092050310920403D093F9026E
:101CD000C093F802CFE2D0E0D0937A03C0937903A7
:101CE00080E390E090937C0380937B0381E390E01A
:101CF00090937E0380937D0381E090E09093800336
:101D000080937F0361E08FE20E94510261E0809145
:101D10007B030E94510261E080917D030E94510289
:101D200061E080917D030E942302D0937A03C093E7
:101D30007903E9E3F3E0119283E0E937F807D9F793
:101D4000D0E0C0E080917F0390918003C817D9074D
:101D5000B4F540E06FE0CE010E94C80680917F0399
:101D600090918003C817D9072CF447E06BE0CE01AF
:101D70000E94C80640E069E0CE010E94C80680913A
:101D80007F0390918003C817D9071CF4CE010E94ED
:101D9000260780917F0390918003C817D9072CF400
:101DA00040E06CE0CE010E94C8062196CBCF8FEFB9
:101DB0008093B802E6CE8FEF8093BB02F9CE6DE040
:101DC00072E08EEB92E00E94EC076DE072E084EC32
:101DD00092E00E94EC076DE072E08AEC92E00E94D3
:101DE000EC076DE072E080ED92E00E94EC076DE0A0
:101DF00072E086ED92E00E94EC076DE072E08CEDFF
:101E000092E00E94EC076DE072E082EE92E00E94A8
:101E1000EC076DE072E088EE92E0DF91CF911F91C8
:101E20000F910C94EC07CF93DF93CEEED2E0269780
:101E3000CE010E94E40782E0CE3BD807C1F7DF91D4
:101E4000CF910895052E97FB1EF400940E94390F40
:101E500057FD07D00E944C0F07FC03D04EF40C94A2
:101E6000390F50954095309521953F4F4F4F5F4F1B
:101E7000089590958095709561957F4F8F4F9F4FF6
:101E800008950E946E0FA59F900DB49F900DA49F82
:101E9000800D911D11240895A1E21A2EAA1BBB1BCF
:101EA000FD010DC0AA1FBB1FEE1FFF1FA217B30726
:101EB000E407F50720F0A21BB30BE40BF50B661F3C
:101EC000771F881F991F1A9469F760957095809500
:101ED00090959B01AC01BD01CF010895A29FB00177
:101EE000B39FC001A39F700D811D1124911DB29F4E
:101EF000700D811D1124911D0895991B79E004C076
:101F0000991F961708F0961B881F7A95C9F7809538
:101F1000089597FB072E16F4009407D077FD09D09B
:101F20000E94A50F07FC05D03EF4909581959F4F28
:101F30000895709561957F4F0895EE0FFF1F881FDC
:101F40008BBF0790F691E02D1994AA1BBB1B51E1A2
:101F500007C0AA1FBB1FA617B70710F0A61BB70B19
:101F6000881F991F5A95A9F780959095BC01CD01BE
:101F700008950F931F93CF93DF938230910510F450
:101F800082E090E0E0918303F091840330E020E070
:101F9000B0E0A0E0309799F42115310509F44AC06A
:101FA000281B390B24303105D8F58A819B816115B6
:101FB000710589F1FB0193838283FE0111C0408189
:101FC00051810281138148175907E0F048175907DA
:101FD00099F4109761F012960C93129713961C9334
:101FE0003296CF01DF91CF911F910F910895009309
:101FF000830310938403F4CF2115310551F0421768
:10200000530738F0A901DB019A01BD01DF01F80196
:10201000C1CFEF01F9CF9093840380938303CDCF99
:10202000FE01E20FF31F819391932250310939830E
:102030002883D7CF2091810330918203232B41F451
:102040002091090230910A02309382032093810388
:1020500020910702309108022115310541F42DB776
:102060003EB740910B0250910C02241B350BE091BE
:102070008103F0918203E217F307A0F42E1B3F0BBC
:102080002817390778F0AC014E5F5F4F24173507EA
:1020900048F04E0F5F1F509382034093810381935A
:1020A00091939FCFF0E0E0E09CCFCF93DF93009738
:1020B000E9F0FC01329713821282A0918303B09160
:1020C0008403ED0130E020E01097A1F420813181FC
:1020D000820F931F209181033091820328173907C3
:1020E00009F061C0F0938203E0938103DF91CF9107
:1020F0000895EA01CE17DF07E8F54A815B819E016A
:1021000041155105B1F7E901FB83EA8349915991E2
:10211000C40FD51FEC17FD0761F4808191810296F1
:10212000840F951FE90199838883828193819B8322
:102130008A83F0E0E0E012968D919C9113970097CE
:10214000B9F52D913C911197CD010296820F931F05
:1021500020918103309182032817390739F630978F
:1021600051F51092840310928303B0938203A093DD
:102170008103BCCFD383C28340815181840F951FDB
:10218000C817D90761F44E5F5F4F88819981480F66
:10219000591F518340838A819B81938382832115B8
:1021A000310509F0B0CFF0938403E09383039ECF11
:1021B000FD01DC01C0CF13821282D7CF4F925F9214
:1021C0006F927F928F929F92AF92BF92CF92DF9247
:1021D000EF92FF920F931F93CF93DF938C010097A1
:1021E00099F4CB01DF91CF911F910F91FF90EF9068
:1021F000DF90CF90BF90AF909F908F907F906F9027
:102200005F904F900C94B90FFC01E60FF71F9C01F3
:1022100022503109E217F30708F4AEC0D901CD917D
:10222000DC911197C617D70720F1C530D10578F09A
:10223000CE0104978617970750F0C61BD70B22973D
:10224000C193D1936D937C93CF010E945510C80127
:10225000DF91CF911F910F91FF90EF90DF90CF9082
:10226000BF90AF909F908F907F906F905F904F90B6
:1022700008955B01AC1ABD0A4C018C0E9D1EA09105
:102280008303B0918403512C412CF12CE12C109745
:1022900031F580918103909182038815990509F0A9
:1022A0005CC04616570608F058C08091070290910E
:1022B0000802009741F48DB79EB740910B025091F0
:1022C0000C02841B950BE817F90708F055C0F09332
:1022D0008203E0938103F90171836083B8CF8D910C
:1022E0009C91119712966C90129713967C9013976D
:1022F000A815B90559F56C0142E0C40ED11CCA14E9
:10230000DB0420F1AC014A195B09DA01129615973A
:1023100080F06282738251834083D9016D937C93F4
:10232000E114F10471F0D7011396FC93EE93129728
:102330008ECF22968C0F9D1FF90191838083F3012C
:10234000EFCFF0938403E093830381CF48165906BF
:1023500008F42C017D01D3019ACFCB010E94B90F63
:102360007C01009749F0AE01B8010E94BF11C8017D
:102370000E94551087016BCF10E000E068CFFB0191
:10238000DC0102C001900D9241505040D8F70895F1
:10239000FB01DC0101900D920020E1F7089511E0AE
:1023A000CFE5D1E000E006C0802FFE010E949D0F26
:1023B0002196011DC036D10780E00807A9F7F894DF
:1023C000FFCF0200060001010100008503800030FC
:0A23D0003030303030303000310082
:10E000000D9489F10D94B2F10D94B2F10D94B2F129
:10E010000D94B2F10D94B2F10D94B2F10D94B2F1F0
:10E020000D94B2F10D94B2F10D94B2F10D94B2F1E0
:10E030000D94B2F10D94B2F10D94B2F10D94B2F1D0
:10E040000D94B2F10D94B2F10D94B2F10D94B2F1C0
:10E050000D94B2F10D94B2F10D94B2F10D94B2F1B0
:10E060000D94B2F10D94B2F10D94B2F10D94B2F1A0
:10E070000D94B2F10D94B2F10D94B2F10D94B2F190
:10E080000D94B2F10D94B2F10D94B2F10D94B2F180
:10E090000D94B2F10D94B2F10D94B2F10D94B2F170
:10E0A0000D94B2F10D94B2F10D94B2F10D94B2F160
:10E0B0000D94B2F10D94B2F10D94B2F10D94B2F150
:10E0C0000D94B2F10D94B2F10D94B2F10D94B2F140
:10E0D0000D94B2F10D94B2F10D94B2F10D94B2F130
:10E0E0000D94B2F141546D656761323536300041AF
:10E0F000726475696E6F206578706C6F72657220DE
:10E1000073746B3530305632206279204D4C530099
:10E11000426F6F746C6F616465723E004875683F52
:10E1200000436F6D70696C6564206F6E203D200048
:10E130004350552054797065202020203D20005FF9
:10E140005F4156525F415243485F5F3D2000415658
:10E1500052204C696243205665723D20004743437C
:10E160002056657273696F6E203D20004350552024
:10E1700049442020202020203D20004C6F7720663D
:10E18000757365202020203D20004869676820665F
:10E190007573652020203D200045787420667573D6
:10E1A00065202020203D20004C6F636B2066757336
:10E1B000652020203D20004D617220203720323024
:10E1C000313300312E362E3800342E332E350056A2
:10E1D00023202020414444522020206F7020636F70
:10E1E00064652020202020696E73747275637469E1
:10E1F0006F6E2061646472202020496E74657272B3
:10E20000757074006E6F20766563746F7200726A49
:10E210006D702020006A6D70200057686174207056
:10E220006F72743A00506F7274206E6F7420737541
:10E2300070706F72746564004D7573742062652030
:10E2400061206C6574746572002000577269747483
:10E25000696E672045450052656164696E672045B7
:10E26000450045452065727220636E743D00504F35
:10E27000525400303D5A65726F2061646472003FF1
:10E280003D43505520737461747300403D454550C3
:10E29000524F4D207465737400423D426C696E6B41
:10E2A000204C454400453D44756D70204545505215
:10E2B0004F4D00463D44756D7020464C415348001B
:10E2C000483D48656C70004C3D4C69737420492F83
:10E2D0004F20506F72747300513D51756974005234
:10E2E0003D44756D702052414D00563D73686F7707
:10E2F00020696E7465727275707420566563746FF0
:10E30000727300593D506F727420626C696E6B00BD
:10E310002A0011241FBECFEFD1E2DEBFCDBF01E046
:10E320000CBF12E0A0E0B2E0EEE1FDEF03E00BBFB6
:10E3300002C007900D92A030B107D9F712E0A0E01B
:10E34000B2E001C01D92AE30B107E1F70F9460F367
:10E350000D948DFE01E20EBF0FEF0DBF11241FBE05
:10E360000D9460F30D9400F020E030E040ED57E0B4
:10E3700005C0FA013197F1F72F5F3F4F2817390792
:10E38000C0F308959C01260F311DC901A0E0B0E043
:10E390002F5F3F4FABBFFC018791882361F08093D3
:10E3A000C6008091C00086FFFCCF8091C0008064D1
:10E3B0008093C000EACF08958DE08093C6008091DD
:10E3C000C00086FFFCCF8091C00080648093C000B5
:10E3D0008AE08093C6008091C00086FFFCCF8091C8
:10E3E000C00080648093C00008950F94C2F10F9420
:10E3F000DCF10895FC019081992359F09093C600B7
:10E400008091C00086FFFCCF8091C0008064809323
:10E41000C0003196992379F70895282F982F929567
:10E420009F70892F805D8A3308F0895F8093C600D2
:10E430008091C00086FFFCCF8091C00080648093F3
:10E44000C000822F8F70982F905D9A3308F0995FEB
:10E450009093C6008091C00086FFFCCF8091C000E1
:10E4600080648093C00008959C01FB01853691056E
:10E470001CF46330710594F0C90164E670E00F94F8
:10E480002EFE605D7F4F6093C6008091C00086FFC6
:10E49000FCCF8091C00080648093C0002B30310598
:10E4A00014F43297B4F0C90164E670E00F942EFEC4
:10E4B0006AE070E00F942EFE605D7F4F6093C600AF
:10E4C0008091C00086FFFCCF8091C0008064809363
:10E4D000C000C9016AE070E00F942EFEC0968093E0
:10E4E000C6008091C00086FFFCCF8091C000806490
:10E4F0008093C00008951F93182F8EE692EE60E07F
:10E500000F94C2F11093C6008091C00086FFFCCF2B
:10E510008091C00080648093C0000F94DCF11F9153
:10E5200008952F923F924F925F926F927F928F92B7
:10E530009F92AF92BF92CF92DF92EF92FF920F9392
:10E540001F93DF93CF93CDB7DEB762970FB6F894E2
:10E55000DEBF0FBECDBF382E622ECA01DB015C01CB
:10E560006D01772420E2222E2E010894411C511CBB
:10E570008BC081E0A81680E0B80681E0C80680E084
:10E58000D80628F0C601AA27BB270F940DF2BB2797
:10E59000AD2D9C2D8B2D0F940DF28A2D0F940DF225
:10E5A0002092C6008091C00086FFFCCF8091C00001
:10E5B00080648093C0009DE29093C6008091C0006B
:10E5C00086FFFCCF8091C00080648093C0002092C1
:10E5D000C6008091C00086FFFCCF8091C00080649F
:10E5E0008093C00019828601750188249924A1E0D6
:10E5F0003A1651F03A1620F0B2E03B1661F409C029
:10E600000BBFF701779007C0C7010F9477FE782EF4
:10E6100002C0F7017080872D0F940DF22092C60082
:10E620008091C00086FFFCCF8091C0008064809301
:10E63000C000872D8052F401EF70F0708F3520F408
:10E64000E40DF51D708204C0E40DF51D8EE280839B
:10E650000894E11CF11C011D111D0894811C911CE2
:10E6600090E18916910409F0C2CF80E190E0A0E02A
:10E67000B0E0A80EB91ECA1EDB1E198AC2010F9493
:10E68000FAF10F94DCF16A94662009F072CF629679
:10E690000FB6F894DEBF0FBECDBFCF91DF911F91B3
:10E6A0000F91FF90EF90DF90CF90BF90AF909F9031
:10E6B0008F907F906F905F904F903F902F90089534
:10E6C0002F923F924F925F926F927F928F929F9282
:10E6D000AF92BF92CF92DF92EF92FF920F931F9370
:10E6E000DF93CF93CDB7DEB7CD53D1400FB6F894BB
:10E6F000DEBF0FBECDBF01E20EBF0FEF0DBF94B75F
:10E70000F894A89514BE80916000886180936000A1
:10E7100010926000789493FF05C0E0910002F091A0
:10E7200001021995279A2F9A8091C00082608093E8
:10E73000C00080E18093C40088E18093C1000000A4
:10E74000EE24FF24870144E0A42EB12CCC24DD2448
:10E7500024C0C5010197F1F70894E11CF11C011DCB
:10E76000111D21E2E2162EE4F20620E0020720E06D
:10E77000120718F031E0C32ED12CC801B70127ECE5
:10E780003BE140E050E00F9441FE611571058105C9
:10E79000910519F485B1805885B98091C00087FD35
:10E7A00003C0C114D104A9F2A6014F5F5F4FC25E3E
:10E7B000DE4F59834883CE51D140C25EDE4F8881FF
:10E7C0009981CE51D140019711F00D9410FEC05D9A
:10E7D000DE4F19821882C053D14060E0C15DDE4F28
:10E7E0001882CF52D14088249924C35DDE4F19820C
:10E7F0001882CD52D140C05EDE4F188219821A8233
:10E800001B82C052D140CE5CDE4F188219821A8220
:10E810001B82C253D140EE24FF2487010BBFF701B6
:10E8200007911691C45CDE4F19830883CC53D14005
:10E830000D940BFEC25EDE4F28813981CE51D1404E
:10E840002130310509F52091C600C25EDE4F1982E4
:10E850001882CE51D14022C02F5F3F4F4F4F5F4FA4
:10E86000213082E138078AE7480780E0580780F0C6
:10E87000C45CDE4FE881F981CC53D140EF5FFF4F9C
:10E8800019F0EE27FF27099420E030E040E050E047
:10E890008091C00087FFE0CF2091C600C35DDE4FAE
:10E8A00048815981CD52D1404F5F5F4FC35DDE4FEC
:10E8B00059834883CD52D140213209F063C64A3092
:10E8C000510508F05FC60894811C911C53E0851621
:10E8D000910409F059C600E010E018C081E280936D
:10E8E000C6008091C00086FFFCCF8091C00080648C
:10E8F0008093C0002F5F3F4F2931310579F70F9486
:10E90000DCF10F5F1F4F0530110519F020E030E0FA
:10E91000E5CF10920A0210920B0210920C02109294
:10E920000D02109206021092070210920802109235
:10E930000902109202021092030210920402109235
:10E9400005028FEE90EE60E00F94F5F180E191EE1C
:10E9500060E00F94C2F18091C00087FFFCCF9091DE
:10E96000C600903608F09F759032B8F09093C600BC
:10E970008091C00086FFFCCF8091C00080648093AE
:10E98000C000A0E2A093C6008091C00086FFFCCF2B
:10E990008091C00080648093C000983409F4D7C18E
:10E9A0009934B8F4923409F459C1933458F490333B
:10E9B00019F1903308F4E3C59F33A1F1903409F0C5
:10E9C000DEC5BDC0953409F470C1963409F0D7C5D1
:10E9D00098C1923509F42BC2933538F49C3409F46C
:10E9E000F5C1913509F0CBC518C2963509F445C279
:10E9F000993509F0C4C567C483E792EE62E00F94CD
:10EA0000F5F110920602109207021092080210927D
:10EA1000090210920A0210920B0210920C0210923C
:10EA20000D0213C18FE792EE62E00F94F5F18FEEC5
:10EA300090EE60E00F94F5F181E291EE60E00F94CA
:10EA4000C2F187EB91EE60E00F94F5F180E391EE77
:10EA500060E00F94C2F184EE90EE60E00F94F5F167
:10EA60008FE391EE60E00F94C2F186E090E061E008
:10EA700070E00F9434F20F94DCF18DE591EE60E0DC
:10EA80000F94C2F189EC91EE60E00F94F5F18EE401
:10EA900091EE60E00F94C2F183EC91EE60E00F9490
:10EAA000F5F18CE691EE60E00F94C2F18EE10F94E7
:10EAB0000DF288E90F940DF281E00F940DF20F949E
:10EAC000DCF18BE791EE60E00F94C2F119E0E0E039
:10EAD000F0E010935700E4918E2F0F940DF20F94F5
:10EAE000DCF18AE891EE60E00F94C2F1E3E0F0E03F
:10EAF00010935700E4918E2F0F940DF20F94DCF1D8
:10EB000089E991EE60E00F94C2F1E2E0F0E0109349
:10EB10005700E4918E2F0F940DF20F94DCF188EAE8
:10EB200091EE60E00F94C2F1E1E0F0E01093570045
:10EB30001491812F0F940DF20F94DCF107CF8BE825
:10EB400092EE62E00F94F5F18BE492EE60E00F94A8
:10EB5000F5F10F94DCF100E010E019C0C8016F2D51
:10EB60000F947FFEFF2031F489E492EE60E00F9471
:10EB7000C2F10BC0F092C6008091C00086FFFCCFAE
:10EB80008091C00080648093C0000F5F1F4FC80158
:10EB900081519F41A0E0B0E0ABBFFC01F790BAE229
:10EBA000FB1621F0E2E000301E07C1F60F94DCF105
:10EBB0000F94DCF187E592EE60E00F94F5F10F948D
:10EBC000DCF1CC24DD2400E010E01EC0C8010F946D
:10EBD00077FEF82E882331F489E492EE60E00F94FA
:10EBE000C2F10BC08093C6008091C00086FFFCCFAD
:10EBF0008091C00080648093C000FE1419F00894D6
:10EC0000C11CD11C0F5F1F4FC80181519F41A0E063
:10EC1000B0E0ABBFFC01E790FAE2EF1621F022E092
:10EC20000030120799F60F94DCF10F94DCF182E6C4
:10EC300092EE60E00F94C2F1C60161E070E00F94C3
:10EC400034F20F94DCF10F94DCF110920202109276
:10EC50000302109204021092050278CE89E992EE26
:10EC600062E00F94F5F1279A2F9A16C02F9880E052
:10EC700090E0E0EDF7E03197F1F7019684369105E9
:10EC8000C1F72F9A80E090E0E0EDF7E03197F1F7DF
:10EC9000019684369105C1F78091C00087FFE6CFC9
:10ECA0008091C00087FFFCCF64C485EA92EE62E0E9
:10ECB0000F94F5F140910202509103026091040219
:10ECC0007091050281E020E10F9491F2809102029F
:10ECD00090910302A0910402B091050280509F4FD1
:10ECE000AF4FBF4F8093020290930302A0930402A0
:10ECF000B093050280509041A040B04008F426CE69
:10ED0000A4CF83EB92EE62E00F94F5F140910602FE
:10ED100050910702609108027091090280E020E1A1
:10ED20000F9491F28091060290910702A09108023F
:10ED3000B091090280509F4FAF4FBF4F80930602A2
:10ED400090930702A0930802B0930902FFCD80ECD4
:10ED500092EE62E00F94F5F183E792EE60E00F949B
:10ED6000F5F18FE792EE60E00F94F5F18BE892EE0B
:10ED700060E00F94F5F189E992EE60E00F94F5F10F
:10ED800085EA92EE60E00F94F5F183EB92EE60E09D
:10ED90000F94F5F180EC92EE60E00F94F5F187ECC2
:10EDA00092EE60E00F94F5F188ED92EE60E00F9442
:10EDB000F5F18FED92EE60E00F94F5F18AEE92EEB0
:10EDC00060E00F94F5F183E093EEBDCD87EC92EE19
:10EDD00062E00F94F5F181E40F947BF282E40F94EA
:10EDE0007BF283E40F947BF284E40F947BF285E45E
:10EDF0000F947BF286E40F947BF287E40F947BF20E
:10EE000088E40F947BF28AE40F947BF28BE40F94F6
:10EE10007BF28CE40F947BF299CD88ED92EE62E068
:10EE20000F94F5F1772473948824992409C48FED05
:10EE300092EE62E00F94F5F140910A0250910B02BC
:10EE400060910C0270910D0282E020E10F9491F22A
:10EE500080910A0290910B02A0910C02B0910D02D8
:10EE600080509F4FAF4FBF4F80930A0290930B0289
:10EE7000A0930C02B0930D0269CD8AEE92EE62E08F
:10EE80000F94F5F184EE90EE60E00F94F5F18FECC5
:10EE900091EE60E00F94F5F1662477244301CC5D98
:10EEA000DE4F19821882C452D140D401C301B695F5
:10EEB000A79597958795CA5DDE4F88839983AA8326
:10EEC000BB83C652D140CC5DDE4FA881B981C4520C
:10EED000D1401196CC5DDE4FB983A883C452D14096
:10EEE000CD0162E070E00F9434F2B0E2B093C6005E
:10EEF0008091C00086FFFCCF8091C0008064809329
:10EF0000C000EDE2E093C6008091C00086FFFCCF18
:10EF10008091C00080648093C000F0E2F093C6004E
:10EF20008091C00086FFFCCF8091C00080648093F8
:10EF3000C000CA5DDE4FE880F9800A811B81C6529D
:10EF4000D140BB27A12F902F8F2D0F940DF2CA5DBA
:10EF5000DE4F8881C652D1400F940DF2B0E2FB2EF5
:10EF6000F092C6008091C00086FFFCCF8091C00067
:10EF700080648093C0000DE30093C6008091C000C0
:10EF800086FFFCCF8091C00080648093C00010E2B7
:10EF90001093C6008091C00086FFFCCF8091C00016
:10EFA00080648093C0008BBEF3012791C65DDE4F65
:10EFB0002883CA52D140A22EBB24CC24DD2408943D
:10EFC000611C711C811C911C8BBEF3018791282E42
:10EFD0003324442455240894611C711C811C911C09
:10EFE0008BBEF3013791C55DDE4F3883CB52D140E4
:10EFF0000894611C711C811C911C8BBEF30147910C
:10F00000C45DDE4F4883CC52D140ADEFEA2EAFEF66
:10F01000FA2EAFEF0A2FAFEF1A2F6E0C7F1C801E57
:10F02000911E142D032DF22CEE24EA0CFB1C0C1D5A
:10F030001D1D0F940DF220E22093C6008091C000A8
:10F0400086FFFCCF8091C00080648093C000C65DC5
:10F05000DE4F8881CA52D1400F940DF230E23093D6
:10F06000C6008091C00086FFFCCF8091C000806404
:10F070008093C000C45DDE4F8881CC52D1400F9494
:10F080000DF240E24093C6008091C00086FFFCCFA5
:10F090008091C00080648093C000C55DDE4F888190
:10F0A000CB52D1400F940DF250E25093C6008091A4
:10F0B000C00086FFFCCF8091C00080648093C000B8
:10F0C0008FEFE8168FEFF80680E0080780E018075A
:10F0D00031F484E092EE60E00F94C2F1DFC0D80119
:10F0E000C7018070907CA070B0708050904CA040A0
:10F0F000B040D1F52FEF3FE340E050E0E222F322B1
:10F1000004231523CA5DDE4FA880B980CA80DB8046
:10F11000C652D140AE0CBF1CC01ED11EAA0CBB1CD7
:10F12000CC1CDD1C8EE092EE60E00F94C2F1BB2798
:10F13000A12F902F8F2D0F940DF28E2D0F940DF285
:10F1400030E23093C6008091C00086FFFCCF8091F2
:10F15000C00080648093C0004EE34093C60080915D
:10F16000C00086FFFCCF87C08EE09EEFA0E0B0E03D
:10F17000E822F9220A231B239CE0E91694E9F90608
:10F1800090E0090790E0190709F088C0C45DDE4FE0
:10F19000A881CC52D140EA2EFF2400E010E0102FCD
:10F1A0000F2DFE2CEE24C55DDE4FB881CB52D14031
:10F1B000EB0EF11C011D111DD601C501817090706F
:10F1C000A070B070DC0199278827E80EF91E0A1F8D
:10F1D0001B1F20EF30E040E050E0A222B322C42207
:10F1E000D52241E1AA0CBB1CCC1CDD1C4A95D1F7F1
:10F1F000EA0CFB1C0C1D1D1D81E090E0A0E0B0E0BE
:10F20000282239224A225B2235E1220C331C441C7D
:10F21000551C3A95D1F7E20CF31C041D151D57013E
:10F220006801AA0CBB1CCC1CDD1C85E192EE60E0E1
:10F230000F94C2F1C801AA27BB270F940DF2BB2778
:10F24000A12F902F8F2D0F940DF28E2D0F940DF274
:10F2500090E29093C6008091C00086FFFCCF809121
:10F26000C00080648093C000AEE3A093C60080918C
:10F27000C00086FFFCCF8091C00080648093C000F6
:10F28000C601AA27BB270F940DF2BB27AD2D9C2DDD
:10F290008B2D0F940DF28A2D0F940DF20F94DCF14B
:10F2A000CC5DDE4FE881F981C452D140F99709F471
:10F2B0004DCBF4E0EF2EF12C012D112D6E0C7F1CA7
:10F2C000801E911EF2CD83E093EE62E00F94F5F183
:10F2D0008AE192EE60E00F94C2F18091C00087FF56
:10F2E000FCCF1091C6001F751093C6008091C0001E
:10F2F00086FFFCCF8091C00080648093C0000F9493
:10F30000DCF1812F81548A3108F036C1163409F4BA
:10F3100095C0173490F4133409F44EC0143430F40B
:10F320001134F1F0123409F01DC130C0143409F465
:10F3300059C0153409F016C16BC01A3409F4C4C0A1
:10F340001B3438F4173409F48FC0183409F00AC19B
:10F35000A1C01B3409F4D2C01C3409F003C1E8C0B9
:10F360008FEF81B90DC082B1809582B980E090E0C5
:10F37000E0EDF7E03197F1F70196883C9105C1F790
:10F380008091C00087FFEFCF12B8EFC08FEF84B934
:10F390000DC085B1809585B980E090E0E0EDF7E0A3
:10F3A0003197F1F70196883C9105C1F78091C00033
:10F3B00087FFEFCF15B8D9C08FEF87B90DC088B1DF
:10F3C000809588B980E090E0E0EDF7E03197F1F7C3
:10F3D0000196883C9105C1F78091C00087FFEFCF6F
:10F3E00018B8C3C08FEF8AB90DC08BB180958BB9A7
:10F3F00080E090E0E0EDF7E03197F1F70196883C8E
:10F400009105C1F78091C00087FFEFCF1BB8ADC059
:10F410008FEF8DB90DC08EB180958EB980E090E0F0
:10F42000E0EDF7E03197F1F70196883C9105C1F7DF
:10F430008091C00087FFEFCF1EB897C08FEF80BBD1
:10F440000DC081B3809581BB80E090E0E0EDF7E0F6
:10F450003197F1F70196883C9105C1F78091C00082
:10F4600087FFEFCF11BA81C08FEF83BB0DC084B38C
:10F47000809584BB80E090E0E0EDF7E03197F1F714
:10F480000196883C9105C1F78091C00087FFEFCFBE
:10F4900014BA6BC08FEF809301010FC080910201FD
:10F4A00080958093020180E090E0E0EDF7E03197F5
:10F4B000F1F70196883C9105C1F78091C00087FF64
:10F4C000EDCF1092020151C08FEF809304010FC065
:10F4D0008091050180958093050180E090E0E0ED4A
:10F4E000F7E03197F1F70196883C9105C1F78091DB
:10F4F000C00087FFEDCF1092050137C08FEF8093DA
:10F5000007010FC08091080180958093080180E079
:10F5100090E0E0EDF7E03197F1F70196883C910536
:10F52000C1F78091C00087FFEDCF109208011DC088
:10F530008FEF80930A010FC080910B01809580931B
:10F540000B0180E090E0E0EDF7E03197F1F70196F4
:10F55000883C9105C1F78091C00087FFEDCF1092E4
:10F560000B0103C085E292EEEEC98091C00087FFD7
:10F57000FCCF8091C600EAC988E392EEE4C98CE131
:10F5800091EEE1C988249924933011F1943028F444
:10F59000913089F09230B8F408C0953061F195301F
:10F5A000F0F0963009F048C043C02B3109F042C951
:10F5B00091E06BE13FC96227C15DDE4F2883CF52E6
:10F5C000D14092E037C9B22FA0E0622793E032C960
:10F5D000822F90E0A82BB92B622794E02BC92E3004
:10F5E00009F039C3622795E0C05DDE4F19821882A9
:10F5F000C053D1401FC9E1E0F0E0EC0FFD1FC05D3A
:10F60000DE4F08811981C053D140E00FF11F2083E4
:10F610000F5F1F4FC05DDE4F19830883C053D14079
:10F6200062270A171B0709F005C9D80196E002C92D
:10F63000261709F010C303C0973009F0FBC87724E0
:10F640009981933109F412C19431C8F4963009F4C8
:10F65000D8C0973050F4923009F406C1933009F4C1
:10F660006DC0913009F059C253C0913109F477C08F
:10F67000923108F0BBC0903109F04FC2F5C098310B
:10F6800009F487C0993150F4953109F4EFC09531F0
:10F6900008F4C6C1963109F040C2C2C19A3109F4DA
:10F6A0006CC09A3108F491C09B3109F45BC09D3164
:10F6B00009F033C29D81903359F48F81882311F46E
:10F6C0009EE11CC0813011F091E018C098E916C08D
:10F6D000892F807591F0903539F4E0E0F0E089E011
:10F6E0008093570094910AC0983539F4E3E0F0E034
:10F6F00089E080935700949101C090E01A821B82A8
:10F700008D818C831D829E831F8227E030E009C299
:10F710001A8288E08B8381E48C8386E58D8382E581
:10F720008E8389E48F8383E5888780E589878FE5E9
:10F730008A8782E38B872BE030E0F3C18A818139AD
:10F7400041F0823941F0803911F48FE005C080E04A
:10F7500003C082E001C08AE01A828B8344C0772410
:10F76000739482C08D81882311F48EE12CC0813086
:10F7700011F081E028C088E926C01A82E1E0F0E0BB
:10F7800089E08093570084918B831C8224E030E0D1
:10F79000C8C18B81803589F48C81883039F4E2E0EE
:10F7A000F0E089E08093570084910DC0E0E0F0E044
:10F7B00089E080935700849106C0E3E0F0E089E09F
:10F7C0008093570084911A82DFCF8D81836C99E0FA
:10F7D000E1E0F0E0082E90935700E89507B600FCB2
:10F7E000FDCF1A821B8223E030E09BC180EC8A832C
:10F7F000CE5CDE4F188219821A821B82C253D1401E
:10F800008EC18A8190E0A0E0B0E0582F44273327D2
:10F8100022278B8190E0A0E0B0E0DC0199278827C7
:10F82000282B392B4A2B5B2B8D8190E0A0E0B0E098
:10F83000282B392B4A2B5B2B8C8190E0A0E0B0E089
:10F84000BA2FA92F982F8827282B392B4A2B5B2BCF
:10F85000220F331F441F551FC05EDE4F288339839C
:10F860004A835B83C052D1401A8259C13A81C95C34
:10F87000DE4F3883C753D140CA5CDE4F1882C6536F
:10F88000D1408B81C82EDD24CA5CDE4F488159816E
:10F89000C653D140C42AD52A933109F082C0CE5C28
:10F8A000DE4F88819981AA81BB81C253D1408050AB
:10F8B000904CA340B04030F583E0CE5CDE4FE88052
:10F8C000F9800A811B81C253D140F70100935B008C
:10F8D00080935700E89507B600FCFDCFCE5CDE4F65
:10F8E000088119812A813B81C253D14000501F4FAA
:10F8F0002F4F3F4FCE5CDE4F088319832A833B8313
:10F90000C253D140C05EDE4F488159816A817B81FC
:10F91000C052D140DE011B9631E08C9111962C91A2
:10F9200011971296C75CDE4F2883C953D140C85C3B
:10F93000DE4F1882C853D14090E0C85CDE4FE881AA
:10F94000F981C853D1408E2B9F2B0C01FA01609393
:10F950005B0030935700E89511244E5F5F4F6F4F67
:10F960007F4F0EEFE02E0FEFF02ECE0CDF1CC114F8
:10F97000D10499F685E0C05EDE4F088119812A81A5
:10F980003B81C052D140F80120935B008093570027
:10F99000E89507B600FCFDCF81E180935700E8951C
:10F9A00035C0C05EDE4F88819981AA81BB81C0527B
:10F9B000D140B695A795979587957C018601ABE0D8
:10F9C000AA2EB12CAC0EBD1E0BC0D5016D915D01F0
:10F9D000C7010F947FFE0894E11CF11C01501040F8
:10F9E0000115110591F7A60160E070E0440F551F65
:10F9F000661F771FC05EDE4FE880F9800A811B8199
:10FA0000C052D1404E0D5F1D601F711F1A82C05E33
:10FA1000DE4F488359836A837B83C052D1407FC0C5
:10FA2000FA80C55CDE4FF882CB53D140C65CDE4F16
:10FA30001882CA53D1408B81C82EDD24C65CDE4FAC
:10FA400008811981CA53D140C02AD12A1A828981DA
:10FA5000BE016D5F7F4F843121F59601C05EDE4FA0
:10FA6000E880F9800A811B81C052D1400BBFF701A9
:10FA700087919691DB018C9311969C936E5F7F4FDB
:10FA8000D801C7010296A11DB11DC05EDE4F88835B
:10FA90009983AA83BB83C052D14022503040F1F6F3
:10FAA00036C0C05EDE4F288139814A815B81C052F9
:10FAB000D1400894C108D108760100E010E0089414
:10FAC000C11CD11C0894E11CF11C011D111DE20E8A
:10FAD000F31E041F151F21BDBB27A52F942F832FB5
:10FAE00082BD2F5F3F4F4F4F5F4FF89A80B5DB01CC
:10FAF0008D93BD012E153F054007510761F7C05E8C
:10FB0000DE4F288339834A835B83C052D1409601FC
:10FB10002D5F3F4FFB01108204C080EC8A8322E0FE
:10FB200030E08BE18093C6008091C00086FFFCCF5F
:10FB30008091C00080648093C000C15DDE4FF88179
:10FB4000CF52D140F093C6008091C00086FFFCCF19
:10FB50008091C00080648093C000432F3093C60022
:10FB60008091C00086FFFCCF8091C00080648093AC
:10FB7000C000922F2093C6008091C00086FFFCCF6A
:10FB80008091C00080648093C0008EE08093C600A6
:10FB90008091C00086FFFCCF8091C000806480937C
:10FBA000C00065E1C15DDE4FE880CF52D1406E25D7
:10FBB00069276427FE01319610C090819093C6009A
:10FBC0008091C00086FFFCCF31968091C000806498
:10FBD0008093C0006927215030402115310569F715
:10FBE0006093C6008091C00086FFFCCF8091C0006A
:10FBF00080648093C00085B1805885B9772081F4F6
:10FC0000C15DDE4F0881CF52D1400F5FC15DDE4F35
:10FC10000883CF52D14090E0A0E0B0E00D941AF4F8
:10FC200027982F9880E090E020ED37E0F901319798
:10FC3000F1F7019684369105C9F700008091C00064
:10FC40008D7F8093C00081E180935700E895EE2777
:10FC5000FF270994FFCF90E00D941AF497FB092E2B
:10FC600007260AD077FD04D02ED006D000201AF443
:10FC7000709561957F4F0895F6F7909581959F4F08
:10FC80000895A1E21A2EAA1BBB1BFD010DC0AA1FDD
:10FC9000BB1FEE1FFF1FA217B307E407F50720F0F5
:10FCA000A21BB30BE40BF50B661F771F881F991F70
:10FCB0001A9469F760957095809590959B01AC01B9
:10FCC000BD01CF010895AA1BBB1B51E107C0AA1FAC
:10FCD000BB1FA617B70710F0A61BB70B881F991FED
:10FCE0005A95A9F780959095BC01CD010895F99991
:10FCF000FECF92BD81BDF89A992780B50895262F31
:10FD0000F999FECF1FBA92BD81BD20BD0FB6F89400
:0EFD1000FA9AF99A0FBE01960895F894FFCF63
:00000001FF
