:100000000C9449010C946D010C946D010C946D01DC
:100010000C946D010C946D010C946D010C946D01A8
:100020000C946D010C946D010C946D010C946D0198
:100030000C946D010C946D010C946D010C946D0188
:100040000C946D010C946D010C946D010C946D0178
:100050000C946D010C946D010C946D010C94F804DA
:100060000C946D010C946D010C946D010C946D0158
:100070000C946D010C946D010C946D010C946D0148
:100080000C946D010C946D010C946D010C946D0138
:100090000C946D010C946D010C946D010C946D0128
:1000A0000C946D010C946D010C946D010C946D0118
:1000B0000C946D010C946D010C946D010C946D0108
:1000C0000C946D010C946D010C946D010C946D01F8
:1000D0000C946D010C946D010C946D010C946D01E8
:1000E0000C946D010C941C030C94C1020C94D2016D
:1000F0000C94A3020C9497010C9493010C94BA01F4
:100100000C94C9020C94CE010C94DB020C94FE02F8
:100110000C94C8010C94E5020C948D010C943003EE
:100120000C94B2010C94A2010C949B010C94CD018F
:100130000C9426030C94EF020C9408030C949F017A
:100140000C94C0010C94B7020C9412030C94AD02F1
:100150000C94D1020C94B6010C9496020C94AC0150
:100160000C94A8010C94C4010C94DD060C949E021E
:1001700000002100240027002A002D003000330059
:1001800001010000040107010A010000220025000E
:1001900028002B002E003100340002010000050170
:1001A00008010B01000020002300260029002C007C
:1001B0002F003200000100000301060109010505BE
:1001C0000505070508080808020202020A0A0808CD
:1001D00004040404010101010101010103030303FB
:1001E00003030303040707070C0C0C0C0C0C0C0C8A
:1001F0000202020206060606060606060B0B0B0B9B
:100200000B0B0B0B010210202008081020401020BF
:1002100040800201020108040201010204081020CA
:1002200040808040201008040201800402018040C8
:100230002010080402010804020101020408102031
:100240004080010204081020408000000A0B0209CF
:100250000C0D0E0807030401000000000000000060
:10026000000000000000000000000000000000008E
:10027000000000000000121110000000000000004B
:10028000000000000000000000000000000000006E
:10029000DD0611241FBECFEFD1E2DEBFCDBF00E0EF
:1002A0000CBF22E0A0E0B2E001C01D92A836B20768
:1002B000E1F711E0C9E4D1E000E006C021970109AF
:1002C000802FFE010E944F07C834D10780E0080745
:1002D000A9F70E9442050C9457070C940000815026
:1002E000823108F05AC0E82FF0E08827E558FE4F29
:1002F0008F4F0C944F079B019F018D019301970134
:10030000CD01A201A801AC01B201B601BA01C00140
:10031000C401CD01C801CE01D201809180008F7748
:10032000809380000895809180008F7DF9CF809127
:100330008000877FF5CF84B58F7784BD089584B51D
:100340008F7DFBCF8091B0008F778093B0000895B0
:100350008091B0008F7DF9CF809190008F7780934E
:1003600090000895809190008F7DF9CF809190004A
:10037000877FF5CF8091A0008F778093A0000895AC
:100380008091A0008F7DF9CF8091A000877FF5CF6D
:10039000809120018F778093200108958091200122
:1003A0008F7DF9CF80912001877FF5CFCF93DF93A9
:1003B000282F30E0F901E65BFD4F8491F901EC5FF5
:1003C000FD4FD491F901E254FE4FC491CC23A1F02A
:1003D00081110E946F01EC2FF0E0EE0FFF1FEC5532
:1003E000FE4FA591B491EC91ED2381E090E009F4EA
:1003F00080E0DF91CF91089580E090E0FACF1F93E5
:10040000CF93DF93282F30E0F901E65BFD4F849115
:10041000F901EC5FFD4FD491F901E254FE4FC49114
:10042000CC23A9F0162F81110E946F01EC2FF0E070
:10043000EE0FFF1FE657FE4FA591B4918FB7F894CA
:10044000EC91111108C0D095DE23DC938FBFDF91B2
:10045000CF911F910895DE2BF8CFCF93DF9390E0DB
:10046000FC01EC5FFD4F249182549E4FFC0184916E
:100470008823D1F090E0880F991FFC01E059FE4FCE
:10048000A591B491FC01E657FE4FC591D49161113D
:100490000EC09FB7F8948C91E22FE0958E238C9339
:1004A0002881E223E8839FBFDF91CF9108958FB722
:1004B000F894EC91E22BEC938FBFF6CF1F93CF9380
:1004C000DF93182FEB0161E00E942D02209739F491
:1004D00060E0812FDF91CF911F910C94FF01CF3FFE
:1004E000D10511F461E0F5CFE12FF0E0E65BFD4FBF
:1004F000E491E150E23108F0B3C0F0E08827EC5716
:10050000FD4F8F4F0C944F0796029E02A302AD023F
:10051000B7023003C102C902D102DB02E502EF02D9
:10052000FE020803300312031C03260384B580680F
:1005300084BDC7BDDF91CF911F91089584B58062BE
:1005400084BDC8BDF7CF8091800080688093800013
:10055000D0938900C0938800EDCF809180008062A5
:1005600080938000D0938B00C0938A00E3CF80916A
:100570008000886080938000D0938D00C0938C00B1
:10058000D9CF8091B00080688093B000C093B30051
:10059000D1CF8091B00080628093B000C093B4004E
:1005A000C9CF80919000806880939000D09399008B
:1005B000C0939800BFCF809190008062809390009C
:1005C000D0939B00C0939A00B5CF80919000886033
:1005D00080939000D0939D00C0939C00ABCF8091FE
:1005E000A00080688093A0008091A0008F7B809302
:1005F000A000D093A900C093A8009CCF8091A00038
:1006000080628093A000D093AB00C093AA0092CFE9
:100610008091A00088608093A000D093AD00C0932B
:10062000AC0088CF80912001806880932001D09316
:100630002901C09328017ECF8091200180628093A0
:100640002001D0932B01C0932A0174CF8091200107
:10065000886080932001D0932D01C0932C016ACF34
:10066000C038D1050CF03ECF33CF3FB7F89480911E
:10067000050290910602A0910702B091080226B5EA
:10068000A89B05C02F3F19F00196A11DB11D3FBFCA
:10069000BA2FA92F982F8827BC01CD01620F711D99
:1006A000811D911D42E0660F771F881F991F4A9593
:1006B000D1F708958F929F92AF92BF92CF92DF921F
:1006C000EF92FF926B017C010E9435034B015C01AC
:1006D000C114D104E104F104B9F00E943503681992
:1006E00079098A099B09683E73408105910580F369
:1006F00021E0C21AD108E108F10888EE880E83E0F3
:10070000981EA11CB11CE4CFFF90EF90DF90CF901A
:10071000BF90AF909F908F900895CF93DF93EC019F
:1007200062E370E08AE00E945E0262E370E089E0CA
:100730000E945E0260E085E00E94FF0161E084E0CB
:100740000E94FF0161E083E00E94FF0160E082E01F
:100750000E94FF0164E670E082E30E945E0270E0A6
:1007600060E083E30E945E0270E060E084E30E9448
:100770005E0260E085E30E94FF01BE01DD0F880B91
:10078000990BDF91CF910C945A03CF93DF93EC0137
:1007900062E370E08AE00E945E0262E370E089E05A
:1007A0000E945E0261E085E00E94FF0160E084E05B
:1007B0000E94FF0160E083E00E94FF0161E082E0AF
:1007C0000E94FF0170E060E082E30E945E0270E040
:1007D00060E083E30E945E0264E670E084E30E94CE
:1007E0005E0260E085E30E94FF01BE01DD0F880B21
:1007F000990BDF91CF910C945A0360E085E00E9441
:10080000FF0160E084E00E94FF0160E083E00E945D
:10081000FF0160E082E00E94FF0170E060E082E39F
:100820000E945E0270E060E083E30E945E0270E07E
:1008300060E084E30E945E0260E085E30C94FF01C7
:1008400064E670E08AE00E945E0264E670E089E09F
:100850000E945E0260E085E00E94FF0161E084E0AA
:100860000E94FF0160E083E00E94FF0161E082E0FE
:100870000E94FF0170E060E082E30E945E0264E695
:1008800070E083E30E945E0270E060E084E30E9417
:100890005E0264E685E30C94FF0164E670E08AE0A2
:1008A0000E945E0264E670E089E00E945E0261E000
:1008B00085E00E94FF0160E084E00E94FF0161E0AA
:1008C00083E00E94FF0160E082E00E94FF0164E695
:1008D00070E082E30E945E0270E060E083E30E94C9
:1008E0005E0264E670E084E30E945E0260E085E3FD
:1008F0000C94FF01CF92DF92EF92FF920F931F9320
:10090000CF93DF931F921F92CDB7DEB769834A83DF
:10091000880F991F0091660210916702000F111F46
:10092000E0E1F2E09F01205132402017310714F43A
:100930001192F8CF2981FC01E05FFD4F21838A816C
:10094000808360E0809164020E94FF01101611060E
:1009500004F501501109F801E05FFD4FE080D090EF
:100960006202C090600288E0F82E6E2D661F662736
:10097000661F8C2D0E94FF01EE0C61E08D2D0E9400
:10098000FF0160E08D2D0E94FF01FA94F110EDCF80
:10099000DDCF61E0809164020F900F90DF91CF91E5
:1009A0001F910F91FF90EF90DF90CF900C94FF017B
:1009B000EF92FF920F931F93CF937C018C0183E002
:1009C000000F111F8A95E1F7005E1D4FC1E0F8018D
:1009D00011928F0140E06C2FC7010E947A04CF5F13
:1009E000C930A9F7CF911F910F91FF90EF90089513
:1009F0001F920F920FB60F9211242F933F938F9354
:100A00009F93AF93BF938091010290910202A091B6
:100A10000302B09104023091000223E0230F2D372E
:100A200058F50196A11DB11D20930002809301028B
:100A300090930202A0930302B093040280910502F6
:100A400090910602A0910702B09108020196A11DA3
:100A5000B11D8093050290930602A0930702B09304
:100A60000802BF91AF919F918F913F912F910F906D
:100A70000FBE0F901F90189526E8230F0296A11D18
:100A8000B11DD2CF789484B5826084BD84B5816075
:100A900084BD85B5826085BD85B5816085BD809149
:100AA0006E00816080936E001092810080918100C1
:100AB00082608093810080918100816080938100B9
:100AC000809180008160809380008091B10084607B
:100AD0008093B1008091B00081608093B0008091DC
:100AE0009100826080939100809191008160809359
:100AF0009100809190008160809390008091A1008E
:100B000082608093A1008091A10081608093A10008
:100B10008091A00081608093A0008091210182607B
:100B20008093210180912101816080932101809136
:100B3000200181608093200180917A0084608093FD
:100B40007A0080917A00826080937A0080917A00A6
:100B5000816080937A0080917A00806880937A0027
:100B60001092C10060E088E00E942D0260E087E002
:100B70000E942D0260E086E00E942D0260E08DE080
:100B80000E942D0260E08CE00E942D0260E08BE06C
:100B90000E942D0261E085E00E942D0261E084E068
:100BA0000E942D0261E083E00E942D0261E082E05C
:100BB0000E942D0261E08AE00E942D0261E089E03E
:100BC0000E942D0280916602909167021816190604
:100BD00034F441E06CE090E080E00E947A0480917F
:100BE0006602909167021816190634F44FE06AE025
:100BF00090E080E00E947A04809166029091670202
:100C00001816190624F490E080E00E94D80461E0F0
:100C100082E30E942D0261E084E30E942D0261E0E4
:100C200083E30E942D0261E085E30E942D0280E0B3
:100C3000C82E80E0D82EC1E0AA24A394B12C8DE068
:100C40000E94D6017C0190930F0280930E028CE0EB
:100C50000E94D6018C0190930D0280930C028BE0D0
:100C60000E94D60121E0E216F10449F40130110599
:100C700009F58130910599F4C0930B0218C0EF2853
:100C8000F9F40130110519F50097B1F30197C1F49A
:100C9000C0930B0281E090E00E94C50308C0892B3D
:100CA00079F4C0930B0281E090E00E948D030E94D2
:100CB0004D0406C0012B21F4892B11F4C0930B02C3
:100CC000C114D10409F4BBCF0E940000B8CF012B9E
:100CD000B9F78130910591F3892B91F780910B023F
:100CE000882371F310920B020E94200468EC70E0DC
:100CF00080E090E00E945A030E94FD036CE474E0DF
:100D000080E090E00E945A038091090290910A02CB
:100D1000892B09F041C084E398E00E94C5030E943A
:100D2000FD0365EF70E080E090E00E945A030E94AE
:100D30004D0464EF71E080E090E00E945A038CE083
:100D40000E94D6018C0190930D0280930C020E94A8
:100D5000FD0368EE73E080E090E00E945A030130EA
:100D6000110529F410920A021092090285CF0E94FF
:100D7000200464EF71E080E090E00E945A03B0929A
:100D80000A02A09209020E94200463E270E080E05F
:100D900090E00E945A038BCF84E090E10E948D0383
:100DA0000E94FD0365EF70E080E090E00E945A032E
:100DB00010920A02109209027ACFCF93DF93CFE20A
:100DC000D0E0D0936102C093600280E390E0909302
:100DD00063028093620281E390E0909365028093C6
:100DE000640281E090E0909367028093660261E084
:100DF0008FE20E942D0261E0809162020E942D022A
:100E000061E0809164020E942D0261E080916402A1
:100E10000E94FF01D0936102C0936002E0E2F2E021
:100E2000119282E0E036F807D9F7D0E0C0E0809177
:100E3000660290916702C817D90774F540E06FE029
:100E4000CE010E947A048091660290916702C817D1
:100E5000D9072CF447E06BE0CE010E947A0440E011
:100E600069E0CE010E947A04809166029091670247
:100E7000C817D9071CF4CE010E94D80480916602DD
:100E800090916702C817D9072CF440E06CE0CE01BE
:100E90000E947A042196CBCFDF91CF910895EE0F77
:100EA000FF1F881F8BBF0790F691E02D1994F894CF
:020EB000FFCF72
:00000001FF
