:020000040000FA
:100000000C946E010C949F010C949F010C949F0121
:100010000C949F010C949F010C949F010C949F01E0
:100020000C949F010C949F010C949F010C949F01D0
:100030000C949F010C949F010C949F010C949F01C0
:100040000C949F010C94950C0C949F010C949F01AF
:100050000C949F010C949F010C949F010C94C10B74
:100060000C949F010C948B0B0C94610B0C949F01CE
:100070000C949F010C949F010C949F010C949F0180
:100080000C94670C0C949F010C949F010C949F019D
:100090000C949F010C949F010C949F010C949F0160
:1000A0000C949F010C949F010C94390C0C949F01AB
:1000B0000C949F010C949F010C949F010C940B0CC9
:1000C0000C949F010C949F010C949F010C949F0130
:1000D0000C949F010C949F010C949F010C949F0120
:1000E0000C949F010C9437020C94FF010C94A20510
:1000F0000C946E040C9433030C944B040C94410444
:100100000C9412030C94BC050C94FC030C94260371
:100110000C9464040C94F9020C94E0050C94CE0148
:100120000C948C040C9437040C942E030C945504FA
:100130000C9420030C9478050C94F3020C94161282
:100140000C9484020C94FD020C94BA050C941C03CC
:100150000C941D040C94DD010C94CC050C948204C9
:100160000C9404040C942A030C9490050C9405033D
:100170000C9434030C94F1010C9438030C94820514
:100180000C940E030C9408030C942F040C94090493
:100190000C9496040C9413040C9478040C94A10110
:1001A0000C94C30C0C94DA050C94C2050C94010356
:1001B0000C9427040C94180300002100240027004D
:1001C0002A002D0030003300010100000401070166
:1001D0000A0100002200250028002B002E0031001B
:1001E000340002010000050108010B01000020009D
:1001F0002300260029002C002F00320000010000FF
:100200000301060109010505050507050808080899
:10021000020202020A0A080804040404010101019E
:100220000101010103030303030303030407070799
:100230000C0C0C0C0C0C0C0C02020202060606063E
:10024000060606060B0B0B0B0B0B0B0B010210200B
:1002500020080810204010204080020102010804FC
:100260000201010204081020408080402010080490
:1002700002018004020180402010080402010804E9
:10028000020101020408102040800102040810202D
:10029000408000000A0B02090C0D0E080703040140
:1002A000000000000000000000000000000000004E
:1002B000000000000000000000000000000012111B
:1002C000100000000000000000000000000000001E
:1002D0000000000000000000C30C161211241FBE15
:1002E000CFEFD1E2DEBFCDBF00E00CBF12E0A0E057
:1002F000B2E0E8EDF9E200E00BBF02C007900D921A
:10030000A03CB107D9F724E0A0ECB2E001C01D92F7
:10031000AE3CB207E1F711E0CDE6D1E000E006C067
:1003200021970109802FFE010E94A812CC36D10727
:1003300080E00807A9F70E94720E0C94DA140C945E
:100340000000AF92BF92CF92DF92EF92FF920F9395
:100350001F93CF93DF936C017B018B01040F151F5B
:10036000EB015E01AE18BF08C017D10759F06991C3
:10037000D601ED91FC910190F081E02DC601199517
:10038000892B79F7C501DF91CF911F910F91FF90D4
:10039000EF90DF90CF90BF90AF900895FC01538D08
:1003A000448D252F30E0842F90E0821B930B54174F
:1003B00010F0CF96089501970895FC01918D828DDC
:1003C000981761F0A28DAE0FBF2FB11D5D968C9175
:1003D000928D9F5F9F73928F90E008958FEF9FEFB4
:1003E0000895FC01918D828D981731F0828DE80F70
:1003F000F11D858D90E008958FEF9FEF0895FC012A
:10040000918D228D892F90E0805C9F4F821B9109F6
:100410008F73992708958AED92E00E94FF0121E0F1
:10042000892B09F420E0822F0895FC01A48DA80FE8
:10043000B92FB11DA35ABF4F2C91848D90E0019626
:100440008F739927848FA689B7892C93A089B18946
:100450008C91837080648C93938D848D981306C0E7
:100460000288F389E02D80818F7D80830895EF924B
:10047000FF920F931F93CF93DF93EC0181E0888F5E
:100480009B8D8C8D98131AC0E889F989808185FF2E
:1004900015C09FB7F894EE89FF896083E889F989D0
:1004A00080818370806480839FBF81E090E0DF91D2
:1004B000CF911F910F91FF90EF900895F62E0B8D25
:1004C00010E00F5F1F4F0F731127E02E8C8D8E11E0
:1004D0000CC00FB607FCFACFE889F989808185FF47
:1004E000F5CFCE010E941502F1CFEB8DEC0FFD2F61
:1004F000F11DE35AFF4FF0829FB7F8940B8FEA8902
:10050000FB8980818062CFCFCF93DF93EC01888D10
:100510008823B9F0AA89BB89E889F9898C9185FD7E
:1005200003C0808186FD0DC00FB607FCF7CF8C910C
:1005300085FFF2CF808185FFEDCFCE010E941502AD
:10054000E9CFDF91CF91089580E090E0892B29F0E9
:100550000E940B0281110E94000080E090E0892B34
:1005600049F080E090E0892B29F00E940000811181
:100570000E94000080E090E0892B49F080E090E04C
:10058000892B29F00E94000081110E94000080E068
:1005900090E0892B49F080E090E0892B29F00E94BF
:1005A000000081110C94000008958150823108F000
:1005B0005AC0E82FF0E08827EF51FD4F8F4F0C9481
:1005C000A81201030503F302F902FD023303080335
:1005D0000E03120318031C03200326032A0333030C
:1005E0002E0334033803809180008F77809380003E
:1005F0000895809180008F7DF9CF80918000877F62
:10060000F5CF84B58F7784BD089584B58F7DFBCFFA
:100610008091B0008F778093B00008958091B000F2
:100620008F7DF9CF809190008F778093900008950F
:10063000809190008F7DF9CF80919000877FF5CFDA
:100640008091A0008F778093A00008958091A000F2
:100650008F7DF9CF8091A000877FF5CF8091200119
:100660008F77809320010895809120018F7DF9CFAD
:1006700080912001877FF5CFCF93DF93282F30E043
:10068000F901EE56FD4F8491F901E45BFD4FD491E1
:10069000F901EA5FFD4FC491CC23A1F081110E94C2
:1006A000D502EC2FF0E0EE0FFF1FE451FE4FA591B5
:1006B000B491EC91ED2381E090E009F480E0DF91CA
:1006C000CF91089580E090E0FACF1F93CF93DF930E
:1006D000282F30E0F901EE56FD4F8491F901E45BDB
:1006E000FD4FD491F901EA5FFD4FC491CC23A9F0ED
:1006F000162F81110E94D502EC2FF0E0EE0FFF1FA4
:10070000EE52FE4FA591B4918FB7F894EC91111170
:1007100008C0D095DE23DC938FBFDF91CF911F916E
:100720000895DE2BF8CFCF93DF9390E0FC01E45BDC
:10073000FD4F24918A5F9D4FFC0184918823D1F065
:1007400090E0880F991FFC01E854FE4FA591B491E9
:10075000FC01EE52FE4FC591D49161110EC09FB7BE
:10076000F8948C91E22FE0958E238C932881E223DC
:10077000E8839FBFDF91CF9108958FB7F894EC91F4
:10078000E22BEC938FBFF6CF1F93CF93DF93182FFD
:10079000EB0161E00E949303209739F460E0812F20
:1007A000DF91CF911F910C946503CF3FD10511F4D8
:1007B00061E0F5CFE12FF0E0EE56FD4FE491E1501E
:1007C000E23108F0B3C0F0E08827E651FC4F8F4FCC
:1007D0000C94A812FC030404090413041D049604D9
:1007E00027042F04370441044B04550464046E04A9
:1007F0009604780482048C0484B5806884BDC7BDE7
:10080000DF91CF911F91089584B5806284BDC8BDEA
:10081000F7CF80918000806880938000D09389001A
:10082000C0938800EDCF809180008062809380002B
:10083000D0938B00C0938A00E3CF809180008860C2
:1008400080938000D0938D00C0938C00D9CF80918D
:10085000B00080688093B000C093B300D1CF809186
:10086000B00080628093B000C093B400C9CF809183
:100870009000806880939000D0939900C093980076
:10088000BFCF80919000806280939000D0939B00B6
:10089000C0939A00B5CF80919000886080939000BB
:1008A000D0939D00C0939C00ABCF8091A000806846
:1008B0008093A0008091A0008F7B8093A000D093B4
:1008C000A900C093A8009CCF8091A0008062809373
:1008D000A000D093AB00C093AA0092CF8091A0005B
:1008E00088608093A000D093AD00C093AC0088CF07
:1008F00080912001806880932001D0932901C093CA
:1009000028017ECF80912001806280932001D093C6
:100910002B01C0932A0174CF8091200188608093BD
:100920002001D0932D01C0932C016ACFC038D1058E
:100930000CF03ECF33CF3FB7F8948091CB0290912B
:10094000CC02A091CD02B091CE0226B5A89B05C0E5
:100950002F3F19F00196A11DB11D3FBFBA2FA92F3E
:10096000982F8827BC01CD01620F711D811D911D3B
:1009700042E0660F771F881F991F4A95D1F70895A7
:100980008F929F92AF92BF92CF92DF92EF92FF929F
:100990006B017C010E949B044B015C01C114D104DA
:1009A000E104F104B9F00E949B04681979098A09ED
:1009B0009B09683E73408105910580F321E0C21ACE
:1009C000D108E108F10888EE880E83E0981EA11C8A
:1009D000B11CE4CFFF90EF90DF90CF90BF90AF902D
:1009E0009F908F9008950F931F93CF93DF93EC0107
:1009F0008B0188859985029751F46130710509F45E
:100A00003AC06CF560E00115110509F435C0888520
:100A10009985049751F40130110509F455C00CF083
:100A200035C00115110509F43EC0888599850597E3
:100A300009F0C8C00A30110508F0C4C0F8018827C1
:100A4000EB5DFA4F8F4F0C94A81278058205900544
:100A5000A205BA05BC05C205CC05DA05E005623081
:100A6000710591F060E00330110589F68C850E94D4
:100A7000650360E005C061E08C850E94650361E06C
:100A80008E850E946503C3CF61E0F0CF023011056F
:100A900009F10330110509F0C8CF61E08C850E948F
:100AA000650360E01CC061E08C850E94650360E026
:100AB0008E850E94650361E088890E94650360E07D
:100AC0008A890E946503B1CF60E08C850E9465032E
:100AD00061E0EECF60E08C850E94650361E08E8569
:100AE0000E94650360E088890E94650361E0E8CFA9
:100AF00060E08C850E94650361E08E850E9465033D
:100B000061E009C060E08C850E94650361E08E852C
:100B10000E94650360E088890E94650360E00DC063
:100B200060E08C850E94650361E08E850E9465030C
:100B300060E088890E94650361E08A890E946503FC
:100B400061E011C060E08C850E94650361E08E85E4
:100B50000E94650360E088890E94650361E08A89DC
:100B60000E94650360E08C89DF91CF911F910F9106
:100B70000C94650361E0E7CF61E08C850E9465031A
:100B800060E0E5CF61E08C850E94650360E08E85C2
:100B90000E94650361E0DFCF61E08C850E94650300
:100BA00060E08E850E94650361E088890E9465038C
:100BB00060E0D5CF61E08C850E94650360E09DCF49
:100BC00060E0F9CFDF91CF911F910F910895CF92FF
:100BD000DF92EF92FF920F931F93CF93DF93EC017D
:100BE0006130710509F045C0798368830E949B04D8
:100BF0000E891F89288D398D6B017C01C01AD10A9D
:100C0000E20AF30A0A811B812C813D81C016D106BC
:100C1000E206F30658F36E8B7F8B888F998F8A8557
:100C20009B85288139812130310549F501969B87C3
:100C30008A872E813F818217930711F41B861A86BB
:100C40008A859B85288539856AE070E025303105E5
:100C500011F064E070E00E949412BC01CE01DF91BB
:100C6000CF911F910F91FF90EF90DF90CF900C9458
:100C7000F3046F3F7F4F79F419821882B7CF892B25
:100C800021F48E819F819B878A878A859B85019726
:100C90009B878A87D5CFDF91CF911F910F91FF90CE
:100CA000EF90DF90CF900895CF92DF92EF92FF9276
:100CB000CF93DF93EC01603282E07807CCF5653B9F
:100CC000710514F064EB70E0898128E830E0281B9E
:100CD000310987FD3395220F331F220F331F69011E
:100CE000330FEE08FF088A8128E532E0281B31091E
:100CF00087FD3395220F331F220F331F032E000C65
:100D0000440B550B2C193D094E095F09DB0177FF98
:100D100002C0B0E0A0E00E944F1224EB30E040E0BF
:100D200050E00E942512C20ED31EE41EF51EB6012D
:100D3000E881E03370F5298188E890E0821B910911
:100D400027FD9395880F991F880F991F68177907BA
:100D50007CF02A8188E592E0821B910927FD93951A
:100D6000880F991F880F991F681779070CF4CB011A
:100D70000297880F991F4FB7F8942E2F30E0F90192
:100D8000EE0FFF1FE20FF31FE958FC4F92838183A0
:100D90004FBFDF91CF91FF90EF90DF90CF900895FC
:100DA0001F93CF93DF93EC01162F8881803308F0D7
:100DB0004EC061E0812F0E9493038881282F30E08C
:100DC000F901EE0FFF1FE20FF31FE958FC4F1F73ED
:100DD0006081607C612B608319821A822CE0622F13
:100DE0000E948812829FB001112430E020E0AB0104
:100DF000420F531FFA01EE0FFF1FE40FF51FE958D2
:100E0000FC4F908196FD16C02F5F3F4F2C3031056F
:100E100071F7813009F51092800082E080938100A3
:100E20001092850010928400B19A80916F008260C8
:100E300080936F00E8818E2F90E0FC01EE0FFF1F82
:100E4000E80FF91FE958FC4F808180648083888116
:100E5000DF91CF911F910895823061F4109290003C
:100E600080939100109295001092940088BB80931B
:100E70007100E0CF833069F41092A00082E080938B
:100E8000A1001092A5001092A40089BB809372006B
:100E9000D1CF8111CFCF1092200182E08093210128
:100EA00010922501109224018ABB80937300C2CF57
:100EB000AF92BF92CF92DF92EF92FF920F931F9368
:100EC000CF93DF936B017A01EC01CE53DD4F288184
:100ED0003CE0389F8001399F100D1124A090070439
:100EE000B12C27FF1FC0FB011182108288818F5F08
:100EF000888388819801280F311D87FD3A95F60176
:100F00002A153B051CF488818C30C4F180819181C5
:100F1000049680349C4908F473C0F6018081918165
:100F2000049670C088819801280F311D87FD3A957D
:100F30002A153B05DCF68881A801480F511D87FD65
:100F40005A95FA01EE0FFF1FE40FF51FE958FC4F09
:100F5000808186FFCBCF8881F801E80FF11D87FDE6
:100F6000FA95CF01EE0FFF1FE80FF91FE958FC4F6C
:100F7000808160E08F730E946503B8CF808191818A
:100F80002881A801420F511D27FD5A959A01FA01A7
:100F9000EE0FFF1FE20FF31FE958FC4F2181328152
:100FA000820F931FF7019183808388819801280F16
:100FB000311D87FD3A95F901EE0FFF1FE20FF31F78
:100FC000E958FC4F808186FF22C08881080F111DDF
:100FD00087FD1A95F801EE0FFF1FE00FF11FE9588A
:100FE000FC4F808161E08F73DF91CF911F910F9152
:100FF000FF90EF90DF90CF90BF90AF900C9465037F
:1010000080E49CE9F701918380838FEF8883DF91EF
:10101000CF911F910F91FF90EF90DF90CF90BF90F5
:10102000AF900895CF93DF93EC0162E370E08AE024
:101030000E94C40362E370E089E00E94C40360E0A0
:1010400085E00E94650361E084E00E94650361E041
:1010500083E00E94650360E082E00E946503BE01B8
:10106000DD0F880B990BDF91CF910C94C004CF93C7
:10107000DF93EC0162E370E08AE00E94C40362E364
:1010800070E089E00E94C40361E085E00E9465038E
:1010900060E084E00E94650360E083E00E946503F5
:1010A00061E082E00E946503BE01DD0F880B990BB1
:1010B000DF91CF910C94C00460E085E00E9465034D
:1010C00060E084E00E94650360E083E00E946503C5
:1010D00060E082E00C94650364E670E08AE00E94C0
:1010E000C40364E670E089E00E94C40360E085E028
:1010F0000E94650361E084E00E94650360E083E094
:101100000E94650361E082E00C946503CF92DF9258
:10111000EF92FF920F931F93CF93DF931F921F9233
:10112000CDB7DEB769834A83880F991F00918E047B
:1011300010918F04000F111FE8E3F4E09F01285382
:1011400034402017310714F41192F8CF2981FC01A3
:10115000E85CFB4F21838A81808360E080918C046E
:101160000E9465031016110604F501501109F801DB
:10117000E85CFB4FE080D0908A04C090880488E04F
:10118000F82E6E2D661F6627661F8C2D0E94650344
:10119000EE0C61E08D2D0E94650360E08D2D0E94B4
:1011A0006503FA94F110EDCFDDCF61E080918C04FE
:1011B0000F900F90DF91CF911F910F91FF90EF90C3
:1011C000DF90CF900C946503EF92FF920F931F93E3
:1011D000CF937C018C0183E0000F111F8A95E1F70A
:1011E000085B1B4FC1E0F80111928F0140E06C2FAA
:1011F000C7010E948608CF5FC930A9F7CF911F9120
:101200000F91FF90EF900895CF93DF93FC01019031
:101210000020E9F73197AF01481B590BBC018AED5B
:1012200092E00E94A101EC0142E050E06FE172E027
:101230008AED92E00E94A1018C0F9D1FDF91CF915A
:1012400008950F931F93CF93DF93EC0188819981C9
:10125000009759F02A813B812617370730F081E04B
:10126000DF91CF911F910F9108958B016F5F7F4F99
:101270000E94E913009759F0998388831B830A839E
:101280002C813D81232B59F7FC011082E8CF80E0AF
:10129000E7CFEF92FF920F931F93CF93DF936115E8
:1012A000710541F480E0DF91CF911F910F91FF9084
:1012B000EF90089541155105B1F07B01EC010C81CF
:1012C0001D81040F151FB8010E942109882351F3C5
:1012D000288139818C819D81B701820F931F0E94E3
:1012E000D3141D830C8381E0DECFCF93DF93EC0119
:1012F00088819981009711F00E94601319821882E9
:101300001D821C821B821A82DF91CF910895EF9279
:10131000FF920F931F93CF93DF93EC017B018A0120
:10132000BA010E94210981110BC0CE010E947509EA
:10133000CE01DF91CF911F910F91FF90EF90089513
:101340001D830C83B701888199810E94D314F0CF4B
:10135000CF93DF93EC01FB018617970749F060817B
:1013600071816115710541F0448155810E948709A1
:10137000CE01DF91CF9108950E947509F9CFFC014C
:10138000118210821382128215821482FB01019055
:101390000020E9F73197AF01461B570B0C948709E2
:1013A000FC0180819181009711F00C9460130895E5
:1013B0008F929F92AF92BF92CF92DF92EF92FF9265
:1013C0000F931F93CF93DF93CDB7DEB768970FB618
:1013D000F894DEBF0FBECDBF64E670E08AE00E94E5
:1013E000C40364E670E089E00E94C40361E085E024
:1013F0000E94650360E084E00E94650361E083E091
:101400000E94650360E082E00E9465038091C00253
:101410009091C10201969093C1028093C0020897F7
:1014200009F03CC180910602882309F4A5C080918F
:1014300002029091030220910502222309F49AC02E
:1014400001979093030280930202A0900002B09053
:10145000010228E0A216B10440F4E0900202F090EC
:10146000030238E0E316F10498F183E090E09093F2
:10147000010280930002909303028093020208E02D
:1014800014E058E3E52E54E0F52E48E050E062E227
:1014900072E0C8010E9487090A5F1F4FE016F1063B
:1014A000A1F780918E0490918F041816190624F4E8
:1014B00090E080E00E94E40864E670E080E090E064
:1014C0000E94C00433E0E32EF12C43E0A42EB12CA3
:1014D000809102029091030226E0D22ED89EB001A4
:1014E000D99E700D1124685F7B4F1C8A1B8A1E8A4F
:1014F0001D8A188E1F8ACE0143960E94A80961E2B8
:1015000072E0CE010D960E94BF0961E272E0CE0149
:1015100007960E94BF0910E000E0DE9CC001DF9C3E
:10152000900D1124FC01E85FFB4F6F014F01F4E0C7
:101530008F0E911CA016B10689F1F4018081918172
:101540000817190748F5F60180819181009721F16C
:10155000800F911FFC01808189831A8241E050E055
:10156000BE016F5F7F4FCE010D960E9449090F5F4C
:101570001F4FE0CF019665CF80910002909101024C
:1015800020910402222331F001979093010280936D
:1015900000025BCF0196F9CF80E0DECF0091000220
:1015A000109101020F5F1F4F26E02E9DC0012F9D5D
:1015B000900D11249C01285F3B4F6901590134E0D3
:1015C000A30EB11C08301105FCF4F5018081918156
:1015D00008171907B8F4F60180819181009791F0FE
:1015E000800F911FFC01808189831A8241E050E0C5
:1015F000BE016F5F7F4FCE0107960E9449090F5FC2
:101600001F4FE0CF80E0F0CF1A8219821C821B822C
:101610001E821D82BE01635F7F4FCE0101960E9434
:10162000A80941E050E06BE772E0CE0101960E940C
:101630004909811104C0CE0101960E9475094B85AC
:101640005C856F817885CE0101960E9449098111E0
:1016500004C0CE0101960E94750926E02E9DC001AE
:101660002F9D900D1124BE016F5F7F4F885F9B4FB0
:101670000E94A809CE0101960E94D009CE010796CA
:101680000E94D009CE010D960E94D009CE0143964A
:101690000E94D0091092C1021092C00268960FB643
:1016A000F894DEBF0FBECDBFDF91CF911F910F9198
:1016B000FF90EF90DF90CF90BF90AF909F908F9072
:1016C00008951F920F920FB60F9211240BB60F922E
:1016D0002F933F934F935F936F937F938F939F933A
:1016E000AF93BF93EF93FF938AED92E00E941502B0
:1016F000FF91EF91BF91AF919F918F917F916F91EA
:101700005F914F913F912F910F900BBE0F900FBEA5
:101710000F901F9018951F920F920FB60F921124E1
:101720000BB60F922F938F939F93EF93FF93E091BC
:10173000EA02F091EB028081E091F002F091F10277
:1017400082FD1DC090818091F3028F5F8F73209185
:10175000F402821741F0E091F302F0E0E652FD4F0F
:10176000958F8093F302FF91EF919F918F912F912D
:101770000F900BBE0F900FBE0F901F901895808199
:10178000F2CF1F920F920FB60F9211242F933F9317
:101790008F939F93AF93BF938091C7029091C8029C
:1017A000A091C902B091CA023091C60223E0230F72
:1017B0002D3758F50196A11DB11D2093C6028093C7
:1017C000C7029093C802A093C902B093CA02809145
:1017D000CB029091CC02A091CD02B091CE020196A5
:1017E000A11DB11D8093CB029093CC02A093CD029A
:1017F000B093CE02BF91AF919F918F913F912F9166
:101800000F900FBE0F901F90189526E8230F029699
:10181000A11DB11DD2CF1F920F920FB60F921124AE
:101820000BB60F922F933F934F935F936F937F93DA
:101830008F939F93AF93BF93EF93FF9348E251E051
:1018400064E271E090E080E00E945807FF91EF9120
:10185000BF91AF919F918F917F916F915F914F91C8
:101860003F912F910F900BBE0F900FBE0F901F90C6
:1018700018951F920F920FB60F9211240BB60F926C
:101880002F933F934F935F936F937F938F939F9388
:10189000AF93BF93EF93FF9348EA50E064EA70E0A0
:1018A00083E090E00E945807FF91EF91BF91AF91C4
:1018B0009F918F917F916F915F914F913F912F9168
:1018C0000F900BBE0F900FBE0F901F9018951F9298
:1018D0000F920FB60F9211240BB60F922F933F93D6
:1018E0004F935F936F937F938F939F93AF93BF9328
:1018F000EF93FF9348E950E064E970E082E090E004
:101900000E945807FF91EF91BF91AF919F918F91E6
:101910007F916F915F914F913F912F910F900BBEEF
:101920000F900FBE0F901F9018951F920F920FB639
:101930000F9211240BB60F922F933F934F935F9307
:101940006F937F938F939F93AF93BF93EF93FF9387
:1019500048E850E064E870E081E090E00E945807B9
:10196000FF91EF91BF91AF919F918F917F916F9177
:101970005F914F913F912F910F900BBE0F900FBE33
:101980000F901F9018950F931F93CF93DF93109292
:10199000DD021092DC0288EE93E0A0E0B0E08093DC
:1019A000DE029093DF02A093E002B093E10281E1B6
:1019B00092E09093DB028093DA0285EC90E09093C2
:1019C000E7028093E60284EC90E09093E902809332
:1019D000E80280EC90E09093EB028093EA0281ECC5
:1019E00090E09093ED028093EC0282EC90E0909373
:1019F000EF028093EE0286EC90E09093F1028093E8
:101A0000F0021092F3021092F4021092F50210927A
:101A1000F60280910704803308F028C191E0980F06
:101A2000909307048093C70490E0FC01EE0FFF1F22
:101A3000E80FF91FE958FC4F88EB9BE09283818304
:101A400080910704803308F015C191E0980F9093BE
:101A500007048093C40490E0FC01EE0FFF1FE80F21
:101A6000F91FE958FC4F88EB9BE092838183109229
:101A7000B5041092B4041092AB041092AA04109210
:101A8000C0041092C1041092C2041092C30408EC66
:101A900010E01093B1040093B00482E390E09093BF
:101AA000B7048093B60483E390E09093B9048093E5
:101AB000B80484E390E09093BB048093BA0485E378
:101AC00090E09093BD048093BC0461E082E30E94A7
:101AD000930361E08091B8040E94930361E08091D8
:101AE000BA040E94930361E08091BC040E949303B6
:101AF0001092BF041092BE04C4E0D0E0D093B304AF
:101B0000C093B20410929B0410929A041092910414
:101B1000109290041092A6041092A7041092A804A8
:101B20001092A904109397040093960486E190E024
:101B300090939D0480939C0487E190E090939F0490
:101B400080939E0488E190E09093A1048093A00488
:101B500089E190E09093A3048093A20461E086E180
:101B60000E94930361E080919E040E94930361E0D0
:101B70008091A0040E94930361E08091A2040E94DE
:101B800093031092A5041092A404D0939904C093D7
:101B90009804CFE2D0E0D0938904C093880480E316
:101BA00090E090938B0480938A0481E390E090937B
:101BB0008D0480938C0481E090E090938F04809357
:101BC0008E0461E08FE20E94930361E080918A04B9
:101BD0000E94930361E080918C040E94930361E072
:101BE00080918C040E946503D0938904C09388047B
:101BF000E8E4F4E0119284E0E838F807D9F7D0E09F
:101C0000C0E080918E0490918F04C817D907B4F575
:101C100040E06FE0CE010E94860880918E04909192
:101C20008F04C817D9072CF447E06BE0CE010E945F
:101C3000860840E069E0CE010E94860880918E040B
:101C400090918F04C817D9071CF4CE010E94E408B4
:101C500080918E0490918F04C817D9072CF440E02E
:101C60006CE0CE010E9486082196CBCF8FEF809347
:101C7000C704E6CE8FEF8093C404F9CE62E272E02F
:101C800088E094E00E94BF0962E272E08EE094E096
:101C90000E94BF0962E272E084E194E00E94BF0901
:101CA00062E272E08AE194E00E94BF0962E272E0BF
:101CB00080E294E00E94BF0962E272E086E294E072
:101CC0000E94BF0962E272E08CE294E00E94BF09C8
:101CD00062E272E082E394E0DF91CF911F910F9175
:101CE0000C94BF09789484B5826084BD84B581600A
:101CF00084BD85B5826085BD85B5816085BD8091D7
:101D00006E00816080936E0010928100809181004E
:101D10008260809381008091810081608093810046
:101D2000809180008160809380008091B100846008
:101D30008093B1008091B00081608093B000809169
:101D400091008260809391008091910081608093E6
:101D50009100809190008160809390008091A1001B
:101D600082608093A1008091A10081608093A10096
:101D70008091A00081608093A00080912101826009
:101D800080932101809121018160809321018091C4
:101D9000200181608093200180917A00846080938B
:101DA0007A0080917A00826080937A0080917A0034
:101DB000816080937A0080917A00806880937A00B5
:101DC0001092C100E091EA02F091EB0282E0808380
:101DD000E091E602F091E7021082E091E802F091D2
:101DE000E9028FEC80831092F202E091EE02F09112
:101DF000EF0286E08083E091EC02F091ED028081B9
:101E000080618083E091EC02F091ED028081886036
:101E10008083E091EC02F091ED0280818068808304
:101E2000E091EC02F091ED0280818F7D80838BE266
:101E300092E00E94040985E592E00E9404098CE684
:101E400092E00E9404098DE792E00E94040980E27A
:101E500092E00E94040960E088E00E94930360E041
:101E600087E00E94930361E086E00E94930366E0AE
:101E700070E084EC94E00E94D0066AE570E084ECA7
:101E800094E00E94540660E08DE00E94930360E0BD
:101E90008CE00E94930360E08BE00E94930361E07A
:101EA00085E00E94930361E084E00E94930361E077
:101EB00083E00E94930361E082E00E94930361E06B
:101EC0008AE00E94930361E089E00E94930380917D
:101ED0008E0490918F041816190634F441E06CE0DA
:101EE00090E080E00E94860880918E0490918F049B
:101EF0001816190634F44FE06AE090E080E00E9482
:101F0000860880918E0490918F041816190624F487
:101F100090E080E00E94E40861E082E30E94930385
:101F200061E084E30E94930361E083E30E949303F2
:101F300061E085E30E9493032091B0043091B104E5
:101F4000032E000C440B550BC12C97E8D92E93E9B6
:101F5000E92E93E0F92EC701B6010E94251264E62E
:101F6000862E912CA12CB12CCA01B901A501940196
:101F70000E9425122093AC043093AD044093AE042C
:101F80005093AF042091960430919704032E000CD7
:101F9000440B550BC701B6010E942512CA01B901B5
:101FA000A50194010E94251220939204309393047A
:101FB000409394045093950461E083E20E9493035C
:101FC00061E08FE10E94930370E4872EAA24A3941A
:101FD000B12CF0E8CF2ED12C8DE00E943C039093E1
:101FE000D9028093D8028CE00E943C039093D702E0
:101FF0008093D6028BE00E943C039093D50280939D
:10200000D40280917B00877F80937B0080927C004C
:1020100080917A00806480937A0080917A0086FDB6
:10202000FCCF9091780080917900892798278927A3
:102030008497079708F063C08DE892E00E94040936
:1020400061E08FE10E9465038BE992E00E94040940
:102050008BEA92E00E94040963E270E087EC94E06E
:102060000E94D006B092D002A092CF02C091CF02BF
:10207000D091D002C23D23E0D2078CF4BE0187ECA0
:1020800094E00E9454066FE070E080E090E00E94CF
:10209000C0042196D093D002C093CF02E7CF85EB46
:1020A00092E00E94040980E292E00E94040980917B
:1020B000D8029091D9028130910531F58091D602F4
:1020C0009091D7028130910509F04EC08091D402E1
:1020D0009091D50281309105B9F581E08093D302CA
:1020E00061E070E08AEA94E00E94E70561E070E058
:1020F00080E994E00E94E7050E94D80940C060E0B2
:102100008FE10E946503D3CF892BC9F58091D60258
:102110009091D7028130910509F07CC08091D40262
:102120009091D5020097C9F2019749F581E080931B
:10213000D30261E070E08AEA94E00E94E70581E062
:1021400090E00E943708CCCF892BC9F481E08093BE
:10215000D30261E070E080E994E00E94E70581E04D
:1021600090E00E941208BCCF892B49F48091D402E0
:102170009091D502892B19F481E08093D30208E372
:1021800014E088E0E82E84E0F82E99249394D0E0BF
:10219000C0E020918E0430918F04F70184819581F5
:1021A000C817D90708F032C180819181009709F4DE
:1021B0002DC18C0F9D1FFC018081813309F026C148
:1021C000121613068CF4F8014089C6010C2E02C0C9
:1021D000959587950A94E2F7482BF801408B692D75
:1021E00090E080E00E9486082196C830D10589F6EB
:1021F0000F5F1F4F9394F6E0EF0EF11C29E092124F
:10220000C6CF64E670E080E090E00E94C0040E94C7
:10221000A402E2CE892B09F0B2CF8091D402909132
:10222000D5028130910509F4A7CF892B09F0A7CFFA
:102230008091D302882309F4A2CF1092D3026FEFCA
:102240007FEF8AEA94E00E94E7056FEF7FEF80E975
:1022500094E00E94E7050E946C0868EC70E080E062
:1022600090E00E94C0040E945C086CE474E080E08E
:1022700090E00E94C0048091D1029091D202892BFB
:1022800009F081C061E070E08AEA94E00E94E7050D
:1022900084E398E00E9437080E945C0865EF70E0D4
:1022A00080E090E00E94C00461E070E08AEA94E07F
:1022B0000E94E70561E070E080E994E00E94E70594
:1022C0000E94D80964EF71E080E090E00E94C004B1
:1022D0008CE00E943C03EC019093D7028093D602DD
:1022E0000E945C0868EE73E080E090E00E94C00409
:1022F0002197E1F41092D2021092D10281E08093F2
:10230000D30280910602882341F09091050299231F
:1023100009F46CC0109204026CC0909104029923DD
:1023200009F471C091E09093050263C06FEF7FEFF5
:102330008AEA94E00E94E7056FEF7FEF80E994E07E
:102340000E94E7050E946C0864EF71E080E090E075
:102350000E94C004B092D202A092D1026FEF7FEF30
:102360008AEA94E00E94E7056FEF7FEF80E994E04E
:102370000E94E7050E946C0863E270E080E090E054
:102380000E94C004ADCE84E090E10E9412080E9439
:102390005C0861E070E080E994E00E94E70564E693
:1023A00070E080E090E00E94C00461E070E080E9AD
:1023B00094E00E94E70564E670E080E090E00E940F
:1023C000C0040E945C0865EF70E080E090E00E942D
:1023D000C0041092D2021092D1028091060288238A
:1023E00069F090910502992309F494CF91E09093BC
:1023F000040291E089278093060272CE9091040234
:10240000992309F48FCF10920502F3CF1216130609
:102410000CF0EACEA6010C2E02C0559547950A9401
:10242000E2F74095F80180894823D8CECF93DF9317
:10243000C8E3D4E02697CE010E94D00984E0C830DA
:10244000D807C1F7DF91CF910895052E97FB1EF4B1
:1024500000940E943C1257FD07D00E94571207FCBF
:1024600003D04EF40C943C12509540953095219534
:102470003F4F4F4F5F4F08959095809570956195B0
:102480007F4F8F4F9F4F08950E947912A59F900D07
:10249000B49F900DA49F800D911D11240895B7FF46
:1024A0000C9444120E944412821B930B0895A1E2E3
:1024B0001A2EAA1BBB1BFD010DC0AA1FBB1FEE1FBE
:1024C000FF1FA217B307E407F50720F0A21BB30B09
:1024D000E40BF50B661F771F881F991F1A9469F785
:1024E00060957095809590959B01AC01BD01CF01E1
:1024F0000895A29FB001B39FC001A39F700D811DDD
:102500001124911DB29F700D811D1124911D0895FC
:10251000991B79E004C0991F961708F0961B881F35
:102520007A95C9F78095089597FB072E16F40094C5
:1025300007D077FD09D00E94B01207FC05D03EF409
:10254000909581959F4F0895709561957F4F08955F
:10255000EE0FFF1F881F8BBF0790F691E02D199497
:10256000AA1BBB1B51E107C0AA1FBB1FA617B707B9
:1025700010F0A61BB70B881F991F5A95A9F78095D5
:102580009095BC01CD0108950F931F93CF93DF93D6
:102590008230910510F482E090E0E091CC04F0915B
:1025A000CD0430E020E0B0E0A0E0309799F42115B0
:1025B000310509F44AC0281B390B24303105D8F500
:1025C0008A819B816115710589F1FB019383828367
:1025D000FE0111C0408151810281138148175907C2
:1025E000E0F04817590799F4109761F012960C9390
:1025F000129713961C933296CF01DF91CF911F91C2
:102600000F9108950093CC041093CD04F4CF2115BD
:10261000310551F04217530738F0A901DB019A0147
:10262000BD01DF01F801C1CFEF01F9CF9093CD04D7
:102630008093CC04CDCFFE01E20FF31F81939193E1
:102640002250310939832883D7CF2091CA04309191
:10265000CB04232B41F42091090230910A023093DC
:10266000CB042093CA04209107023091080221155F
:10267000310541F42DB73EB740910B0250910C0249
:10268000241B350BE091CA04F091CB04E217F30749
:10269000A0F42E1B3F0B2817390778F0AC014E5FD2
:1026A0005F4F2417350748F04E0F5F1F5093CB0440
:1026B0004093CA04819391939FCFF0E0E0E09CCFD8
:1026C000CF93DF930097E9F0FC01329713821282D7
:1026D000A091CC04B091CD04ED0130E020E0109742
:1026E000A1F420813181820F931F2091CA0430917F
:1026F000CB042817390709F061C0F093CB04E093AD
:10270000CA04DF91CF910895EA01CE17DF07E8F5FB
:102710004A815B819E0141155105B1F7E901FB83B7
:10272000EA8349915991C40FD51FEC17FD0761F455
:10273000808191810296840F951FE9019983888396
:10274000828193819B838A83F0E0E0E012968D91F1
:102750009C9113970097B9F52D913C911197CD015C
:102760000296820F931F2091CA043091CB04281740
:10277000390739F6309751F51092CD041092CC04F8
:10278000B093CB04A093CA04BCCFD383C28340814F
:102790005181840F951FC817D90761F44E5F5F4FB1
:1027A00088819981480F591F518340838A819B8179
:1027B000938382832115310509F0B0CFF093CD04C6
:1027C000E093CC049ECFFD01DC01C0CF13821282C6
:1027D000D7CF4F925F926F927F928F929F92AF92DC
:1027E000BF92CF92DF92EF92FF920F931F93CF93FE
:1027F000DF938C01009799F4CB01DF91CF911F916A
:102800000F91FF90EF90DF90CF90BF90AF909F908F
:102810008F907F906F905F904F900C94C412FC014A
:10282000E60FF71F9C0122503109E217F30708F465
:10283000AEC0D901CD91DC911197C617D70720F111
:10284000C530D10578F0CE0104978617970750F070
:10285000C61BD70B2297C193D1936D937C93CF0165
:102860000E946013C801DF91CF911F910F91FF90DB
:10287000EF90DF90CF90BF90AF909F908F907F9020
:102880006F905F904F9008955B01AC1ABD0A4C01A8
:102890008C0E9D1EA091CC04B091CD04512C412CE6
:1028A000F12CE12C109731F58091CA049091CB0462
:1028B0008815990509F05CC04616570608F058C0FF
:1028C0008091070290910802009741F48DB79EB75E
:1028D00040910B0250910C02841B950BE817F907ED
:1028E00008F055C0F093CB04E093CA04F90171835A
:1028F0006083B8CF8D919C91119712966C9012972E
:1029000013967C901397A815B90559F56C0142E010
:10291000C40ED11CCA14DB0420F1AC014A195B09B6
:10292000DA011296159780F0628273825183408398
:10293000D9016D937C93E114F10471F0D7011396E2
:10294000FC93EE9312978ECF22968C0F9D1FF90168
:1029500091838083F301EFCFF093CD04E093CC0417
:1029600081CF4816590608F42C017D01D3019ACF76
:10297000CB010E94C4127C01009749F0AE01B8015E
:102980000E94CA14C8010E94601387016BCF10E037
:1029900000E068CFFB01DC0102C001900D924150C4
:1029A0005040D8F70895FB01DC0101900D92002002
:1029B000E1F7089511E0CDE6D1E000E006C0802FF8
:1029C000FE010E94A8122196011DCE36D10780E09B
:1029D0000807A9F7F894FFCF0200060001010100E3
:1029E00000CE048000000000003702A101CE018467
:1029F00002FF01DD01F1010D0A00303030303030CE
:102A00003030003E3E20554E4956455253494441D0
:102A1000442044452053414E204341524C4F5320C3
:102A200044452047554154454D414C41003E3E20D0
:102A300049204E20472045204E2049204520522045
:102A4000492041003E3E204120522051205520493E
:102A500020202031003E3E2047205220552050208B
:102A60004F202033000A4F2042204A204520542086
:102A70004F0A004120204220412052205220452070
:102A80005221002D202D202D202D202D004C2049BD
:082A900020532054204F2100C7
:10E000000D9489F10D94B2F10D94B2F10D94B2F129
:10E010000D94B2F10D94B2F10D94B2F10D94B2F1F0
:10E020000D94B2F10D94B2F10D94B2F10D94B2F1E0
:10E030000D94B2F10D94B2F10D94B2F10D94B2F1D0
:10E040000D94B2F10D94B2F10D94B2F10D94B2F1C0
:10E050000D94B2F10D94B2F10D94B2F10D94B2F1B0
:10E060000D94B2F10D94B2F10D94B2F10D94B2F1A0
:10E070000D94B2F10D94B2F10D94B2F10D94B2F190
:10E080000D94B2F10D94B2F10D94B2F10D94B2F180
:10E090000D94B2F10D94B2F10D94B2F10D94B2F170
:10E0A0000D94B2F10D94B2F10D94B2F10D94B2F160
:10E0B0000D94B2F10D94B2F10D94B2F10D94B2F150
:10E0C0000D94B2F10D94B2F10D94B2F10D94B2F140
:10E0D0000D94B2F10D94B2F10D94B2F10D94B2F130
:10E0E0000D94B2F141546D656761323536300041AF
:10E0F000726475696E6F206578706C6F72657220DE
:10E1000073746B3530305632206279204D4C530099
:10E11000426F6F746C6F616465723E004875683F52
:10E1200000436F6D70696C6564206F6E203D200048
:10E130004350552054797065202020203D20005FF9
:10E140005F4156525F415243485F5F3D2000415658
:10E1500052204C696243205665723D20004743437C
:10E160002056657273696F6E203D20004350552024
:10E1700049442020202020203D20004C6F7720663D
:10E18000757365202020203D20004869676820665F
:10E190007573652020203D200045787420667573D6
:10E1A00065202020203D20004C6F636B2066757336
:10E1B000652020203D20004D617220203720323024
:10E1C000313300312E362E3800342E332E350056A2
:10E1D00023202020414444522020206F7020636F70
:10E1E00064652020202020696E73747275637469E1
:10E1F0006F6E2061646472202020496E74657272B3
:10E20000757074006E6F20766563746F7200726A49
:10E210006D702020006A6D70200057686174207056
:10E220006F72743A00506F7274206E6F7420737541
:10E2300070706F72746564004D7573742062652030
:10E2400061206C6574746572002000577269747483
:10E25000696E672045450052656164696E672045B7
:10E26000450045452065727220636E743D00504F35
:10E27000525400303D5A65726F2061646472003FF1
:10E280003D43505520737461747300403D454550C3
:10E29000524F4D207465737400423D426C696E6B41
:10E2A000204C454400453D44756D70204545505215
:10E2B0004F4D00463D44756D7020464C415348001B
:10E2C000483D48656C70004C3D4C69737420492F83
:10E2D0004F20506F72747300513D51756974005234
:10E2E0003D44756D702052414D00563D73686F7707
:10E2F00020696E7465727275707420566563746FF0
:10E30000727300593D506F727420626C696E6B00BD
:10E310002A0011241FBECFEFD1E2DEBFCDBF01E046
:10E320000CBF12E0A0E0B2E0EEE1FDEF03E00BBFB6
:10E3300002C007900D92A030B107D9F712E0A0E01B
:10E34000B2E001C01D92AE30B107E1F70F9460F367
:10E350000D948DFE01E20EBF0FEF0DBF11241FBE05
:10E360000D9460F30D9400F020E030E040ED57E0B4
:10E3700005C0FA013197F1F72F5F3F4F2817390792
:10E38000C0F308959C01260F311DC901A0E0B0E043
:10E390002F5F3F4FABBFFC018791882361F08093D3
:10E3A000C6008091C00086FFFCCF8091C0008064D1
:10E3B0008093C000EACF08958DE08093C6008091DD
:10E3C000C00086FFFCCF8091C00080648093C000B5
:10E3D0008AE08093C6008091C00086FFFCCF8091C8
:10E3E000C00080648093C00008950F94C2F10F9420
:10E3F000DCF10895FC019081992359F09093C600B7
:10E400008091C00086FFFCCF8091C0008064809323
:10E41000C0003196992379F70895282F982F929567
:10E420009F70892F805D8A3308F0895F8093C600D2
:10E430008091C00086FFFCCF8091C00080648093F3
:10E44000C000822F8F70982F905D9A3308F0995FEB
:10E450009093C6008091C00086FFFCCF8091C000E1
:10E4600080648093C00008959C01FB01853691056E
:10E470001CF46330710594F0C90164E670E00F94F8
:10E480002EFE605D7F4F6093C6008091C00086FFC6
:10E49000FCCF8091C00080648093C0002B30310598
:10E4A00014F43297B4F0C90164E670E00F942EFEC4
:10E4B0006AE070E00F942EFE605D7F4F6093C600AF
:10E4C0008091C00086FFFCCF8091C0008064809363
:10E4D000C000C9016AE070E00F942EFEC0968093E0
:10E4E000C6008091C00086FFFCCF8091C000806490
:10E4F0008093C00008951F93182F8EE692EE60E07F
:10E500000F94C2F11093C6008091C00086FFFCCF2B
:10E510008091C00080648093C0000F94DCF11F9153
:10E5200008952F923F924F925F926F927F928F92B7
:10E530009F92AF92BF92CF92DF92EF92FF920F9392
:10E540001F93DF93CF93CDB7DEB762970FB6F894E2
:10E55000DEBF0FBECDBF382E622ECA01DB015C01CB
:10E560006D01772420E2222E2E010894411C511CBB
:10E570008BC081E0A81680E0B80681E0C80680E084
:10E58000D80628F0C601AA27BB270F940DF2BB2797
:10E59000AD2D9C2D8B2D0F940DF28A2D0F940DF225
:10E5A0002092C6008091C00086FFFCCF8091C00001
:10E5B00080648093C0009DE29093C6008091C0006B
:10E5C00086FFFCCF8091C00080648093C0002092C1
:10E5D000C6008091C00086FFFCCF8091C00080649F
:10E5E0008093C00019828601750188249924A1E0D6
:10E5F0003A1651F03A1620F0B2E03B1661F409C029
:10E600000BBFF701779007C0C7010F9477FE782EF4
:10E6100002C0F7017080872D0F940DF22092C60082
:10E620008091C00086FFFCCF8091C0008064809301
:10E63000C000872D8052F401EF70F0708F3520F408
:10E64000E40DF51D708204C0E40DF51D8EE280839B
:10E650000894E11CF11C011D111D0894811C911CE2
:10E6600090E18916910409F0C2CF80E190E0A0E02A
:10E67000B0E0A80EB91ECA1EDB1E198AC2010F9493
:10E68000FAF10F94DCF16A94662009F072CF629679
:10E690000FB6F894DEBF0FBECDBFCF91DF911F91B3
:10E6A0000F91FF90EF90DF90CF90BF90AF909F9031
:10E6B0008F907F906F905F904F903F902F90089534
:10E6C0002F923F924F925F926F927F928F929F9282
:10E6D000AF92BF92CF92DF92EF92FF920F931F9370
:10E6E000DF93CF93CDB7DEB7CD53D1400FB6F894BB
:10E6F000DEBF0FBECDBF01E20EBF0FEF0DBF94B75F
:10E70000F894A89514BE80916000886180936000A1
:10E7100010926000789493FF05C0E0910002F091A0
:10E7200001021995279A2F9A8091C00082608093E8
:10E73000C00080E18093C40088E18093C1000000A4
:10E74000EE24FF24870144E0A42EB12CCC24DD2448
:10E7500024C0C5010197F1F70894E11CF11C011DCB
:10E76000111D21E2E2162EE4F20620E0020720E06D
:10E77000120718F031E0C32ED12CC801B70127ECE5
:10E780003BE140E050E00F9441FE611571058105C9
:10E79000910519F485B1805885B98091C00087FD35
:10E7A00003C0C114D104A9F2A6014F5F5F4FC25E3E
:10E7B000DE4F59834883CE51D140C25EDE4F8881FF
:10E7C0009981CE51D140019711F00D9410FEC05D9A
:10E7D000DE4F19821882C053D14060E0C15DDE4F28
:10E7E0001882CF52D14088249924C35DDE4F19820C
:10E7F0001882CD52D140C05EDE4F188219821A8233
:10E800001B82C052D140CE5CDE4F188219821A8220
:10E810001B82C253D140EE24FF2487010BBFF701B6
:10E8200007911691C45CDE4F19830883CC53D14005
:10E830000D940BFEC25EDE4F28813981CE51D1404E
:10E840002130310509F52091C600C25EDE4F1982E4
:10E850001882CE51D14022C02F5F3F4F4F4F5F4FA4
:10E86000213082E138078AE7480780E0580780F0C6
:10E87000C45CDE4FE881F981CC53D140EF5FFF4F9C
:10E8800019F0EE27FF27099420E030E040E050E047
:10E890008091C00087FFE0CF2091C600C35DDE4FAE
:10E8A00048815981CD52D1404F5F5F4FC35DDE4FEC
:10E8B00059834883CD52D140213209F063C64A3092
:10E8C000510508F05FC60894811C911C53E0851621
:10E8D000910409F059C600E010E018C081E280936D
:10E8E000C6008091C00086FFFCCF8091C00080648C
:10E8F0008093C0002F5F3F4F2931310579F70F9486
:10E90000DCF10F5F1F4F0530110519F020E030E0FA
:10E91000E5CF10920A0210920B0210920C02109294
:10E920000D02109206021092070210920802109235
:10E930000902109202021092030210920402109235
:10E9400005028FEE90EE60E00F94F5F180E191EE1C
:10E9500060E00F94C2F18091C00087FFFCCF9091DE
:10E96000C600903608F09F759032B8F09093C600BC
:10E970008091C00086FFFCCF8091C00080648093AE
:10E98000C000A0E2A093C6008091C00086FFFCCF2B
:10E990008091C00080648093C000983409F4D7C18E
:10E9A0009934B8F4923409F459C1933458F490333B
:10E9B00019F1903308F4E3C59F33A1F1903409F0C5
:10E9C000DEC5BDC0953409F470C1963409F0D7C5D1
:10E9D00098C1923509F42BC2933538F49C3409F46C
:10E9E000F5C1913509F0CBC518C2963509F445C279
:10E9F000993509F0C4C567C483E792EE62E00F94CD
:10EA0000F5F110920602109207021092080210927D
:10EA1000090210920A0210920B0210920C0210923C
:10EA20000D0213C18FE792EE62E00F94F5F18FEEC5
:10EA300090EE60E00F94F5F181E291EE60E00F94CA
:10EA4000C2F187EB91EE60E00F94F5F180E391EE77
:10EA500060E00F94C2F184EE90EE60E00F94F5F167
:10EA60008FE391EE60E00F94C2F186E090E061E008
:10EA700070E00F9434F20F94DCF18DE591EE60E0DC
:10EA80000F94C2F189EC91EE60E00F94F5F18EE401
:10EA900091EE60E00F94C2F183EC91EE60E00F9490
:10EAA000F5F18CE691EE60E00F94C2F18EE10F94E7
:10EAB0000DF288E90F940DF281E00F940DF20F949E
:10EAC000DCF18BE791EE60E00F94C2F119E0E0E039
:10EAD000F0E010935700E4918E2F0F940DF20F94F5
:10EAE000DCF18AE891EE60E00F94C2F1E3E0F0E03F
:10EAF00010935700E4918E2F0F940DF20F94DCF1D8
:10EB000089E991EE60E00F94C2F1E2E0F0E0109349
:10EB10005700E4918E2F0F940DF20F94DCF188EAE8
:10EB200091EE60E00F94C2F1E1E0F0E01093570045
:10EB30001491812F0F940DF20F94DCF107CF8BE825
:10EB400092EE62E00F94F5F18BE492EE60E00F94A8
:10EB5000F5F10F94DCF100E010E019C0C8016F2D51
:10EB60000F947FFEFF2031F489E492EE60E00F9471
:10EB7000C2F10BC0F092C6008091C00086FFFCCFAE
:10EB80008091C00080648093C0000F5F1F4FC80158
:10EB900081519F41A0E0B0E0ABBFFC01F790BAE229
:10EBA000FB1621F0E2E000301E07C1F60F94DCF105
:10EBB0000F94DCF187E592EE60E00F94F5F10F948D
:10EBC000DCF1CC24DD2400E010E01EC0C8010F946D
:10EBD00077FEF82E882331F489E492EE60E00F94FA
:10EBE000C2F10BC08093C6008091C00086FFFCCFAD
:10EBF0008091C00080648093C000FE1419F00894D6
:10EC0000C11CD11C0F5F1F4FC80181519F41A0E063
:10EC1000B0E0ABBFFC01E790FAE2EF1621F022E092
:10EC20000030120799F60F94DCF10F94DCF182E6C4
:10EC300092EE60E00F94C2F1C60161E070E00F94C3
:10EC400034F20F94DCF10F94DCF110920202109276
:10EC50000302109204021092050278CE89E992EE26
:10EC600062E00F94F5F1279A2F9A16C02F9880E052
:10EC700090E0E0EDF7E03197F1F7019684369105E9
:10EC8000C1F72F9A80E090E0E0EDF7E03197F1F7DF
:10EC9000019684369105C1F78091C00087FFE6CFC9
:10ECA0008091C00087FFFCCF64C485EA92EE62E0E9
:10ECB0000F94F5F140910202509103026091040219
:10ECC0007091050281E020E10F9491F2809102029F
:10ECD00090910302A0910402B091050280509F4FD1
:10ECE000AF4FBF4F8093020290930302A0930402A0
:10ECF000B093050280509041A040B04008F426CE69
:10ED0000A4CF83EB92EE62E00F94F5F140910602FE
:10ED100050910702609108027091090280E020E1A1
:10ED20000F9491F28091060290910702A09108023F
:10ED3000B091090280509F4FAF4FBF4F80930602A2
:10ED400090930702A0930802B0930902FFCD80ECD4
:10ED500092EE62E00F94F5F183E792EE60E00F949B
:10ED6000F5F18FE792EE60E00F94F5F18BE892EE0B
:10ED700060E00F94F5F189E992EE60E00F94F5F10F
:10ED800085EA92EE60E00F94F5F183EB92EE60E09D
:10ED90000F94F5F180EC92EE60E00F94F5F187ECC2
:10EDA00092EE60E00F94F5F188ED92EE60E00F9442
:10EDB000F5F18FED92EE60E00F94F5F18AEE92EEB0
:10EDC00060E00F94F5F183E093EEBDCD87EC92EE19
:10EDD00062E00F94F5F181E40F947BF282E40F94EA
:10EDE0007BF283E40F947BF284E40F947BF285E45E
:10EDF0000F947BF286E40F947BF287E40F947BF20E
:10EE000088E40F947BF28AE40F947BF28BE40F94F6
:10EE10007BF28CE40F947BF299CD88ED92EE62E068
:10EE20000F94F5F1772473948824992409C48FED05
:10EE300092EE62E00F94F5F140910A0250910B02BC
:10EE400060910C0270910D0282E020E10F9491F22A
:10EE500080910A0290910B02A0910C02B0910D02D8
:10EE600080509F4FAF4FBF4F80930A0290930B0289
:10EE7000A0930C02B0930D0269CD8AEE92EE62E08F
:10EE80000F94F5F184EE90EE60E00F94F5F18FECC5
:10EE900091EE60E00F94F5F1662477244301CC5D98
:10EEA000DE4F19821882C452D140D401C301B695F5
:10EEB000A79597958795CA5DDE4F88839983AA8326
:10EEC000BB83C652D140CC5DDE4FA881B981C4520C
:10EED000D1401196CC5DDE4FB983A883C452D14096
:10EEE000CD0162E070E00F9434F2B0E2B093C6005E
:10EEF0008091C00086FFFCCF8091C0008064809329
:10EF0000C000EDE2E093C6008091C00086FFFCCF18
:10EF10008091C00080648093C000F0E2F093C6004E
:10EF20008091C00086FFFCCF8091C00080648093F8
:10EF3000C000CA5DDE4FE880F9800A811B81C6529D
:10EF4000D140BB27A12F902F8F2D0F940DF2CA5DBA
:10EF5000DE4F8881C652D1400F940DF2B0E2FB2EF5
:10EF6000F092C6008091C00086FFFCCF8091C00067
:10EF700080648093C0000DE30093C6008091C000C0
:10EF800086FFFCCF8091C00080648093C00010E2B7
:10EF90001093C6008091C00086FFFCCF8091C00016
:10EFA00080648093C0008BBEF3012791C65DDE4F65
:10EFB0002883CA52D140A22EBB24CC24DD2408943D
:10EFC000611C711C811C911C8BBEF3018791282E42
:10EFD0003324442455240894611C711C811C911C09
:10EFE0008BBEF3013791C55DDE4F3883CB52D140E4
:10EFF0000894611C711C811C911C8BBEF30147910C
:10F00000C45DDE4F4883CC52D140ADEFEA2EAFEF66
:10F01000FA2EAFEF0A2FAFEF1A2F6E0C7F1C801E57
:10F02000911E142D032DF22CEE24EA0CFB1C0C1D5A
:10F030001D1D0F940DF220E22093C6008091C000A8
:10F0400086FFFCCF8091C00080648093C000C65DC5
:10F05000DE4F8881CA52D1400F940DF230E23093D6
:10F06000C6008091C00086FFFCCF8091C000806404
:10F070008093C000C45DDE4F8881CC52D1400F9494
:10F080000DF240E24093C6008091C00086FFFCCFA5
:10F090008091C00080648093C000C55DDE4F888190
:10F0A000CB52D1400F940DF250E25093C6008091A4
:10F0B000C00086FFFCCF8091C00080648093C000B8
:10F0C0008FEFE8168FEFF80680E0080780E018075A
:10F0D00031F484E092EE60E00F94C2F1DFC0D80119
:10F0E000C7018070907CA070B0708050904CA040A0
:10F0F000B040D1F52FEF3FE340E050E0E222F322B1
:10F1000004231523CA5DDE4FA880B980CA80DB8046
:10F11000C652D140AE0CBF1CC01ED11EAA0CBB1CD7
:10F12000CC1CDD1C8EE092EE60E00F94C2F1BB2798
:10F13000A12F902F8F2D0F940DF28E2D0F940DF285
:10F1400030E23093C6008091C00086FFFCCF8091F2
:10F15000C00080648093C0004EE34093C60080915D
:10F16000C00086FFFCCF87C08EE09EEFA0E0B0E03D
:10F17000E822F9220A231B239CE0E91694E9F90608
:10F1800090E0090790E0190709F088C0C45DDE4FE0
:10F19000A881CC52D140EA2EFF2400E010E0102FCD
:10F1A0000F2DFE2CEE24C55DDE4FB881CB52D14031
:10F1B000EB0EF11C011D111DD601C501817090706F
:10F1C000A070B070DC0199278827E80EF91E0A1F8D
:10F1D0001B1F20EF30E040E050E0A222B322C42207
:10F1E000D52241E1AA0CBB1CCC1CDD1C4A95D1F7F1
:10F1F000EA0CFB1C0C1D1D1D81E090E0A0E0B0E0BE
:10F20000282239224A225B2235E1220C331C441C7D
:10F21000551C3A95D1F7E20CF31C041D151D57013E
:10F220006801AA0CBB1CCC1CDD1C85E192EE60E0E1
:10F230000F94C2F1C801AA27BB270F940DF2BB2778
:10F24000A12F902F8F2D0F940DF28E2D0F940DF274
:10F2500090E29093C6008091C00086FFFCCF809121
:10F26000C00080648093C000AEE3A093C60080918C
:10F27000C00086FFFCCF8091C00080648093C000F6
:10F28000C601AA27BB270F940DF2BB27AD2D9C2DDD
:10F290008B2D0F940DF28A2D0F940DF20F94DCF14B
:10F2A000CC5DDE4FE881F981C452D140F99709F471
:10F2B0004DCBF4E0EF2EF12C012D112D6E0C7F1CA7
:10F2C000801E911EF2CD83E093EE62E00F94F5F183
:10F2D0008AE192EE60E00F94C2F18091C00087FF56
:10F2E000FCCF1091C6001F751093C6008091C0001E
:10F2F00086FFFCCF8091C00080648093C0000F9493
:10F30000DCF1812F81548A3108F036C1163409F4BA
:10F3100095C0173490F4133409F44EC0143430F40B
:10F320001134F1F0123409F01DC130C0143409F465
:10F3300059C0153409F016C16BC01A3409F4C4C0A1
:10F340001B3438F4173409F48FC0183409F00AC19B
:10F35000A1C01B3409F4D2C01C3409F003C1E8C0B9
:10F360008FEF81B90DC082B1809582B980E090E0C5
:10F37000E0EDF7E03197F1F70196883C9105C1F790
:10F380008091C00087FFEFCF12B8EFC08FEF84B934
:10F390000DC085B1809585B980E090E0E0EDF7E0A3
:10F3A0003197F1F70196883C9105C1F78091C00033
:10F3B00087FFEFCF15B8D9C08FEF87B90DC088B1DF
:10F3C000809588B980E090E0E0EDF7E03197F1F7C3
:10F3D0000196883C9105C1F78091C00087FFEFCF6F
:10F3E00018B8C3C08FEF8AB90DC08BB180958BB9A7
:10F3F00080E090E0E0EDF7E03197F1F70196883C8E
:10F400009105C1F78091C00087FFEFCF1BB8ADC059
:10F410008FEF8DB90DC08EB180958EB980E090E0F0
:10F42000E0EDF7E03197F1F70196883C9105C1F7DF
:10F430008091C00087FFEFCF1EB897C08FEF80BBD1
:10F440000DC081B3809581BB80E090E0E0EDF7E0F6
:10F450003197F1F70196883C9105C1F78091C00082
:10F4600087FFEFCF11BA81C08FEF83BB0DC084B38C
:10F47000809584BB80E090E0E0EDF7E03197F1F714
:10F480000196883C9105C1F78091C00087FFEFCFBE
:10F4900014BA6BC08FEF809301010FC080910201FD
:10F4A00080958093020180E090E0E0EDF7E03197F5
:10F4B000F1F70196883C9105C1F78091C00087FF64
:10F4C000EDCF1092020151C08FEF809304010FC065
:10F4D0008091050180958093050180E090E0E0ED4A
:10F4E000F7E03197F1F70196883C9105C1F78091DB
:10F4F000C00087FFEDCF1092050137C08FEF8093DA
:10F5000007010FC08091080180958093080180E079
:10F5100090E0E0EDF7E03197F1F70196883C910536
:10F52000C1F78091C00087FFEDCF109208011DC088
:10F530008FEF80930A010FC080910B01809580931B
:10F540000B0180E090E0E0EDF7E03197F1F70196F4
:10F55000883C9105C1F78091C00087FFEDCF1092E4
:10F560000B0103C085E292EEEEC98091C00087FFD7
:10F57000FCCF8091C600EAC988E392EEE4C98CE131
:10F5800091EEE1C988249924933011F1943028F444
:10F59000913089F09230B8F408C0953061F195301F
:10F5A000F0F0963009F048C043C02B3109F042C951
:10F5B00091E06BE13FC96227C15DDE4F2883CF52E6
:10F5C000D14092E037C9B22FA0E0622793E032C960
:10F5D000822F90E0A82BB92B622794E02BC92E3004
:10F5E00009F039C3622795E0C05DDE4F19821882A9
:10F5F000C053D1401FC9E1E0F0E0EC0FFD1FC05D3A
:10F60000DE4F08811981C053D140E00FF11F2083E4
:10F610000F5F1F4FC05DDE4F19830883C053D14079
:10F6200062270A171B0709F005C9D80196E002C92D
:10F63000261709F010C303C0973009F0FBC87724E0
:10F640009981933109F412C19431C8F4963009F4C8
:10F65000D8C0973050F4923009F406C1933009F4C1
:10F660006DC0913009F059C253C0913109F477C08F
:10F67000923108F0BBC0903109F04FC2F5C098310B
:10F6800009F487C0993150F4953109F4EFC09531F0
:10F6900008F4C6C1963109F040C2C2C19A3109F4DA
:10F6A0006CC09A3108F491C09B3109F45BC09D3164
:10F6B00009F033C29D81903359F48F81882311F46E
:10F6C0009EE11CC0813011F091E018C098E916C08D
:10F6D000892F807591F0903539F4E0E0F0E089E011
:10F6E0008093570094910AC0983539F4E3E0F0E034
:10F6F00089E080935700949101C090E01A821B82A8
:10F700008D818C831D829E831F8227E030E009C299
:10F710001A8288E08B8381E48C8386E58D8382E581
:10F720008E8389E48F8383E5888780E589878FE5E9
:10F730008A8782E38B872BE030E0F3C18A818139AD
:10F7400041F0823941F0803911F48FE005C080E04A
:10F7500003C082E001C08AE01A828B8344C0772410
:10F76000739482C08D81882311F48EE12CC0813086
:10F7700011F081E028C088E926C01A82E1E0F0E0BB
:10F7800089E08093570084918B831C8224E030E0D1
:10F79000C8C18B81803589F48C81883039F4E2E0EE
:10F7A000F0E089E08093570084910DC0E0E0F0E044
:10F7B00089E080935700849106C0E3E0F0E089E09F
:10F7C0008093570084911A82DFCF8D81836C99E0FA
:10F7D000E1E0F0E0082E90935700E89507B600FCB2
:10F7E000FDCF1A821B8223E030E09BC180EC8A832C
:10F7F000CE5CDE4F188219821A821B82C253D1401E
:10F800008EC18A8190E0A0E0B0E0582F44273327D2
:10F8100022278B8190E0A0E0B0E0DC0199278827C7
:10F82000282B392B4A2B5B2B8D8190E0A0E0B0E098
:10F83000282B392B4A2B5B2B8C8190E0A0E0B0E089
:10F84000BA2FA92F982F8827282B392B4A2B5B2BCF
:10F85000220F331F441F551FC05EDE4F288339839C
:10F860004A835B83C052D1401A8259C13A81C95C34
:10F87000DE4F3883C753D140CA5CDE4F1882C6536F
:10F88000D1408B81C82EDD24CA5CDE4F488159816E
:10F89000C653D140C42AD52A933109F082C0CE5C28
:10F8A000DE4F88819981AA81BB81C253D1408050AB
:10F8B000904CA340B04030F583E0CE5CDE4FE88052
:10F8C000F9800A811B81C253D140F70100935B008C
:10F8D00080935700E89507B600FCFDCFCE5CDE4F65
:10F8E000088119812A813B81C253D14000501F4FAA
:10F8F0002F4F3F4FCE5CDE4F088319832A833B8313
:10F90000C253D140C05EDE4F488159816A817B81FC
:10F91000C052D140DE011B9631E08C9111962C91A2
:10F9200011971296C75CDE4F2883C953D140C85C3B
:10F93000DE4F1882C853D14090E0C85CDE4FE881AA
:10F94000F981C853D1408E2B9F2B0C01FA01609393
:10F950005B0030935700E89511244E5F5F4F6F4F67
:10F960007F4F0EEFE02E0FEFF02ECE0CDF1CC114F8
:10F97000D10499F685E0C05EDE4F088119812A81A5
:10F980003B81C052D140F80120935B008093570027
:10F99000E89507B600FCFDCF81E180935700E8951C
:10F9A00035C0C05EDE4F88819981AA81BB81C0527B
:10F9B000D140B695A795979587957C018601ABE0D8
:10F9C000AA2EB12CAC0EBD1E0BC0D5016D915D01F0
:10F9D000C7010F947FFE0894E11CF11C01501040F8
:10F9E0000115110591F7A60160E070E0440F551F65
:10F9F000661F771FC05EDE4FE880F9800A811B8199
:10FA0000C052D1404E0D5F1D601F711F1A82C05E33
:10FA1000DE4F488359836A837B83C052D1407FC0C5
:10FA2000FA80C55CDE4FF882CB53D140C65CDE4F16
:10FA30001882CA53D1408B81C82EDD24C65CDE4FAC
:10FA400008811981CA53D140C02AD12A1A828981DA
:10FA5000BE016D5F7F4F843121F59601C05EDE4FA0
:10FA6000E880F9800A811B81C052D1400BBFF701A9
:10FA700087919691DB018C9311969C936E5F7F4FDB
:10FA8000D801C7010296A11DB11DC05EDE4F88835B
:10FA90009983AA83BB83C052D14022503040F1F6F3
:10FAA00036C0C05EDE4F288139814A815B81C052F9
:10FAB000D1400894C108D108760100E010E0089414
:10FAC000C11CD11C0894E11CF11C011D111DE20E8A
:10FAD000F31E041F151F21BDBB27A52F942F832FB5
:10FAE00082BD2F5F3F4F4F4F5F4FF89A80B5DB01CC
:10FAF0008D93BD012E153F054007510761F7C05E8C
:10FB0000DE4F288339834A835B83C052D1409601FC
:10FB10002D5F3F4FFB01108204C080EC8A8322E0FE
:10FB200030E08BE18093C6008091C00086FFFCCF5F
:10FB30008091C00080648093C000C15DDE4FF88179
:10FB4000CF52D140F093C6008091C00086FFFCCF19
:10FB50008091C00080648093C000432F3093C60022
:10FB60008091C00086FFFCCF8091C00080648093AC
:10FB7000C000922F2093C6008091C00086FFFCCF6A
:10FB80008091C00080648093C0008EE08093C600A6
:10FB90008091C00086FFFCCF8091C000806480937C
:10FBA000C00065E1C15DDE4FE880CF52D1406E25D7
:10FBB00069276427FE01319610C090819093C6009A
:10FBC0008091C00086FFFCCF31968091C000806498
:10FBD0008093C0006927215030402115310569F715
:10FBE0006093C6008091C00086FFFCCF8091C0006A
:10FBF00080648093C00085B1805885B9772081F4F6
:10FC0000C15DDE4F0881CF52D1400F5FC15DDE4F35
:10FC10000883CF52D14090E0A0E0B0E00D941AF4F8
:10FC200027982F9880E090E020ED37E0F901319798
:10FC3000F1F7019684369105C9F700008091C00064
:10FC40008D7F8093C00081E180935700E895EE2777
:10FC5000FF270994FFCF90E00D941AF497FB092E2B
:10FC600007260AD077FD04D02ED006D000201AF443
:10FC7000709561957F4F0895F6F7909581959F4F08
:10FC80000895A1E21A2EAA1BBB1BFD010DC0AA1FDD
:10FC9000BB1FEE1FFF1FA217B307E407F50720F0F5
:10FCA000A21BB30BE40BF50B661F771F881F991F70
:10FCB0001A9469F760957095809590959B01AC01B9
:10FCC000BD01CF010895AA1BBB1B51E107C0AA1FAC
:10FCD000BB1FA617B70710F0A61BB70B881F991FED
:10FCE0005A95A9F780959095BC01CD010895F99991
:10FCF000FECF92BD81BDF89A992780B50895262F31
:10FD0000F999FECF1FBA92BD81BD20BD0FB6F89400
:0EFD1000FA9AF99A0FBE01960895F894FFCF63
:00000001FF
