:100000000C944C010C947D010C947D010C947D01A9
:100010000C947D010C947D010C947D010C947D0168
:100020000C947D010C947D010C947D010C947D0158
:100030000C947D010C947D010C947D010C947D0148
:100040000C947D010C94FA080C947D010C947D01B4
:100050000C947D010C947D010C947D010C94260878
:100060000C947D010C947D010C947D010C947D0118
:100070000C947D010C947D010C947D010C947D0108
:100080000C94CC080C947D010C947D010C947D01A2
:100090000C947D010C947D010C947D010C947D01E8
:1000A0000C947D010C947D010C949E080C947D01B0
:1000B0000C947D010C947D010C947D010C947008CE
:1000C0000C947D010C947D010C947D010C947D01B8
:1000D0000C947D010C947D010C947D010C947D01A8
:1000E0000C947D010C9422030C9418030C94C70209
:1000F0000C94F5020C94EB020C94A80B0C94BC012C
:100100000C94DE010C94E1020C94A3010C94DD012B
:100110000C9436030C94D4010C940E030C94AF0190
:100120000C949D010C94A7010C947F0C0C94C601B7
:100130000C94A6020C94AE020C94B2010C94B3027F
:100140000C94E2010C94D1020C94D9020C94BD02DF
:100150000C94D0010C94AB010C94FF020C94B801E8
:100160000C9440030C942C030C94CA010C94C2010F
:100170000C94D80100002100240027002A002D0043
:100180003000330001010000040107010A010000F2
:100190002200250028002B002E003100340002012F
:1001A0000000050108010B010000200023002600CB
:1001B00029002C002F00320000010000030106017D
:1001C00009010505050507050808080802020202DD
:1001D0000A0A0808040404040101010101010101E3
:1001E0000303030303030303040707070C0C0C0CAE
:1001F0000C0C0C0C02020202060606060606060697
:100200000B0B0B0B0B0B0B0B010210202008081023
:100210002040102040800201020108040201010276
:10022000040810204080804020100804020180044F
:1002300002018040201008040201080402010102AA
:1002400004081020408001020408102040800000B3
:100250000A0B02090C0D0E08070304010000000040
:10026000000000000000000000000000000000008E
:10027000000000000000000000001211100000004B
:10028000000000000000000000000000000000006E
:1002900000000000A80B7F0C11241FBECFEFD1E29D
:1002A000DEBFCDBF00E00CBF12E0A0E0B2E0EAE4A8
:1002B000FEE100E00BBF02C007900D92A631B1072E
:1002C000D9F723E0A6E1B2E001C01D92AD34B20738
:1002D000E1F711E0CBE4D1E000E006C0219701098D
:1002E000802FFE010E94F50CCA34D10780E0080778
:1002F000A9F70E9428090C94130F0C940000815058
:10030000823108F05AC0E82FF0E08827E557FE4F09
:100310008F4F0C94F50CAB01AF019D01A301A70118
:10032000DD01B201B801BC01C201C601CA01D001A0
:10033000D401DD01D801DE01E201809180008F77D8
:10034000809380000895809180008F7DF9CF809107
:100350008000877FF5CF84B58F7784BD089584B5FD
:100360008F7DFBCF8091B0008F778093B000089590
:100370008091B0008F7DF9CF809190008F7780932E
:1003800090000895809190008F7DF9CF809190002A
:10039000877FF5CF8091A0008F778093A00008958C
:1003A0008091A0008F7DF9CF8091A000877FF5CF4D
:1003B000809120018F778093200108958091200102
:1003C0008F7DF9CF80912001877FF5CFCF93DF9389
:1003D000282F30E0F901E25BFD4F8491F901E85FDD
:1003E000FD4FD491F901EE53FE4FC491CC23A1F0FF
:1003F00081110E947F01EC2FF0E0EE0FFF1FE85506
:10040000FE4FA591B491EC91ED2381E090E009F4C9
:1004100080E0DF91CF91089580E090E0FACF1F93C4
:10042000CF93DF93282F30E0F901E25BFD4F8491F9
:10043000F901E85FFD4FD491F901EE53FE4FC491ED
:10044000CC23A9F0162F81110E947F01EC2FF0E040
:10045000EE0FFF1FE257FE4FA591B4918FB7F894AE
:10046000EC91111108C0D095DE23DC938FBFDF9192
:10047000CF911F910895DE2BF8CFCF93DF9390E0BB
:10048000FC01E85FFD4F24918E539E4FFC01849147
:100490008823D1F090E0880F991FFC01EC58FE4FA3
:1004A000A591B491FC01E257FE4FC591D491611121
:1004B0000EC09FB7F8948C91E22FE0958E238C9319
:1004C0002881E223E8839FBFDF91CF9108958FB702
:1004D000F894EC91E22BEC938FBFF6CF1F93CF9360
:1004E000DF93182FEB0161E00E943D02209739F461
:1004F00060E0812FDF91CF911F910C940F02CF3FCD
:10050000D10511F461E0F5CFE12FF0E0E25BFD4FA2
:10051000E491E150E23108F0B3C0F0E08827EC56F6
:10052000FD4F8F4F0C94F50CA602AE02B302BD0234
:10053000C7024003D102D902E102EB02F502FF0239
:100540000E031803400322032C03360384B580688E
:1005500084BDC7BDDF91CF911F91089584B580629E
:1005600084BDC8BDF7CF80918000806880938000F3
:10057000D0938900C0938800EDCF80918000806285
:1005800080938000D0938B00C0938A00E3CF80914A
:100590008000886080938000D0938D00C0938C0091
:1005A000D9CF8091B00080688093B000C093B30031
:1005B000D1CF8091B00080628093B000C093B4002E
:1005C000C9CF80919000806880939000D09399006B
:1005D000C0939800BFCF809190008062809390007C
:1005E000D0939B00C0939A00B5CF80919000886013
:1005F00080939000D0939D00C0939C00ABCF8091DE
:10060000A00080688093A0008091A0008F7B8093E1
:10061000A000D093A900C093A8009CCF8091A00017
:1006200080628093A000D093AB00C093AA0092CFC9
:100630008091A00088608093A000D093AD00C0930B
:10064000AC0088CF80912001806880932001D093F6
:100650002901C09328017ECF809120018062809380
:100660002001D0932B01C0932A0174CF80912001E7
:10067000886080932001D0932D01C0932C016ACF14
:10068000C038D1050CF03ECF33CF3FB7F8948091FE
:10069000200290912102A0912202B091230226B55E
:1006A000A89B05C02F3F19F00196A11DB11D3FBFAA
:1006B000BA2FA92F982F8827BC01CD01620F711D79
:1006C000811D911D42E0660F771F881F991F4A9573
:1006D000D1F708958F929F92AF92BF92CF92DF92FF
:1006E000EF92FF926B017C010E9445034B015C017C
:1006F000C114D104E104F104B9F00E944503681962
:1007000079098A099B09683E73408105910580F348
:1007100021E0C21AD108E108F10888EE880E83E0D2
:10072000981EA11CB11CE4CFFF90EF90DF90CF90FA
:10073000BF90AF909F908F9008951F93CF93DF93BA
:10074000EC01162F8881803308F04EC061E0812FC4
:100750000E943D028881282F30E0F901EE0FFF1F33
:10076000E20FF31FEC5DFD4F1F736081607C612B16
:10077000608319821A822CE0622F0E94E90C829F0A
:10078000B001112430E020E0AB01420F531FFA0109
:10079000EE0FFF1FE40FF51FEC5DFD4F908196FDFE
:1007A00016C02F5F3F4F2C30310571F7813009F5AE
:1007B0001092800082E08093810010928500109258
:1007C0008400B19A80916F00826080936F00E8810D
:1007D0008E2F90E0FC01EE0FFF1FE80FF91FEC5D7C
:1007E000FD4F8081806480838881DF91CF911F914C
:1007F0000895823061F410929000809391001092DD
:1008000095001092940088BB80937100E0CF8330F4
:1008100069F41092A00082E08093A1001092A500DC
:100820001092A40089BB80937200D1CF8111CFCFE9
:100830001092200182E080932101109225011092F4
:1008400024018ABB80937300C2CFAF92BF92CF9234
:10085000DF92EF92FF920F931F93CF93DF936B0181
:100860007A01EC01C95EDD4F28813CE0389F8001B0
:10087000399F100D1124A0901602B12C27FF1FC024
:10088000FB011182108288818F5F888388819801A3
:10089000280F311D87FD3A95F6012A153B051CF4FA
:1008A00088818C30C4F180819181049680349C4988
:1008B00008F473C0F60180819181049670C088812C
:1008C0009801280F311D87FD3A952A153B05DCF666
:1008D0008881A801480F511D87FD5A95FA01EE0F36
:1008E000FF1FE40FF51FEC5DFD4F808186FFCBCF2E
:1008F0008881F801E80FF11D87FDFA95CF01EE0F11
:10090000FF1FE80FF91FEC5DFD4F808160E08F73E2
:100910000E940F02B8CF808191812881A801420FE7
:10092000511D27FD5A959A01FA01EE0FFF1FE20FA4
:10093000F31FEC5DFD4F21813281820F931FF70180
:100940009183808388819801280F311D87FD3A9516
:10095000F901EE0FFF1FE20FF31FEC5DFD4F8081E9
:1009600086FF22C08881080F111D87FD1A95F801A6
:10097000EE0FFF1FE00FF11FEC5DFD4F808161E086
:100980008F73DF91CF911F910F91FF90EF90DF90C8
:10099000CF90BF90AF900C940F0280E49CE9F701D8
:1009A000918380838FEF8883DF91CF911F910F9187
:1009B000FF90EF90DF90CF90BF90AF900895CF93CE
:1009C000DF93EC0162E370E08AE00E946E0262E372
:1009D00070E089E00E946E0260E085E00E940F02F4
:1009E00061E084E00E940F0261E083E00E940F0258
:1009F00060E082E00E940F0262E382E30E940F0245
:100A000060E083E30E940F0260E084E30E940F0233
:100A100060E085E30E940F02BE01DD0F880B990B99
:100A2000DF91CF910C946A03CF93DF93EC0162E3E3
:100A300070E08AE00E946E0262E370E089E00E944A
:100A40006E0261E085E00E940F0260E084E00E9497
:100A50000F0260E083E00E940F0261E082E00E94EA
:100A60000F0260E082E30E940F0260E083E30E94D5
:100A70000F0262E384E30E940F0260E085E30E94BC
:100A80000F02BE01DD0F880B990BDF91CF910C9403
:100A90006A0360E085E00E940F0260E084E00E944B
:100AA0000F0260E083E00E940F0260E082E00E949B
:100AB0000F0260E082E30E940F0260E083E30E9485
:100AC0000F0260E084E30E940F0260E085E30C9473
:100AD0000F0264E670E08AE00E946E0264E670E055
:100AE00089E00E946E0260E085E00E940F0261E0F2
:100AF00084E00E940F0260E083E00E940F0261E048
:100B000082E00E940F0270E060E082E30E946E02C9
:100B100064E670E083E30E946E0270E060E084E3CC
:100B20000E946E0264E685E30C940F0264E670E0B6
:100B30008AE00E946E0264E670E089E00E946E0224
:100B400061E085E00E940F0260E084E00E940F02F5
:100B500061E083E00E940F0260E082E00E940F02E9
:100B600064E682E30E940F0260E083E30E940F02CA
:100B700064E684E30E940F0260E085E30C940F02B8
:100B8000CF92DF92EF92FF920F931F93CF93DF9359
:100B90001F921F92CDB7DEB769834A83880F991FD2
:100BA0000091470310914803000F111FE1EFF2E09D
:100BB0009F01215F32402017310714F41192F8CFC2
:100BC0002981FC01EF50FD4F21838A81808360E001
:100BD000809145030E940F021016110604F5015082
:100BE0001109F801EF50FD4FE080D0904303C09011
:100BF000410388E0F82E6E2D661F6627661F8C2D38
:100C00000E940F02EE0C61E08D2D0E940F0260E049
:100C10008D2D0E940F02FA94F110EDCFDDCF61E02F
:100C2000809145030F900F90DF91CF911F910F910D
:100C3000FF90EF90DF90CF900C940F02EF92FF9215
:100C40000F931F93CF937C018C0183E0000F111F42
:100C50008A95E1F70F5F1C4FC1E0F80111928F01F7
:100C600040E06C2FC7010E94C005CF5FC930A9F7D3
:100C7000CF911F910F91FF90EF9008950F931F93C5
:100C8000CF93DF93EC0188819981009759F02A81F5
:100C90003B812617370730F081E0DF91CF911F911C
:100CA0000F9108958B016F5F7F4F0E94220E009776
:100CB00059F0998388831B830A832C813D81232BE0
:100CC00059F7FC011082E8CF80E0E7CFEF92FF9266
:100CD0000F931F93CF93DF936115710541F480E06B
:100CE000DF91CF911F910F91FF90EF9008954115E3
:100CF0005105B1F07B01EC010C811D81040F151F22
:100D0000B8010E943E06882351F3288139818C81E5
:100D10009D81B701820F931F0E940C0F1D830C83CE
:100D200081E0DECFCF93DF93EC018881998100973A
:100D300011F00E94990D198218821D821C821B825B
:100D40001A82DF91CF910895EF92FF920F931F9334
:100D5000CF93DF93EC017B018A01BA010E943E062A
:100D600081110BC0CE010E949206CE01DF91CF917E
:100D70001F910F91FF90EF9008951D830C83B70191
:100D8000888199810E940C0FF0CFCF93DF93EC0103
:100D9000FB018617970749F0608171816115710524
:100DA00041F0448155810E94A406CE01DF91CF918C
:100DB00008950E949206F9CFFC01808191810097ED
:100DC00011F00C94990D0895FC0111821082138288
:100DD000128215821482FB0101900020E9F73197FD
:100DE000AF01461B570B0C94A4068F929F92AF92B3
:100DF000BF92CF92DF92EF92FF920F931F93CF9308
:100E0000DF93CDB7DEB768970FB6F894DEBF0FBE9D
:100E1000CDBF5C017B01089718F46830710598F12B
:100E200084E090E09093010280930002909303028B
:100E3000809302020AEB12E05AEEE52E52E0F52E04
:100E400048E050E06AE072E0C8010E94A4060A5F30
:100E50001F4FE016F106A1F78091470390914803D8
:100E60001816190624F490E080E00E941E0664E63D
:100E700070E080E090E00E946A0334E0E32EF12C01
:100E800044E0A42EB12C809102029091030226E04E
:100E9000D22ED89EB001D99E700D112466547D4F7C
:100EA00018861F821A8619861C861B86CE01079615
:100EB0000E94C50662E172E0CE010D960E94E40632
:100EC00062E172E0CE0143960E94E40610E000E089
:100ED000DE9CC001DF9C900D1124FC01E654FD4F07
:100EE0006F014F01F4E08F0E911CA016B106F9F0CE
:100EF000F4018081918108171907B8F4F601808107
:100F00009181009791F0800F911FFC01808189836E
:100F10001A8241E050E0BE016F5F7F4FCE010D9617
:100F20000E9466060F5F1F4FE0CF80E0F0CF009178
:100F30000002109101020F5F1F4F26E02E9DC0019D
:100F40002F9D900D11249C0126543D4F690159019C
:100F500034E0A30EB11C08301105FCF4F5018081CA
:100F6000918108171907B8F4F601808191810097E3
:100F700091F0800F911FFC01808189831A8241E0EA
:100F800050E0BE016F5F7F4FCE0143960E94660620
:100F90000F5F1F4FE0CF80E0F0CF1A8219821C82D2
:100FA0001B821E821D82BE01635F7F4FCE010196B0
:100FB0000E94C50641E050E063E172E0CE01019677
:100FC0000E946606811104C0CE0101960E9492061D
:100FD0004F89588D6B897C89CE0101960E946606E7
:100FE000811104C0CE0101960E94920626E02E9D3A
:100FF000C0012F9D900D1124BE016F5F7F4F86545D
:101000009D4F0E94C506CE0101960E94DC06CE01CE
:1010100043960E94DC06CE010D960E94DC06CE01AE
:1010200007960E94DC0668960FB6F894DEBF0FBEE6
:10103000CDBFDF91CF911F910F91FF90EF90DF9087
:10104000CF90BF90AF909F908F9008951F920F9276
:101050000FB60F9211242F933F938F939F93AF93CB
:10106000BF9380911C0290911D02A0911E02B0912D
:101070001F0230911B0223E0230F2D3758F50196F4
:10108000A11DB11D20931B0280931C0290931D0291
:10109000A0931E02B0931F02809120029091210222
:1010A000A0912202B09123020196A11DB11D80934F
:1010B000200290932102A0932202B0932302BF91B9
:1010C000AF919F918F913F912F910F900FBE0F90F5
:1010D0001F90189526E8230F0296A11DB11DD2CFAF
:1010E0001F920F920FB60F9211240BB60F922F93EF
:1010F0003F934F935F936F937F938F939F93AF93A0
:10110000BF93EF93FF9348E251E064E271E090E017
:1011100080E00E942504FF91EF91BF91AF919F91D4
:101120008F917F916F915F914F913F912F910F9090
:101130000BBE0F900FBE0F901F9018951F920F922D
:101140000FB60F9211240BB60F922F933F934F932C
:101150005F936F937F938F939F93AF93BF93EF931F
:10116000FF9348EA50E064EA70E083E090E00E9478
:101170002504FF91EF91BF91AF919F918F917F9146
:101180006F915F914F913F912F910F900BBE0F90F8
:101190000FBE0F901F9018951F920F920FB60F92CF
:1011A00011240BB60F922F933F934F935F936F933E
:1011B0007F938F939F93AF93BF93EF93FF9348E9F0
:1011C00050E064E970E082E090E00E942504FF9125
:1011D000EF91BF91AF919F918F917F916F915F91AF
:1011E0004F913F912F910F900BBE0F900FBE0F901C
:1011F0001F9018951F920F920FB60F9211240BB6E5
:101200000F922F933F934F935F936F937F938F939F
:101210009F93AF93BF93EF93FF9348E850E064E848
:1012200070E081E090E00E942504FF91EF91BF9172
:10123000AF919F918F917F916F915F914F913F916E
:101240002F910F900BBE0F900FBE0F901F9018950F
:10125000789484B5826084BD84B5816084BD85B591
:10126000826085BD85B5816085BD80916E0081609D
:1012700080936E0010928100809181008260809343
:101280008100809181008160809381008091800045
:101290008160809380008091B10084608093B10070
:1012A0008091B00081608093B00080919100826055
:1012B0008093910080919100816080939100809152
:1012C00090008160809390008091A1008260809363
:1012D000A1008091A10081608093A1008091A00075
:1012E00081608093A0008091210182608093210120
:1012F0008091210181608093210180912001816092
:101300008093200180917A00846080937A0080919C
:101310007A00826080937A0080917A008160809365
:101320007A0080917A00806880937A001092C100E0
:1013300060E088E00E943D0260E087E00E943D029C
:1013400061E086E00E943D0266E070E087EB92E09B
:101350000E949D038091B90208E512E0081B110963
:1013600087FD1395000F111F000F111F8091B80208
:10137000C8E8D0E0C81BD10987FDD395CC0FDD1F8D
:10138000CC0FDD1F6E010D2E000CEE08FF0898013A
:10139000012E000C440B550B2C193D094E095F0919
:1013A000AAE5B0E00E94AD0C24EB30E040E050E054
:1013B0000E948E0CC20ED31EE41EF51EE091B702F1
:1013C000E033C8F4CC16DD062CF0E801C016D106D7
:1013D0000CF4E6012297CC0FDD1F2FB7F8948E2F67
:1013E00090E0FC01EE0FFF1FE80FF91FEC5DFD4FD1
:1013F000D283C1832FBF60E08DE00E943D0260E098
:101400008CE00E943D0260E08BE00E943D0261E0C2
:1014100085E00E943D0261E084E00E943D0261E0BF
:1014200083E00E943D0261E082E00E943D0261E0B3
:101430008AE00E943D0261E089E00E943D0261E095
:1014400083E20E943D0263E270E084EB92E00E943E
:101450009D0380914703909148031816190634F4B0
:1014600041E06CE090E080E00E94C005809147037D
:10147000909148031816190634F44FE06AE090E0A2
:1014800080E00E94C00580914703909148031816A0
:10149000190624F490E080E00E941E0661E082E3D9
:1014A0000E943D0261E084E30E943D0261E083E32B
:1014B0000E943D0261E085E30E943D0290E8E92E32
:1014C000F12C20E0C22E20E0D22E77247394AA249F
:1014D000A394B12C8DE00E94E6018C019093F00260
:1014E0008093EF028CE00E94E601EC019093EE0203
:1014F0008093ED028BE00E94E60101301105E1F4DA
:10150000C130D10509F044C08130910559F5709280
:10151000EC026091020270910302615071097093B4
:1015200003026093020280910002909101020E94E6
:10153000F5060E94960532C0012B81F5C130D10518
:1015400009F07BC0009719F3019741F57092EC0206
:1015500081E090E00E9414058091000290910102C8
:1015600001960DC0892BD1F47092EC0281E090E0DD
:101570000E94DF04809100029091010201979093F4
:101580000102809300026091020270910302CFCFAA
:10159000CD2B21F4892B11F47092EC0281EF882E6F
:1015A00082E0982E0AEB12E066246394D0E0C0E05B
:1015B0002091470330914803F80184819581C81731
:1015C000D90708F0B5C080819181009709F4B0C0B7
:1015D0008C0F9D1FFC018081813309F0A9C0121678
:1015E00013068CF4F4014089C7010C2E02C09595B6
:1015F00087950A94E2F7482BF401408B662D90E022
:1016000080E00E94C0052196C830D10589F6FFEF21
:101610008F1A9F0A63940A5F1F4F29E06212C6CF98
:1016200064E670E080E090E00E946A03C114D10497
:1016300009F450CF0E9400004DCFCD2B09F0AECF62
:101640008130910509F4A8CF892B09F0A7CF8091AB
:10165000EC02882309F4A2CF1092EC020E946905E3
:1016600068EC70E080E090E00E946A030E94490507
:101670006CE474E080E090E00E946A038091EA02EA
:101680009091EB02892B09F042C084E398E00E941C
:1016900014050E94490565EF70E080E090E00E942B
:1016A0006A030E94960564EF71E080E090E00E947A
:1016B0006A038CE00E94E601EC019093EE028093B5
:1016C000ED020E94490568EE73E080E090E00E9420
:1016D0006A03219739F41092EB021092EA02709299
:1016E000EC0227CF0E94690564EF71E080E090E092
:1016F0000E946A03B092EB02A092EA020E9469057E
:1017000063E270E080E090E00E946A0312CF84E020
:1017100090E10E94DF040E94490565EF70E080E0DF
:1017200090E00E946A031092EB021092EA0201CF4D
:10173000121613060CF067CFA7010C2E02C05595A8
:1017400047950A94E2F74095F4018089482355CFE4
:10175000CF93DF9380911602803308F096C091E01A
:10176000980F909316028093B40290E0FC01EE0F64
:10177000FF1FE80FF91FEC5DFD4F88EB9BE09283A4
:10178000818380911602803308F083C091E0980F26
:10179000909316028093B70290E0FC01EE0FFF1FBA
:1017A000E80FF91FEC5DFD4F88EB9BE0928381838E
:1017B000CFE2D0E0D0934203C093410380E390E0B6
:1017C000909344038093430381E390E09093460316
:1017D0008093450381E090E0909348038093470312
:1017E00061E08FE20E943D0261E0809143030E942C
:1017F0003D0261E0809145030E943D0261E08091DD
:1018000045030E940F02D0934203C0934103E1E0DD
:10181000F3E0119283E0E134F807D9F7D0E0C0E0BB
:101820008091470390914803C817D907B4F540E069
:101830006FE0CE010E94C00580914703909148035C
:10184000C817D9072CF447E06BE0CE010E94C00511
:1018500040E069E0CE010E94C0058091470390916D
:101860004803C817D9071CF4CE010E941E068091B8
:10187000470390914803C817D9072CF440E06CE067
:10188000CE010E94C0052196CBCF8FEF8093B4028A
:1018900078CF8FEF8093B7028BCF6AE072E08AEB4C
:1018A00092E00E94E4066AE072E080EC92E00E941E
:1018B000E4066AE072E086EC92E00E94E4066AE0E8
:1018C00072E08CEC92E00E94E4066AE072E082ED45
:1018D00092E00E94E4066AE072E088ED92E00E94E5
:1018E000E4066AE072E08EED92E00E94E4066AE0AF
:1018F00072E084EE92E0DF91CF910C94E406CF93F6
:10190000DF93CAEED2E02697CE010E94DC0682E089
:10191000CA3BD807C1F7DF91CF910895052E97FBF9
:101920001EF400940E94A50C57FD07D00E94B80C2D
:1019300007FC03D04EF40C94A50C509540953095BF
:1019400021953F4F4F4F5F4F08959095809570952B
:1019500061957F4F8F4F9F4F08950E94DA0CA59F8E
:10196000900DB49F900DA49F800D911D112408959A
:10197000A1E21A2EAA1BBB1BFD010DC0AA1FBB1F93
:10198000EE1FFF1FA217B307E407F50720F0A21B05
:10199000B30BE40BF50B661F771F881F991F1A9472
:1019A00069F760957095809590959B01AC01BD019C
:1019B000CF010895A29FB001B39FC001A39F700DF6
:1019C000811D1124911DB29F700D811D1124911D47
:1019D0000895991B79E004C0991F961708F0961B8B
:1019E000881F7A95C9F780950895EE0FFF1F881F0D
:1019F0008BBF0790F691E02D19940F931F93CF930F
:101A0000DF938230910510F482E090E0E0914B0387
:101A1000F0914C0330E020E0B0E0A0E0309799F482
:101A20002115310509F44AC0281B390B2430310532
:101A3000D8F58A819B816115710589F1FB0193833A
:101A40008283FE0111C040815181028113814817B8
:101A50005907E0F04817590799F4109761F012966A
:101A60000C93129713961C933296CF01DF91CF916E
:101A70001F910F91089500934B0310934C03F4CFE3
:101A80002115310551F04217530738F0A901DB0148
:101A90009A01BD01DF01F801C1CFEF01F9CF9093A9
:101AA0004C0380934B03CDCFFE01E20FF31F8193D4
:101AB00091932250310939832883D7CF209149034C
:101AC00030914A03232B41F4209106023091070202
:101AD00030934A0320934903209104023091050278
:101AE0002115310541F42DB73EB7409108025091C0
:101AF0000902241B350BE0914903F0914A03E217D8
:101B0000F307A0F42E1B3F0B2817390778F0AC0120
:101B10004E5F5F4F2417350748F04E0F5F1F5093FD
:101B20004A0340934903819391939FCFF0E0E0E013
:101B30009CCFCF93DF930097E9F0FC01329713829B
:101B40001282A0914B03B0914C03ED0130E020E0F4
:101B50001097A1F420813181820F931F20914903B6
:101B600030914A032817390709F061C0F0934A03FE
:101B7000E0934903DF91CF910895EA01CE17DF0783
:101B8000E8F54A815B819E0141155105B1F7E901F4
:101B9000FB83EA8349915991C40FD51FEC17FD07C8
:101BA00061F4808191810296840F951FE9019983E8
:101BB0008883828193819B838A83F0E0E0E01296A0
:101BC0008D919C9113970097B9F52D913C911197A8
:101BD000CD010296820F931F2091490330914A0351
:101BE0002817390739F6309751F510924C031092A7
:101BF0004B03B0934A03A0934903BCCFD383C28362
:101C000040815181840F951FC817D90761F44E5F39
:101C10005F4F88819981480F591F518340838A8182
:101C20009B81938382832115310509F0B0CFF09316
:101C30004C03E0934B039ECFFD01DC01C0CF138228
:101C40001282D7CF4F925F926F927F928F929F9224
:101C5000AF92BF92CF92DF92EF92FF920F931F93BA
:101C6000CF93DF938C01009799F4CB01DF91CF9153
:101C70001F910F91FF90EF90DF90CF90BF90AF90AA
:101C80009F908F907F906F905F904F900C94FD0C81
:101C9000FC01E60FF71F9C0122503109E217F30700
:101CA00008F4AEC0D901CD91DC911197C617D707C2
:101CB00020F1C530D10578F0CE010497861797073B
:101CC00050F0C61BD70B2297C193D1936D937C9391
:101CD000CF010E94990DC801DF91CF911F910F9103
:101CE000FF90EF90DF90CF90BF90AF909F908F903C
:101CF0007F906F905F904F9008955B01AC1ABD0A82
:101D00004C018C0E9D1EA0914B03B0914C03512CA5
:101D1000412CF12CE12C109731F5809149039091E1
:101D20004A038815990509F05CC04616570608F065
:101D300058C08091040290910502009741F48DB73C
:101D40009EB74091080250910902841B950BE81739
:101D5000F90708F055C0F0934A03E0934903F901ED
:101D600071836083B8CF8D919C91119712966C907E
:101D7000129713967C901397A815B90559F56C0125
:101D800042E0C40ED11CCA14DB0420F1AC014A1994
:101D90005B09DA011296159780F062827382518393
:101DA0004083D9016D937C93E114F10471F0D70164
:101DB0001396FC93EE9312978ECF22968C0F9D1F55
:101DC000F90191838083F301EFCFF0934C03E0930B
:101DD0004B0381CF4816590608F42C017D01D3012D
:101DE0009ACFCB010E94FD0C7C01009749F0AE0117
:101DF000B8010E94030FC8010E94990D87016BCFA3
:101E000010E000E068CFFB01DC0102C001900D9200
:101E100041505040D8F70895FB01DC0101900D922C
:101E20000020E1F7089511E0CBE4D1E000E006C026
:101E3000802FFE010E94F50C2196011DCC34D107A4
:0A1E400080E00807A9F7F894FFCF2F
:101E4A000400040000004D03800030303030303090
:061E5A00303000310000F1
:00000001FF
