:100000000C9460010C9491010C9491010C94910159
:100010000C9491010C9491010C9491010C94910118
:100020000C9491010C9491010C9491010C94910108
:100030000C9491010C9491010C9491010C949101F8
:100040000C9491010C94FB0B0C9491010C94910174
:100050000C9491010C9491010C9491010C94270B38
:100060000C9491010C9491010C9491010C949101C8
:100070000C9491010C9491010C9491010C949101B8
:100080000C94CD0B0C9491010C9491010C94910162
:100090000C9491010C9491010C9491010C94910198
:1000A0000C9491010C9491010C949F0B0C94910170
:1000B0000C9491010C9491010C9491010C94710B8E
:1000C0000C9491010C9491010C9491010C94910168
:1000D0000C9491010C9491010C9491010C94910158
:1000E0000C9491010C94B7010C9413030C94BB0174
:1000F0000C94E5020C9436040C94DB020C948A04F4
:100100000C94BF010C94D6010C94ED020C94FF02E8
:100110000C94AD0E0C94F6010C9498040C94090305
:100120000C944A030C9480040C94D0010C94F201BA
:100130000C94DA010C9440030C9436030C94BA022C
:100140000C94EC010C94DE010C944E040C941A10E7
:100150000C94F1010C9440040C94F5020C949E0450
:100160000C94D1020C94CC010C94E8010C947A0408
:100170000C94C6010C94C3010C9460040C942203EB
:100180000C94E4010C94C7020C94C2020C94540326
:100190000C9478040C94B1010C942C030000210001
:1001A000240027002A002D00300033000101000048
:1001B000040107010A0100002200250028002B008D
:1001C0002E003100340002010000050108010B017E
:1001D000000020002300260029002C002F00320000
:1001E00000010000030106010901050505050705D9
:1001F00008080808020202020A0A080804040404A3
:1002000001010101010101010303030303030303CE
:10021000040707070C0C0C0C0C0C0C0C020202025D
:1002200006060606060606060B0B0B0B0B0B0B0B46
:1002300001021020200808102040102040800201F8
:1002400002010804020101020408102040808040DD
:1002500020100804020180040201804020100804DC
:10026000020108040201010204081020408001027A
:1002700004081020408000000A0B02090C0D0E0833
:10028000070304010000000000000000000000005F
:10029000000000000000000000000000000000005E
:1002A000000012111000000000000000000000001B
:1002B000000000000000000000000000AD0E1A1059
:1002C00011241FBECFEFD1E2DEBFCDBF00E00CBFD7
:1002D00012E0A0E0B2E0E0EDF5E200E00BBF02C00A
:1002E00007900D92A831B107D9F723E0A8E1B2E059
:1002F00001C01D92A538B207E1F711E0CFE5D1E0CA
:1003000000E006C021970109802FFE010E94A41081
:10031000CE35D10780E00807A9F70E94290C0C947C
:10032000D6120C9400008150823108F05AC0E82F98
:10033000F0E08827E156FE4F8F4F0C94A410BF01C8
:10034000C301B101B701BB01F101C601CC01D0016C
:10035000D601DA01DE01E401E801F101EC01F2016C
:10036000F601809180008F778093800008958091BE
:1003700080008F7DF9CF80918000877FF5CF84B595
:100380008F7784BD089584B58F7DFBCF8091B000B9
:100390008F778093B00008958091B0008F7DF9CF62
:1003A000809190008F7780939000089580919000C5
:1003B0008F7DF9CF80919000877FF5CF8091A0004D
:1003C0008F778093A00008958091A0008F7DF9CF52
:1003D0008091A000877FF5CF809120018F77809357
:1003E00020010895809120018F7DF9CF8091200117
:1003F000877FF5CFCF93DF93282F30E0F901EA58BC
:10040000FD4F8491F901E05DFD4FD491F901E65172
:10041000FE4FC491CC23A1F081110E949301EC2FD7
:10042000F0E0EE0FFF1FE053FE4FA591B491EC9169
:10043000ED2381E090E009F480E0DF91CF91089511
:1004400080E090E0FACF1F93CF93DF93282F30E026
:10045000F901EA58FD4F8491F901E05DFD4FD49117
:10046000F901E651FE4FC491CC23A9F0162F81115A
:100470000E949301EC2FF0E0EE0FFF1FEA54FE4FB5
:10048000A591B4918FB7F894EC91111108C0D09553
:10049000DE23DC938FBFDF91CF911F910895DE2B78
:1004A000F8CFCF93DF9390E0FC01E05DFD4F249106
:1004B00086519E4FFC0184918823D1F090E0880FF3
:1004C000991FFC01E456FE4FA591B491FC01EA543A
:1004D000FE4FC591D49161110EC09FB7F8948C91D5
:1004E000E22FE0958E238C932881E223E8839FBF3F
:1004F000DF91CF9108958FB7F894EC91E22BEC93B4
:100500008FBFF6CF1F93CF93DF93182FEB0161E0DE
:100510000E945102209739F460E0812FDF91CF9142
:100520001F910C942302CF3FD10511F461E0F5CF68
:10053000E12FF0E0EA58FD4FE491E150E23108F09C
:10054000B3C0F0E08827E855FD4F8F4F0C94A410FE
:10055000BA02C202C702D102DB025403E502ED0275
:10056000F502FF020903130322032C03540336038D
:1005700040034A0384B5806884BDC7BDDF91CF9135
:100580001F91089584B5806284BDC8BDF7CF809166
:100590008000806880938000D0938900C093880099
:1005A000EDCF80918000806280938000D0938B009B
:1005B000C0938A00E3CF80918000886080938000A0
:1005C000D0938D00C0938C00D9CF8091B00080680B
:1005D0008093B000C093B300D1CF8091B00080620F
:1005E0008093B000C093B400C9CF80919000806820
:1005F00080939000D0939900C0939800BFCF8091D2
:100600009000806280939000D0939B00C0939A00EA
:10061000B5CF80919000886080939000D0939D002A
:10062000C0939C00ABCF8091A00080688093A00015
:100630008091A0008F7B8093A000D093A900C093ED
:10064000A8009CCF8091A00080628093A000D093EE
:10065000AB00C093AA0092CF8091A00088608093E5
:10066000A000D093AD00C093AC0088CF8091200152
:10067000806880932001D0932901C09328017ECF08
:1006800080912001806280932001D0932B01C09340
:100690002A0174CF80912001886080932001D0933B
:1006A0002D01C0932C016ACFC038D1050CF03ECF8C
:1006B00033CF3FB7F8948091580290915902A0919E
:1006C0005A02B0915B0226B5A89B05C02F3F19F0D6
:1006D0000196A11DB11D3FBFBA2FA92F982F8827C2
:1006E000BC01CD01620F711D811D911D42E0660F9D
:1006F000771F881F991F4A95D1F708958F929F926F
:10070000AF92BF92CF92DF92EF92FF926B017C018A
:100710000E9459034B015C01C114D104E104F104AE
:10072000B9F00E945903681979098A099B09683E42
:1007300073408105910580F321E0C21AD108E108D8
:10074000F10888EE880E83E0981EA11CB11CE4CF4E
:10075000FF90EF90DF90CF90BF90AF909F908F90E1
:1007600008950F931F93CF93DF93EC018B0188853E
:100770009985029751F46130710509F43AC06CF51E
:1007800060E00115110509F435C088859985049745
:1007900051F40130110509F455C00CF035C00115B4
:1007A000110509F43EC088859985059709F0C8C0F0
:1007B0000A30110508F0C4C0F8018827ED51FC4F3C
:1007C0008F4F0C94A410360440044E046004780447
:1007D0007A0480048A0498049E046230710591F0C2
:1007E00060E00330110589F68C850E94230260E0E9
:1007F00005C061E08C850E94230261E08E850E9425
:100800002302C3CF61E0F0CF0230110509F10330BC
:10081000110509F0C8CF61E08C850E94230260E0D9
:100820001CC061E08C850E94230260E08E850E94DE
:10083000230261E088890E94230260E08A890E9485
:100840002302B1CF60E08C850E94230261E0EECFED
:1008500060E08C850E94230261E08E850E94230265
:1008600060E088890E94230261E0E8CF60E08C8527
:100870000E94230261E08E850E94230261E009C08C
:1008800060E08C850E94230261E08E850E94230235
:1008900060E088890E94230260E00DC060E08C85E2
:1008A0000E94230261E08E850E94230260E0888915
:1008B0000E94230261E08A890E94230261E011C044
:1008C00060E08C850E94230261E08E850E942302F5
:1008D00060E088890E94230261E08A890E942302E5
:1008E00060E08C89DF91CF911F910F910C942302CE
:1008F00061E0E7CF61E08C850E94230260E0E5CFF4
:1009000061E08C850E94230260E08E850E942302B4
:1009100061E0DFCF61E08C850E94230260E08E857C
:100920000E94230261E088890E94230260E0D5CF03
:1009300061E08C850E94230260E09DCF60E0F9CFEA
:10094000DF91CF911F910F910895CF92DF92EF9297
:10095000FF920F931F93CF93DF93EC0161307105EA
:1009600009F045C0798368830E9459030E891F8965
:10097000288D398D6B017C01C01AD10AE20AF30A75
:100980000A811B812C813D81C016D106E206F30647
:1009900058F36E8B7F8B888F998F8A859B852881F2
:1009A00039812130310549F501969B878A872E814F
:1009B0003F818217930711F41B861A868A859B85CF
:1009C000288539856AE070E02530310511F064E052
:1009D00070E00E949010BC01CE01DF91CF911F9179
:1009E0000F91FF90EF90DF90CF900C94B1036F3F89
:1009F0007F4F79F419821882B7CF892B21F48E8129
:100A00009F819B878A878A859B8501979B878A8799
:100A1000D5CFDF91CF911F910F91FF90EF90DF9095
:100A2000CF9008951F93CF93DF93EC01162F888109
:100A3000803308F04EC061E0812F0E94510288810E
:100A4000282F30E0F901EE0FFF1FE20FF31FE45AE9
:100A5000FD4F1F736081607C612B608319821A8255
:100A60002CE0622F0E948410829FB001112430E09C
:100A700020E0AB01420F531FFA01EE0FFF1FE40FFE
:100A8000F51FE45AFD4F908196FD16C02F5F3F4F32
:100A90002C30310571F7813009F51092800082E029
:100AA000809381001092850010928400B19A809109
:100AB0006F00826080936F00E8818E2F90E0FC01D0
:100AC000EE0FFF1FE80FF91FE45AFD4F808180648D
:100AD00080838881DF91CF911F910895823061F4E6
:100AE00010929000809391001092950010929400C3
:100AF00088BB80937100E0CF833069F41092A0002E
:100B000082E08093A1001092A5001092A40089BBFE
:100B100080937200D1CF8111CFCF1092200182E05B
:100B20008093210110922501109224018ABB8093A9
:100B30007300C2CFAF92BF92CF92DF92EF92FF923B
:100B40000F931F93CF93DF936B017A01EC01C15B8D
:100B5000DD4F28813CE0389F8001399F100D112422
:100B6000A0904E02B12C27FF1FC0FB011182108202
:100B700088818F5F888388819801280F311D87FDC8
:100B80003A95F6012A153B051CF488818C30C4F196
:100B900080819181049680349C4908F473C0F601E9
:100BA00080819181049670C088819801280F311D41
:100BB00087FD3A952A153B05DCF68881A801480F88
:100BC000511D87FD5A95FA01EE0FFF1FE40FF51F27
:100BD000E45AFD4F808186FFCBCF8881F801E80F72
:100BE000F11D87FDFA95CF01EE0FFF1FE80FF91FEA
:100BF000E45AFD4F808160E08F730E942302B8CFDA
:100C0000808191812881A801420F511D27FD5A95AD
:100C10009A01FA01EE0FFF1FE20FF31FE45AFD4F96
:100C200021813281820F931FF70191838083888114
:100C30009801280F311D87FD3A95F901EE0FFF1F2E
:100C4000E20FF31FE45AFD4F808186FF22C08881A6
:100C5000080F111D87FD1A95F801EE0FFF1FE00F19
:100C6000F11FE45AFD4F808161E08F73DF91CF91D6
:100C70001F910F91FF90EF90DF90CF90BF90AF90BA
:100C80000C94230280E49CE9F701918380838FEF29
:100C90008883DF91CF911F910F91FF90EF90DF90AC
:100CA000CF90BF90AF900895CF92DF92EF92FF92D6
:100CB000CF93DF93EC0162E370E08AE00E9482024E
:100CC00062E370E089E00E94820260E085E00E94B9
:100CD000230261E084E00E94230261E083E00E943D
:100CE000230260E082E00E942302BE01DD0F880B38
:100CF000990B0E947E0360E085E00E94230260E081
:100D000084E00E94230260E083E00E94230260E00E
:100D100082E00E942302C4E3D2E02E813F81032EB1
:100D2000000C440B550BC12C87E8D82E83E9E82E24
:100D300083E0F82EC701B6010E942910CA01B9014B
:100D400022E330E040E050E00E9429102A833B83F8
:100D50004C835D8361E070E0CE010E94A504CAE18E
:100D6000D2E02E813F81032E000C440B550BC701AE
:100D7000B6010E942910CA01B90125E030E040E027
:100D800050E00E9429102A833B834C835D8361E0FD
:100D900070E0CE01DF91CF91FF90EF90DF90CF9088
:100DA0000C94A504CF92DF92EF92FF92CF93DF9342
:100DB000EC0162E370E08AE00E94820262E370E08C
:100DC00089E00E94820261E085E00E94230260E0E7
:100DD00084E00E94230260E083E00E94230261E03D
:100DE00082E00E942302BE01DD0F880B990B0E9456
:100DF0007E0360E085E00E94230260E084E00E94C0
:100E0000230260E083E00E94230260E082E00E940F
:100E10002302C4E3D2E02E813F81032E000C440B59
:100E2000550BC12C87E8D82E83E9E82E83E0F82EF5
:100E3000C701B6010E942910CA01B90125E030E0BE
:100E400040E050E00E9429102A833B834C835D835D
:100E500061E070E0CE010E94A504CAE1D2E02E81DB
:100E60003F81032E000C440B550BC701B6010E94B5
:100E70002910CA01B90122E330E040E050E00E94AD
:100E800029102A833B834C835D8361E070E0CE01AF
:100E9000DF91CF91FF90EF90DF90CF900C94A5045D
:100EA0008F929F92AF92BF92CF92DF92EF92FF927A
:100EB000CF93DF9360E085E00E94230260E084E04E
:100EC0000E94230260E083E00E94230260E082E04F
:100ED0000E942302C4E3D2E02E813F81032E000C46
:100EE000440B550BC12C87E8D82E83E9E82E83E00C
:100EF000F82EC701B6010E94291095E0892E912C89
:100F0000A12CB12CCA01B901A50194010E9429109C
:100F10002A833B834C835D83CAE1D2E02E813F81EB
:100F2000032E000C440B550BC701B6010E9429107B
:100F3000CA01B901A50194010E9429102A833B83AB
:100F40004C835D83DF91CF91FF90EF90DF90CF9046
:100F5000BF90AF909F908F9008958F929F92AF9285
:100F6000BF92CF92DF92EF92FF92CF93DF9364E62E
:100F700070E08AE00E94820264E670E089E00E94EC
:100F8000820260E085E00E94230261E084E00E942A
:100F9000230260E083E00E94230261E082E00E947D
:100FA0002302C4E3D2E02E813F81032E000C440BC8
:100FB000550B812C87E8982E83E9A82E83E0B82E64
:100FC000C501B4010E94291094E6C92ED12CE12C50
:100FD000F12CCA01B901A70196010E9429102A83A8
:100FE0003B834C835D836FEF7FEFCE010E94A504AE
:100FF000CAE1D2E02E813F81032E000C440B550B39
:10100000C501B4010E942910CA01B901A7019601C6
:101010000E9429102A833B834C835D836FEF7FEF0F
:10102000CE01DF91CF91FF90EF90DF90CF90BF90F6
:10103000AF909F908F900C94A504CF92DF92EF9287
:10104000FF920F931F93CF93DF931F921F92CDB701
:10105000DEB769834A83880F991F00917F0310913F
:101060008003000F111FE9E2F3E09F012952334092
:101070002017310714F41192F8CF2981FC01E75DA4
:10108000FC4F21838A81808360E080917D030E94F0
:1010900023021016110604F501501109F801E75D4D
:1010A000FC4FE080D0907B03C090790388E0F82E5D
:1010B0006E2D661F6627661F8C2D0E942302EE0C84
:1010C00061E08D2D0E94230260E08D2D0E9423029D
:1010D000FA94F110EDCFDDCF61E080917D030F90A8
:1010E0000F90DF91CF911F910F91FF90EF90DF90C4
:1010F000CF900C942302EF92FF920F931F93CF9304
:101100007C018C0183E0000F111F8A95E1F7075CD9
:101110001C4FC1E0F80111928F0140E06C2FC70114
:101120000E941D08CF5FC930A9F7CF911F910F9181
:10113000FF90EF9008950F931F93CF93DF93EC01EF
:1011400088819981009759F02A813B8126173707BA
:1011500030F081E0DF91CF911F910F9108958B01C5
:101160006F5F7F4F0E94E511009759F09983888344
:101170001B830A832C813D81232B59F7FC011082AC
:10118000E8CF80E0E7CFEF92FF920F931F93CF93CA
:10119000DF936115710541F480E0DF91CF911F91DC
:1011A0000F91FF90EF90089541155105B1F07B012B
:1011B000EC010C811D81040F151FB8010E949B08D2
:1011C000882351F3288139818C819D81B701820F59
:1011D000931F0E94CF121D830C8381E0DECFCF933B
:1011E000DF93EC0188819981009711F00E945C11D6
:1011F000198218821D821C821B821A82DF91CF9174
:101200000895EF92FF920F931F93CF93DF93EC011A
:101210007B018A01BA010E949B0881110BC0CE019B
:101220000E94EF08CE01DF91CF911F910F91FF90A7
:10123000EF9008951D830C83B701888199810E94E6
:10124000CF12F0CFCF93DF93EC01FB018617970706
:1012500049F0608171816115710541F044815581CA
:101260000E940109CE01DF91CF9108950E94EF08FD
:10127000F9CFFC0180819181009711F00C945C11F1
:101280000895FC0111821082138212821582148249
:10129000FB0101900020E9F73197AF01461B570B86
:1012A0000C9401098F929F92AF92BF92CF92DF92DE
:1012B000EF92FF920F931F93CF93DF93CDB7DEB7DB
:1012C00068970FB6F894DEBF0FBECDBF64E670E03E
:1012D0008AE00E94820264E670E089E00E94820255
:1012E00061E085E00E94230260E084E00E94230226
:1012F00061E083E00E94230260E082E00E9423021A
:1013000020913A0230913B02032E000C440B550B06
:10131000C12C67E8D62E63E9E62E63E0F62EC701FE
:10132000B6010E94291074E6872E912CA12CB12CB5
:10133000CA01B901A50194010E9429102093360227
:1013400030933702409338025093390261E070E0E5
:1013500084E392E00E94A5042091200230912102B2
:10136000032E000C440B550BC701B6010E94291037
:10137000CA01B901A50194010E94291020931C0201
:1013800030931D0240931E0250931F0261E070E0F3
:101390008AE192E00E94A5048091180290911902BE
:1013A00001969093190280931802089709F03CC1A6
:1013B00080910602882309F4A5C0809102029091D1
:1013C000030220910502222309F49AC00197909309
:1013D000030280930202A0900002B090010228E074
:1013E000A216B10440F4E0900202F090030238E04B
:1013F000E316F10498F183E090E09093010280936A
:101400000002909303028093020202EF12E052E284
:10141000E52E53E0F52E48E050E06DE072E0C801A3
:101420000E9401090A5F1F4FE016F106A1F78091A3
:101430007F03909180031816190624F490E080E051
:101440000E947B0864E670E080E090E00E947E03EA
:1014500033E0E32EF12C43E0A42EB12C8091020264
:101460009091030226E0D22ED89EB001D99E700D35
:1014700011246E507D4F1C8A1B8A1E8A1D8A188E6D
:101480001F8ACE0143960E94220965E172E0CE01D7
:101490000D960E94410965E172E0CE0107960E9417
:1014A000410910E000E0DE9CC001DF9C900D11249A
:1014B000FC01EE50FD4F6F014F01F4E08F0E911CC7
:1014C000A016B10689F1F4018081918108171907EE
:1014D00048F5F60180819181009721F1800F911FDD
:1014E000FC01808189831A8241E050E0BE016F5F78
:1014F0007F4FCE010D960E94C3080F5F1F4FE0CFB4
:10150000019665CF80910002909101022091040222
:10151000222331F0019790930102809300025BCF68
:101520000196F9CF80E0DECF009100021091010218
:101530000F5F1F4F26E02E9DC0012F9D900D11249F
:101540009C012E503D4F6901590134E0A30EB11C9E
:1015500008301105FCF4F501808191810817190705
:10156000B8F4F60180819181009791F0800F911F6E
:10157000FC01808189831A8241E050E0BE016F5FE7
:101580007F4FCE0107960E94C3080F5F1F4FE0CF29
:1015900080E0F0CF1A8219821C821B821E821D827B
:1015A000BE01635F7F4FCE0101960E94220941E098
:1015B00050E066E172E0CE0101960E94C3088111FD
:1015C00004C0CE0101960E94EF084B855C856F81B7
:1015D0007885CE0101960E94C308811104C0CE0116
:1015E00001960E94EF0826E02E9DC0012F9D900DD0
:1015F0001124BE016F5F7F4F8E509D4F0E942209C4
:10160000CE0101960E943909CE0107960E94390940
:10161000CE010D960E943909CE0143960E943909E8
:10162000109219021092180268960FB6F894DEBF55
:101630000FBECDBFDF91CF911F910F91FF90EF9023
:10164000DF90CF90BF90AF909F908F9008951F92A2
:101650000F920FB60F9211242F933F938F939F9366
:10166000AF93BF938091540290915502A09156027E
:10167000B09157023091530223E0230F2D3758F5D4
:101680000196A11DB11D20935302809354029093A3
:101690005502A0935602B093570280915802909140
:1016A0005902A0915A02B0915B020196A11DB11D91
:1016B0008093580290935902A0935A02B0935B0210
:1016C000BF91AF919F918F913F912F910F900FBE3E
:1016D0000F901F90189526E8230F0296A11DB11DAB
:1016E000D2CF1F920F920FB60F9211240BB60F920A
:1016F0002F933F934F935F936F937F938F939F931A
:10170000AF93BF93EF93FF9348E251E064E271E03F
:1017100090E080E00E949A05FF91EF91BF91AF9118
:101720009F918F917F916F915F914F913F912F91F9
:101730000F900BBE0F900FBE0F901F9018951F9229
:101740000F920FB60F9211240BB60F922F933F9367
:101750004F935F936F937F938F939F93AF93BF93B9
:10176000EF93FF9348EA50E064EA70E083E090E092
:101770000E949A05FF91EF91BF91AF919F918F9138
:101780007F916F915F914F913F912F910F900BBE81
:101790000F900FBE0F901F9018951F920F920FB6CB
:1017A0000F9211240BB60F922F933F934F935F9399
:1017B0006F937F938F939F93AF93BF93EF93FF9319
:1017C00048E950E064E970E082E090E00E949A0508
:1017D000FF91EF91BF91AF919F918F917F916F9109
:1017E0005F914F913F912F910F900BBE0F900FBEC5
:1017F0000F901F9018951F920F920FB60F92112401
:101800000BB60F922F933F934F935F936F937F93FA
:101810008F939F93AF93BF93EF93FF9348E850E06C
:1018200064E870E081E090E00E949A05FF91EF91FA
:10183000BF91AF919F918F917F916F915F914F91E8
:101840003F912F910F900BBE0F900FBE0F901F90E6
:101850001895789484B5826084BD84B5816084BD18
:1018600085B5826085BD85B5816085BD80916E003E
:10187000816080936E00109281008091810082606F
:1018800080938100809181008160809381008091AC
:1018900080008160809380008091B100846080939B
:1018A000B1008091B00081608093B0008091910080
:1018B000826080939100809191008160809391007B
:1018C000809190008160809390008091A10082605F
:1018D0008093A1008091A10081608093A1008091FC
:1018E000A00081608093A00080912101826080939C
:1018F000210180912101816080932101809120014B
:1019000081608093200180917A00846080937A00C6
:1019100080917A00826080937A0080917A00816061
:1019200080937A0080917A00806880937A00109288
:10193000C10060E088E00E94510260E087E00E9400
:10194000510261E086E00E94510266E070E08FEE95
:1019500092E00E9412058091F10208E512E0081B56
:10196000110987FD1395000F111F000F111F8091A2
:10197000F002C8E8D0E0C81BD10987FDD395CC0F91
:10198000DD1FCC0FDD1F6E010D2E000CEE08FF08D1
:101990009801012E000C440B550B2C193D094E09E2
:1019A0005F09AAE5B0E00E94481024EB30E040E077
:1019B00050E00E942910C20ED31EE41EF51EE091D5
:1019C000EF02E033C8F4CC16DD062CF0E801C016B7
:1019D000D1060CF4E6012297CC0FDD1F2FB7F89447
:1019E0008E2F90E0FC01EE0FFF1FE80FF91FE45A65
:1019F000FD4FD283C1832FBF60E08DE00E94510272
:101A000060E08CE00E94510260E08BE00E94510295
:101A100061E085E00E94510261E084E00E94510291
:101A200061E083E00E94510261E082E00E94510285
:101A300061E08AE00E94510261E089E00E94510267
:101A400061E083E20E94510263E270E08CEE92E07A
:101A50000E94120580917F03909180031816190649
:101A600034F441E06CE090E080E00E941D08809139
:101A70007F03909180031816190634F44FE06AE052
:101A800090E080E00E941D0880917F039091800388
:101A90001816190624F490E080E00E947B0861E0AB
:101AA00082E30E94510261E084E30E94510261E0FE
:101AB00083E30E94510261E085E30E9451026624A3
:101AC000639490E8E92EF12C20E0C22E20E0D22E83
:101AD00077247394AA24A394B12C8DE00E94FA0178
:101AE0008C0190932803809327038CE00E94FA01D5
:101AF000EC0190932603809325038BE00E94FA016A
:101B00000130110559F4C130D10511F5813091052D
:101B1000B1F4709224030E94520920C0012BF1F409
:101B2000C130D10509F069C0009799F30197B1F46C
:101B30007092240381E090E00E94D206ECCF892BC2
:101B400069F47092240381E090E00E945406E3CF90
:101B5000CD2B21F4892B11F47092240389E2882E75
:101B600083E0982E02EF12E055245394D0E0C0E0B9
:101B700020917F0330918003F80184819581C817FB
:101B8000D90708F0DAC080819181009709F4D5C0A7
:101B90008C0F9D1FFC018081813309F0CEC012168D
:101BA00013068CF4F4014089C7010C2E02C09595F0
:101BB00087950A94E2F7482BF401408B652D90E05D
:101BC00080E00E941D082196C830D10589F6FFEFFC
:101BD0008F1A9F0A53940A5F1F4F29E05212C6CFF3
:101BE00064E670E080E090E00E947E03C114D104BE
:101BF00009F473CF0E94000070CFCD2B09F0AECF57
:101C00008130910509F4A8CF892B09F0A7CF8091E5
:101C10002403882309F4A2CF109224030E94AD0765
:101C200068EC70E080E090E00E947E030E94500724
:101C30006CE474E080E090E00E947E0380912203D7
:101C400090912303892B09F053C084E398E00E940C
:101C5000D2060E94500765EF70E080E090E00E949D
:101C60007E030E94520964EF71E080E090E00E94E0
:101C70007E038CE00E94FA01EC019093260380938E
:101C800025030E94500768EE73E080E090E00E9418
:101C90007E032197C1F410922303109222037092C5
:101CA000240380910602882339F09091050299233C
:101CB000B9F11092040236C0909104029923D1F137
:101CC000709205022FC00E94AD0764EF71E080E0C2
:101CD00090E00E947E03B0922303A09222030E9410
:101CE000AD0763E270E080E090E00E947E0313CFD6
:101CF00084E090E10E9454060E94500765EF70E076
:101D000080E090E00E947E03109223031092220351
:101D100080910602882351F090910502992349F29F
:101D200070920402862580930602F5CE90910402FB
:101D3000992331F210920502F5CF121613060CF01A
:101D400042CFA7010C2E02C0559547950A94E2F7A1
:101D50004095F4018089482330CF0F931F93CF9390
:101D6000DF9380914E02803308F028C191E0980FF4
:101D700090934E028093EC0290E0FC01EE0FFF1F67
:101D8000E80FF91FE45AFD4F88EB9BE092838183B3
:101D900080914E02803308F015C191E0980F909326
:101DA0004E028093EF0290E0FC01EE0FFF1FE80F60
:101DB000F91FE45AFD4F88EB9BE0928381831092D8
:101DC0003F0210923E02109235021092340210929D
:101DD0004A0210924B0210924C0210924D0204E102
:101DE00010E010933B0200933A0282E390E090935C
:101DF00041028093400283E390E0909343028093FA
:101E0000420284E390E0909345028093440285E38C
:101E100090E0909347028093460261E082E30E9443
:101E2000510261E0809142020E94510261E0809182
:101E300044020E94510261E0809146020E945102D8
:101E40001092490210924802C4E0D0E0D0933D02C3
:101E5000C0933C02109225021092240210921B02A1
:101E600010921A0210923002109231021092320235
:101E700010923302109321020093200286E190E039
:101E8000909327028093260287E190E090932902A5
:101E90008093280288E190E090932B0280932A029D
:101EA00089E190E090932D0280932C0261E086E11D
:101EB0000E94510261E0809128020E94510261E07B
:101EC00080912A020E94510261E080912C020E94BE
:101ED000510210922F0210922E02D0932302C0932F
:101EE0002202CFE2D0E0D0937A03C093790380E35B
:101EF00090E090937C0380937B0381E390E0909348
:101F00007E0380937D0381E090E090938003809333
:101F10007F0361E08FE20E94510261E080917B03C8
:101F20000E94510261E080917D030E94510261E0B4
:101F300080917D030E942302D0937A03C09379039A
:101F4000E9E3F3E0119283E0E937F807D9F7D0E04D
:101F5000C0E080917F0390918003C817D907B4F542
:101F600040E06FE0CE010E941D0880917F039091B8
:101F70008003C817D9072CF447E06BE0CE010E941C
:101F80001D0840E069E0CE010E941D0880917F039A
:101F900090918003C817D9071CF4CE010E947B08DA
:101FA00080917F0390918003C817D9072CF440E0FB
:101FB0006CE0CE010E941D082196CBCF8FEF80935D
:101FC000EC02E6CE8FEF8093EF02F9CE6DE072E087
:101FD00082EF92E00E9441096DE072E088EF92E0AA
:101FE0000E9441096DE072E08EEF92E00E9441098B
:101FF0006DE072E084E093E00E9441096DE072E0E0
:102000008AE093E00E9441096DE072E080E193E094
:102010000E9441096DE072E086E193E00E9441096F
:102020006DE072E08CE193E0DF91CF911F910F9111
:102030000C944109CF93DF93C2E2D3E02697CE01FF
:102040000E94390982E0C23FD807C1F7DF91CF91E2
:102050000895052E97FB1EF400940E94401057FD32
:1020600007D00E94531007FC03D04EF40C9440108C
:1020700050954095309521953F4F4F4F5F4F0895B4
:1020800090958095709561957F4F8F4F9F4F0895E4
:102090000E947510A59F900DB49F900DA49F800D78
:1020A000911D11240895A1E21A2EAA1BBB1BFD014C
:1020B0000DC0AA1FBB1FEE1FFF1FA217B307E40727
:1020C000F50720F0A21BB30BE40BF50B661F771F7F
:1020D000881F991F1A9469F760957095809590955F
:1020E0009B01AC01BD01CF010895A29FB001B39F38
:1020F000C001A39F700D811D1124911DB29F700D11
:10210000811D1124911D0895991B79E004C0991F28
:10211000961708F0961B881F7A95C9F78095089541
:1021200097FB072E16F4009407D077FD09D00E9484
:10213000AC1007FC05D03EF4909581959F4F089513
:10214000709561957F4F0895EE0FFF1F881F8BBF1D
:102150000790F691E02D1994AA1BBB1B51E107C013
:10216000AA1FBB1FA617B70710F0A61BB70B881F27
:10217000991F5A95A9F780959095BC01CD010895B6
:102180000F931F93CF93DF938230910510F482E079
:1021900090E0E0918303F091840330E020E0B0E030
:1021A000A0E0309799F42115310509F44AC0281BA5
:1021B000390B24303105D8F58A819B816115710571
:1021C00089F1FB0193838283FE0111C0408151811B
:1021D0000281138148175907E0F04817590799F40D
:1021E000109761F012960C93129713961C933296E7
:1021F000CF01DF91CF911F910F9108950093830339
:1022000010938403F4CF2115310551F04217530781
:1022100038F0A901DB019A01BD01DF01F801C1CF4E
:10222000EF01F9CF9093840380938303CDCFFE0118
:10223000E20FF31F81939193225031093983288350
:10224000D7CF2091810330918203232B41F4209139
:10225000090230910A023093820320938103209176
:102260000702309108022115310541F42DB73EB720
:1022700040910B0250910C02241B350BE09181031D
:10228000F0918203E217F307A0F42E1B3F0B2817EF
:10229000390778F0AC014E5F5F4F2417350748F0DF
:1022A0004E0F5F1F5093820340938103819391935C
:1022B0009FCFF0E0E0E09CCFCF93DF930097E9F071
:1022C000FC01329713821282A0918303B0918403A0
:1022D000ED0130E020E01097A1F420813181820FE0
:1022E000931F20918103309182032817390709F049
:1022F00061C0F0938203E0938103DF91CF91089551
:10230000EA01CE17DF07E8F54A815B819E0141159E
:102310005105B1F7E901FB83EA8349915991C40F53
:10232000D51FEC17FD0761F4808191810296840F1F
:10233000951FE90199838883828193819B838A8396
:10234000F0E0E0E012968D919C9113970097B9F51B
:102350002D913C911197CD010296820F931F2091F0
:102360008103309182032817390739F6309751F5E8
:102370001092840310928303B0938203A09381038D
:10238000BCCFD383C28340815181840F951FC8176E
:10239000D90761F44E5F5F4F88819981480F591FBB
:1023A000518340838A819B819383828321153105E8
:1023B00009F0B0CFF0938403E09383039ECFFD0137
:1023C000DC01C0CF13821282D7CF4F925F926F92FF
:1023D0007F928F929F92AF92BF92CF92DF92EF92B5
:1023E000FF920F931F93CF93DF938C01009799F483
:1023F000CB01DF91CF911F910F91FF90EF90DF9074
:10240000CF90BF90AF909F908F907F906F905F9094
:102410004F900C94C010FC01E60FF71F9C01225056
:102420003109E217F30708F4AEC0D901CD91DC9170
:102430001197C617D70720F1C530D10578F0CE0126
:1024400004978617970750F0C61BD70B2297C193A6
:10245000D1936D937C93CF010E945C11C801DF91F1
:10246000CF911F910F91FF90EF90DF90CF90BF9091
:10247000AF909F908F907F906F905F904F90089556
:102480005B01AC1ABD0A4C018C0E9D1EA09183030A
:10249000B0918403512C412CF12CE12C109731F593
:1024A00080918103909182038815990509F05CC0A1
:1024B0004616570608F058C080910702909108020E
:1024C000009741F48DB79EB740910B0250910C02DA
:1024D000841B950BE817F90708F055C0F0938203A9
:1024E000E0938103F90171836083B8CF8D919C9152
:1024F000119712966C90129713967C901397A815CB
:10250000B90559F56C0142E0C40ED11CCA14DB04B4
:1025100020F1AC014A195B09DA011296159780F097
:102520006282738251834083D9016D937C93E1145D
:10253000F10471F0D7011396FC93EE9312978ECFAE
:1025400022968C0F9D1FF90191838083F301EFCFB9
:10255000F0938403E093830381CF4816590608F46F
:102560002C017D01D3019ACFCB010E94C0107C01C8
:10257000009749F0AE01B8010E94C612C8010E943E
:102580005C1187016BCF10E000E068CFFB01DC013C
:1025900002C001900D9241505040D8F70895FB01C0
:1025A000DC0101900D920020E1F7089511E0CFE5E4
:1025B000D1E000E006C0802FFE010E94A410219609
:1025C000011DC036D10780E00807A9F7F894FFCFB6
:1025D0000200060001010100008503800030303058
:0825E0003030303030003100D2
:00000001FF
